{
  "contractName": "CertificateStore",
  "abi": [
    {
      "anonymous": false,
      "inputs": [
        {
          "indexed": false,
          "internalType": "bytes32",
          "name": "fingerprint",
          "type": "bytes32"
        }
      ],
      "name": "CertificateAdded",
      "type": "event"
    },
    {
      "anonymous": false,
      "inputs": [
        {
          "indexed": false,
          "internalType": "bytes32",
          "name": "certID",
          "type": "bytes32"
        }
      ],
      "name": "CertificateRevoked",
      "type": "event"
    },
    {
      "anonymous": false,
      "inputs": [
        {
          "indexed": false,
          "internalType": "bytes32",
          "name": "certID",
          "type": "bytes32"
        },
        {
          "indexed": false,
          "internalType": "uint256",
          "name": "expiration",
          "type": "uint256"
        }
      ],
      "name": "CertificateUpdated",
      "type": "event"
    },
    {
      "anonymous": false,
      "inputs": [
        {
          "indexed": false,
          "internalType": "bytes32",
          "name": "fingerprint",
          "type": "bytes32"
        },
        {
          "indexed": false,
          "internalType": "uint256",
          "name": "rootIndex",
          "type": "uint256"
        }
      ],
      "name": "SelfSignedCertificateAdded",
      "type": "event"
    },
    {
      "anonymous": false,
      "inputs": [
        {
          "indexed": false,
          "internalType": "uint256",
          "name": "storeIndex",
          "type": "uint256"
        },
        {
          "indexed": false,
          "internalType": "bytes32",
          "name": "fingerprint",
          "type": "bytes32"
        }
      ],
      "name": "rootAddedtoStore",
      "type": "event"
    },
    {
      "anonymous": false,
      "inputs": [
        {
          "indexed": false,
          "internalType": "uint256",
          "name": "storeIndex",
          "type": "uint256"
        },
        {
          "indexed": false,
          "internalType": "bytes32",
          "name": "fingerprint",
          "type": "bytes32"
        }
      ],
      "name": "rootRemovedFromStore",
      "type": "event"
    },
    {
      "constant": false,
      "inputs": [
        {
          "internalType": "bytes",
          "name": "der",
          "type": "bytes"
        }
      ],
      "name": "addSelfsignedCertificate",
      "outputs": [],
      "payable": false,
      "stateMutability": "nonpayable",
      "type": "function"
    },
    {
      "constant": false,
      "inputs": [
        {
          "internalType": "bytes",
          "name": "der",
          "type": "bytes"
        },
        {
          "internalType": "bytes32",
          "name": "issuerID",
          "type": "bytes32"
        }
      ],
      "name": "addCertificate",
      "outputs": [],
      "payable": false,
      "stateMutability": "nonpayable",
      "type": "function"
    },
    {
      "constant": false,
      "inputs": [
        {
          "internalType": "bytes32",
          "name": "certID",
          "type": "bytes32"
        },
        {
          "internalType": "bytes",
          "name": "ocsp",
          "type": "bytes"
        }
      ],
      "name": "refreshCertificateOCSP",
      "outputs": [],
      "payable": false,
      "stateMutability": "nonpayable",
      "type": "function"
    },
    {
      "constant": false,
      "inputs": [
        {
          "internalType": "bytes32",
          "name": "certID",
          "type": "bytes32"
        },
        {
          "internalType": "bytes",
          "name": "crl",
          "type": "bytes"
        }
      ],
      "name": "refreshCertificateCRL",
      "outputs": [],
      "payable": false,
      "stateMutability": "nonpayable",
      "type": "function"
    },
    {
      "constant": true,
      "inputs": [
        {
          "internalType": "bytes32",
          "name": "certID",
          "type": "bytes32"
        }
      ],
      "name": "getCert",
      "outputs": [
        {
          "internalType": "uint8",
          "name": "",
          "type": "uint8"
        },
        {
          "internalType": "bytes",
          "name": "",
          "type": "bytes"
        },
        {
          "internalType": "uint256",
          "name": "",
          "type": "uint256"
        },
        {
          "internalType": "uint256",
          "name": "",
          "type": "uint256"
        },
        {
          "internalType": "bytes",
          "name": "",
          "type": "bytes"
        },
        {
          "internalType": "bytes",
          "name": "",
          "type": "bytes"
        },
        {
          "internalType": "bytes32",
          "name": "",
          "type": "bytes32"
        }
      ],
      "payable": false,
      "stateMutability": "view",
      "type": "function"
    },
    {
      "constant": true,
      "inputs": [
        {
          "internalType": "bytes32",
          "name": "certID",
          "type": "bytes32"
        }
      ],
      "name": "getCertExtensionFields",
      "outputs": [
        {
          "internalType": "bytes",
          "name": "",
          "type": "bytes"
        },
        {
          "internalType": "bool",
          "name": "",
          "type": "bool"
        },
        {
          "internalType": "int256",
          "name": "",
          "type": "int256"
        },
        {
          "internalType": "bytes",
          "name": "",
          "type": "bytes"
        },
        {
          "internalType": "bytes1",
          "name": "",
          "type": "bytes1"
        }
      ],
      "payable": false,
      "stateMutability": "view",
      "type": "function"
    },
    {
      "constant": true,
      "inputs": [
        {
          "internalType": "bytes32",
          "name": "certID",
          "type": "bytes32"
        }
      ],
      "name": "getOCSPStatus",
      "outputs": [
        {
          "internalType": "uint8",
          "name": "",
          "type": "uint8"
        },
        {
          "internalType": "uint256",
          "name": "",
          "type": "uint256"
        },
        {
          "internalType": "uint256",
          "name": "",
          "type": "uint256"
        }
      ],
      "payable": false,
      "stateMutability": "view",
      "type": "function"
    },
    {
      "constant": true,
      "inputs": [
        {
          "internalType": "bytes32",
          "name": "certID",
          "type": "bytes32"
        }
      ],
      "name": "getCRLStatus",
      "outputs": [
        {
          "internalType": "uint8",
          "name": "",
          "type": "uint8"
        },
        {
          "internalType": "uint256",
          "name": "",
          "type": "uint256"
        },
        {
          "internalType": "uint256",
          "name": "",
          "type": "uint256"
        }
      ],
      "payable": false,
      "stateMutability": "view",
      "type": "function"
    },
    {
      "constant": true,
      "inputs": [
        {
          "internalType": "bytes32",
          "name": "certID",
          "type": "bytes32"
        }
      ],
      "name": "getCertificateStatus",
      "outputs": [
        {
          "internalType": "bool",
          "name": "contained",
          "type": "bool"
        },
        {
          "internalType": "bool",
          "name": "expired",
          "type": "bool"
        },
        {
          "internalType": "bool",
          "name": "revoked",
          "type": "bool"
        },
        {
          "internalType": "bool",
          "name": "validChain",
          "type": "bool"
        }
      ],
      "payable": false,
      "stateMutability": "view",
      "type": "function"
    },
    {
      "constant": true,
      "inputs": [
        {
          "internalType": "bytes32",
          "name": "certID",
          "type": "bytes32"
        },
        {
          "internalType": "string",
          "name": "domainName",
          "type": "string"
        }
      ],
      "name": "getPublicKeyAndRoot",
      "outputs": [
        {
          "internalType": "bool",
          "name": "",
          "type": "bool"
        },
        {
          "internalType": "bytes",
          "name": "",
          "type": "bytes"
        },
        {
          "internalType": "bytes32",
          "name": "",
          "type": "bytes32"
        }
      ],
      "payable": false,
      "stateMutability": "view",
      "type": "function"
    },
    {
      "constant": true,
      "inputs": [
        {
          "internalType": "uint256",
          "name": "index",
          "type": "uint256"
        }
      ],
      "name": "getRootFingerprint",
      "outputs": [
        {
          "internalType": "bytes32",
          "name": "",
          "type": "bytes32"
        }
      ],
      "payable": false,
      "stateMutability": "view",
      "type": "function"
    },
    {
      "constant": true,
      "inputs": [
        {
          "internalType": "bytes32",
          "name": "certID",
          "type": "bytes32"
        }
      ],
      "name": "getRootIDbyCertID",
      "outputs": [
        {
          "internalType": "bytes32",
          "name": "",
          "type": "bytes32"
        }
      ],
      "payable": false,
      "stateMutability": "view",
      "type": "function"
    },
    {
      "constant": true,
      "inputs": [
        {
          "internalType": "bytes32",
          "name": "certID",
          "type": "bytes32"
        }
      ],
      "name": "certExists",
      "outputs": [
        {
          "internalType": "bool",
          "name": "",
          "type": "bool"
        }
      ],
      "payable": false,
      "stateMutability": "view",
      "type": "function"
    },
    {
      "constant": true,
      "inputs": [
        {
          "internalType": "bytes",
          "name": "der",
          "type": "bytes"
        }
      ],
      "name": "getFingerprint",
      "outputs": [
        {
          "internalType": "bytes32",
          "name": "",
          "type": "bytes32"
        }
      ],
      "payable": false,
      "stateMutability": "pure",
      "type": "function"
    }
  ],
  "bytecode": "0x608060405260006002553480156200001657600080fd5b506199d980620000276000396000f3fe608060405234801561001057600080fd5b50600436106100ea5760003560e01c80639b63cc2f1161008c578063c0692bcd11610066578063c0692bcd1461094c578063c430f341146109a2578063cab621d914610a5d578063eb5fa90514610ac4576100ea565b80639b63cc2f146106d5578063a206e8ba14610717578063b36c6e0c14610887576100ea565b80634c52d570116100c85780634c52d570146104245780637e3cb07d146104e957806387b97c631461052f5780639ac43d411461067f576100ea565b8063031b74d9146100ef5780633d378a2314610290578063484d90441461035f575b600080fd5b61011b6004803603602081101561010557600080fd5b8101908080359060200190929190505050610b06565b604051808860ff1660ff16815260200180602001878152602001868152602001806020018060200185815260200184810384528a818151815260200191508051906020019080838360005b83811015610181578082015181840152602081019050610166565b50505050905090810190601f1680156101ae5780820380516001836020036101000a031916815260200191505b50848103835287818151815260200191508051906020019080838360005b838110156101e75780820151818401526020810190506101cc565b50505050905090810190601f1680156102145780820380516001836020036101000a031916815260200191505b50848103825286818151815260200191508051906020019080838360005b8381101561024d578082015181840152602081019050610232565b50505050905090810190601f16801561027a5780820380516001836020036101000a031916815260200191505b509a505050505050505050505060405180910390f35b610349600480360360208110156102a657600080fd5b81019080803590602001906401000000008111156102c357600080fd5b8201836020820111156102d557600080fd5b803590602001918460018302840111640100000000831117156102f757600080fd5b91908080601f016020809104026020016040519081016040528093929190818152602001838380828437600081840152601f19601f820116905080830192505050505050509192919290505050610fc7565b6040518082815260200191505060405180910390f35b6104226004803603604081101561037557600080fd5b81019080803590602001909291908035906020019064010000000081111561039c57600080fd5b8201836020820111156103ae57600080fd5b803590602001918460018302840111640100000000831117156103d057600080fd5b91908080601f016020809104026020016040519081016040528093929190818152602001838380828437600081840152601f19601f82011690508083019250505050505050919291929050505061106e565b005b6104e76004803603604081101561043a57600080fd5b81019080803590602001909291908035906020019064010000000081111561046157600080fd5b82018360208201111561047357600080fd5b8035906020019184600183028401116401000000008311171561049557600080fd5b91908080601f016020809104026020016040519081016040528093929190818152602001838380828437600081840152601f19601f820116905080830192505050505050509192919290505050611a72565b005b610515600480360360208110156104ff57600080fd5b8101908080359060200190929190505050612464565b604051808215151515815260200191505060405180910390f35b6105f26004803603604081101561054557600080fd5b81019080803590602001909291908035906020019064010000000081111561056c57600080fd5b82018360208201111561057e57600080fd5b803590602001918460018302840111640100000000831117156105a057600080fd5b91908080601f016020809104026020016040519081016040528093929190818152602001838380828437600081840152601f19601f820116905080830192505050505050509192919290505050612495565b604051808415151515815260200180602001838152602001828103825284818151815260200191508051906020019080838360005b83811015610642578082015181840152602081019050610627565b50505050905090810190601f16801561066f5780820380516001836020036101000a031916815260200191505b5094505050505060405180910390f35b6106ab6004803603602081101561069557600080fd5b8101908080359060200190929190505050612996565b604051808460ff1660ff168152602001838152602001828152602001935050505060405180910390f35b610701600480360360208110156106eb57600080fd5b8101908080359060200190929190505050612e2a565b6040518082815260200191505060405180910390f35b6107436004803603602081101561072d57600080fd5b8101908080359060200190929190505050612e47565b60405180806020018615151515815260200185815260200180602001847effffffffffffffffffffffffffffffffffffffffffffffffffffffffffffff19167effffffffffffffffffffffffffffffffffffffffffffffffffffffffffffff19168152602001838103835288818151815260200191508051906020019080838360005b838110156107e15780820151818401526020810190506107c6565b50505050905090810190601f16801561080e5780820380516001836020036101000a031916815260200191505b50838103825285818151815260200191508051906020019080838360005b8381101561084757808201518184015260208101905061082c565b50505050905090810190601f1680156108745780820380516001836020036101000a031916815260200191505b5097505050505050505060405180910390f35b61094a6004803603604081101561089d57600080fd5b81019080803590602001906401000000008111156108ba57600080fd5b8201836020820111156108cc57600080fd5b803590602001918460018302840111640100000000831117156108ee57600080fd5b91908080601f016020809104026020016040519081016040528093929190818152602001838380828437600081840152601f19601f820116905080830192505050505050509192919290803590602001909291905050506132f6565b005b6109786004803603602081101561096257600080fd5b8101908080359060200190929190505050613969565b604051808460ff1660ff168152602001838152602001828152602001935050505060405180910390f35b610a5b600480360360208110156109b857600080fd5b81019080803590602001906401000000008111156109d557600080fd5b8201836020820111156109e757600080fd5b80359060200191846001830284011164010000000083111715610a0957600080fd5b91908080601f016020809104026020016040519081016040528093929190818152602001838380828437600081840152601f19601f820116905080830192505050505050509192919290505050613dfd565b005b610a8960048036036020811015610a7357600080fd5b8101908080359060200190929190505050613fa8565b604051808515151515815260200184151515158152602001831515151581526020018215151515815260200194505050505060405180910390f35b610af060048036036020811015610ada57600080fd5b8101908080359060200190929190505050614513565b6040518082815260200191505060405180910390f35b600060606000806060806000610b1a6192dc565b6000808a8152602001908152602001600020604051806102400160405290816000820160009054906101000a900460ff1660ff1660ff168152602001600182018054600181600116156101000203166002900480601f016020809104026020016040519081016040528092919081815260200182805460018160011615610100020316600290048015610bee5780601f10610bc357610100808354040283529160200191610bee565b820191906000526020600020905b815481529060010190602001808311610bd157829003601f168201915b50505050508152602001600282015481526020016003820154815260200160048201548152602001600582018054600181600116156101000203166002900480601f016020809104026020016040519081016040528092919081815260200182805460018160011615610100020316600290048015610cae5780601f10610c8357610100808354040283529160200191610cae565b820191906000526020600020905b815481529060010190602001808311610c9157829003601f168201915b50505050508152602001600682018054600181600116156101000203166002900480601f016020809104026020016040519081016040528092919081815260200182805460018160011615610100020316600290048015610d505780601f10610d2557610100808354040283529160200191610d50565b820191906000526020600020905b815481529060010190602001808311610d3357829003601f168201915b50505050508152602001600782018054600181600116156101000203166002900480601f016020809104026020016040519081016040528092919081815260200182805460018160011615610100020316600290048015610df25780601f10610dc757610100808354040283529160200191610df2565b820191906000526020600020905b815481529060010190602001808311610dd557829003601f168201915b505050505081526020016008820160009054906101000a900460ff1615151515815260200160098201548152602001600a82018054600181600116156101000203166002900480601f016020809104026020016040519081016040528092919081815260200182805460018160011615610100020316600290048015610eb95780601f10610e8e57610100808354040283529160200191610eb9565b820191906000526020600020905b815481529060010190602001808311610e9c57829003601f168201915b50505050508152602001600b820160009054906101000a900460f81b7effffffffffffffffffffffffffffffffffffffffffffffffffffffffffffff19167effffffffffffffffffffffffffffffffffffffffffffffffffffffffffffff19168152602001600c8201548152602001600d8201548152602001600e820160009054906101000a900460ff1660ff1660ff168152602001600f8201548152602001601082015481526020016011820160009054906101000a900460ff1660ff1660ff1681525050905080600001518160200151826060015183608001518460a001518560c001518660400151859550829250819150975097509750975097509750975050919395979092949650565b60006002826040518082805190602001908083835b60208310610fff5780518252602082019150602081019050602083039250610fdc565b6001836020036101000a038019825116818451168082178552505050505050905001915050602060405180830381855afa158015611041573d6000803e3d6000fd5b5050506040513d602081101561105657600080fd5b81019080805190602001909291905050509050919050565b6110766192dc565b600080848152602001908152602001600020604051806102400160405290816000820160009054906101000a900460ff1660ff1660ff168152602001600182018054600181600116156101000203166002900480601f01602080910402602001604051908101604052809291908181526020018280546001816001161561010002031660029004801561114a5780601f1061111f5761010080835404028352916020019161114a565b820191906000526020600020905b81548152906001019060200180831161112d57829003601f168201915b50505050508152602001600282015481526020016003820154815260200160048201548152602001600582018054600181600116156101000203166002900480601f01602080910402602001604051908101604052809291908181526020018280546001816001161561010002031660029004801561120a5780601f106111df5761010080835404028352916020019161120a565b820191906000526020600020905b8154815290600101906020018083116111ed57829003601f168201915b50505050508152602001600682018054600181600116156101000203166002900480601f0160208091040260200160405190810160405280929190818152602001828054600181600116156101000203166002900480156112ac5780601f10611281576101008083540402835291602001916112ac565b820191906000526020600020905b81548152906001019060200180831161128f57829003601f168201915b50505050508152602001600782018054600181600116156101000203166002900480601f01602080910402602001604051908101604052809291908181526020018280546001816001161561010002031660029004801561134e5780601f106113235761010080835404028352916020019161134e565b820191906000526020600020905b81548152906001019060200180831161133157829003601f168201915b505050505081526020016008820160009054906101000a900460ff1615151515815260200160098201548152602001600a82018054600181600116156101000203166002900480601f0160208091040260200160405190810160405280929190818152602001828054600181600116156101000203166002900480156114155780601f106113ea57610100808354040283529160200191611415565b820191906000526020600020905b8154815290600101906020018083116113f857829003601f168201915b50505050508152602001600b820160009054906101000a900460f81b7effffffffffffffffffffffffffffffffffffffffffffffffffffffffffffff19167effffffffffffffffffffffffffffffffffffffffffffffffffffffffffffff19168152602001600c8201548152602001600d8201548152602001600e820160009054906101000a900460ff1660ff1660ff168152602001600f8201548152602001601082015481526020016011820160009054906101000a900460ff1660ff1660ff168152505090506001816101c0015160ff1614611a6d576114f56192dc565b60008083604001518152602001908152602001600020604051806102400160405290816000820160009054906101000a900460ff1660ff1660ff168152602001600182018054600181600116156101000203166002900480601f0160208091040260200160405190810160405280929190818152602001828054600181600116156101000203166002900480156115cd5780601f106115a2576101008083540402835291602001916115cd565b820191906000526020600020905b8154815290600101906020018083116115b057829003601f168201915b50505050508152602001600282015481526020016003820154815260200160048201548152602001600582018054600181600116156101000203166002900480601f01602080910402602001604051908101604052809291908181526020018280546001816001161561010002031660029004801561168d5780601f106116625761010080835404028352916020019161168d565b820191906000526020600020905b81548152906001019060200180831161167057829003601f168201915b50505050508152602001600682018054600181600116156101000203166002900480601f01602080910402602001604051908101604052809291908181526020018280546001816001161561010002031660029004801561172f5780601f106117045761010080835404028352916020019161172f565b820191906000526020600020905b81548152906001019060200180831161171257829003601f168201915b50505050508152602001600782018054600181600116156101000203166002900480601f0160208091040260200160405190810160405280929190818152602001828054600181600116156101000203166002900480156117d15780601f106117a6576101008083540402835291602001916117d1565b820191906000526020600020905b8154815290600101906020018083116117b457829003601f168201915b505050505081526020016008820160009054906101000a900460ff1615151515815260200160098201548152602001600a82018054600181600116156101000203166002900480601f0160208091040260200160405190810160405280929190818152602001828054600181600116156101000203166002900480156118985780601f1061186d57610100808354040283529160200191611898565b820191906000526020600020905b81548152906001019060200180831161187b57829003601f168201915b50505050508152602001600b820160009054906101000a900460f81b7effffffffffffffffffffffffffffffffffffffffffffffffffffffffffffff19167effffffffffffffffffffffffffffffffffffffffffffffffffffffffffffff19168152602001600c8201548152602001600d8201548152602001600e820160009054906101000a900460ff1660ff1660ff168152602001600f8201548152602001601082015481526020016011820160009054906101000a900460ff1660ff1660ff168152505090506000806000611970868686614e1b565b92509250925082600080898152602001908152602001600020600e0160006101000a81548160ff021916908360ff16021790555081600080898152602001908152602001600020600c018190555080600080898152602001908152602001600020600d018190555060008360ff161415611a24577f317b1aa2c62bbbaca8320346fdc83f725d4bc27b81a3f724d1a7eacd4dfdda628782604051808381526020018281526020019250505060405180910390a15b60018360ff161415611a68577f44d80a438cb4fa3b5aedbe551ce3d9382e37f446917b783e1dee70a03b4180e3876040518082815260200191505060405180910390a15b505050505b505050565b611a7a6192dc565b600080848152602001908152602001600020604051806102400160405290816000820160009054906101000a900460ff1660ff1660ff168152602001600182018054600181600116156101000203166002900480601f016020809104026020016040519081016040528092919081815260200182805460018160011615610100020316600290048015611b4e5780601f10611b2357610100808354040283529160200191611b4e565b820191906000526020600020905b815481529060010190602001808311611b3157829003601f168201915b50505050508152602001600282015481526020016003820154815260200160048201548152602001600582018054600181600116156101000203166002900480601f016020809104026020016040519081016040528092919081815260200182805460018160011615610100020316600290048015611c0e5780601f10611be357610100808354040283529160200191611c0e565b820191906000526020600020905b815481529060010190602001808311611bf157829003601f168201915b50505050508152602001600682018054600181600116156101000203166002900480601f016020809104026020016040519081016040528092919081815260200182805460018160011615610100020316600290048015611cb05780601f10611c8557610100808354040283529160200191611cb0565b820191906000526020600020905b815481529060010190602001808311611c9357829003601f168201915b50505050508152602001600782018054600181600116156101000203166002900480601f016020809104026020016040519081016040528092919081815260200182805460018160011615610100020316600290048015611d525780601f10611d2757610100808354040283529160200191611d52565b820191906000526020600020905b815481529060010190602001808311611d3557829003601f168201915b505050505081526020016008820160009054906101000a900460ff1615151515815260200160098201548152602001600a82018054600181600116156101000203166002900480601f016020809104026020016040519081016040528092919081815260200182805460018160011615610100020316600290048015611e195780601f10611dee57610100808354040283529160200191611e19565b820191906000526020600020905b815481529060010190602001808311611dfc57829003601f168201915b50505050508152602001600b820160009054906101000a900460f81b7effffffffffffffffffffffffffffffffffffffffffffffffffffffffffffff19167effffffffffffffffffffffffffffffffffffffffffffffffffffffffffffff19168152602001600c8201548152602001600d8201548152602001600e820160009054906101000a900460ff1660ff1660ff168152602001600f8201548152602001601082015481526020016011820160009054906101000a900460ff1660ff1660ff16815250509050600181610220015160ff161461245f57611ef96192dc565b60008083604001518152602001908152602001600020604051806102400160405290816000820160009054906101000a900460ff1660ff1660ff168152602001600182018054600181600116156101000203166002900480601f016020809104026020016040519081016040528092919081815260200182805460018160011615610100020316600290048015611fd15780601f10611fa657610100808354040283529160200191611fd1565b820191906000526020600020905b815481529060010190602001808311611fb457829003601f168201915b50505050508152602001600282015481526020016003820154815260200160048201548152602001600582018054600181600116156101000203166002900480601f0160208091040260200160405190810160405280929190818152602001828054600181600116156101000203166002900480156120915780601f1061206657610100808354040283529160200191612091565b820191906000526020600020905b81548152906001019060200180831161207457829003601f168201915b50505050508152602001600682018054600181600116156101000203166002900480601f0160208091040260200160405190810160405280929190818152602001828054600181600116156101000203166002900480156121335780601f1061210857610100808354040283529160200191612133565b820191906000526020600020905b81548152906001019060200180831161211657829003601f168201915b50505050508152602001600782018054600181600116156101000203166002900480601f0160208091040260200160405190810160405280929190818152602001828054600181600116156101000203166002900480156121d55780601f106121aa576101008083540402835291602001916121d5565b820191906000526020600020905b8154815290600101906020018083116121b857829003601f168201915b505050505081526020016008820160009054906101000a900460ff1615151515815260200160098201548152602001600a82018054600181600116156101000203166002900480601f01602080910402602001604051908101604052809291908181526020018280546001816001161561010002031660029004801561229c5780601f106122715761010080835404028352916020019161229c565b820191906000526020600020905b81548152906001019060200180831161227f57829003601f168201915b50505050508152602001600b820160009054906101000a900460f81b7effffffffffffffffffffffffffffffffffffffffffffffffffffffffffffff19167effffffffffffffffffffffffffffffffffffffffffffffffffffffffffffff19168152602001600c8201548152602001600d8201548152602001600e820160009054906101000a900460ff1660ff1660ff168152602001600f8201548152602001601082015481526020016011820160009054906101000a900460ff1660ff1660ff168152505090506000806000612374868686615451565b92509250925082156123e757600160008089815260200190815260200160002060110160006101000a81548160ff021916908360ff1602179055507f44d80a438cb4fa3b5aedbe551ce3d9382e37f446917b783e1dee70a03b4180e3876040518082815260200191505060405180910390a15b81600080898152602001908152602001600020600f018190555080600080898152602001908152602001600020601001819055507f317b1aa2c62bbbaca8320346fdc83f725d4bc27b81a3f724d1a7eacd4dfdda628782604051808381526020018281526020019250505060405180910390a1505050505b505050565b60008060008084815260200190815260200160002060000160009054906101000a900460ff1660ff16119050919050565b6000606060006124a485612464565b15612948576124b16192dc565b600080878152602001908152602001600020604051806102400160405290816000820160009054906101000a900460ff1660ff1660ff168152602001600182018054600181600116156101000203166002900480601f0160208091040260200160405190810160405280929190818152602001828054600181600116156101000203166002900480156125855780601f1061255a57610100808354040283529160200191612585565b820191906000526020600020905b81548152906001019060200180831161256857829003601f168201915b50505050508152602001600282015481526020016003820154815260200160048201548152602001600582018054600181600116156101000203166002900480601f0160208091040260200160405190810160405280929190818152602001828054600181600116156101000203166002900480156126455780601f1061261a57610100808354040283529160200191612645565b820191906000526020600020905b81548152906001019060200180831161262857829003601f168201915b50505050508152602001600682018054600181600116156101000203166002900480601f0160208091040260200160405190810160405280929190818152602001828054600181600116156101000203166002900480156126e75780601f106126bc576101008083540402835291602001916126e7565b820191906000526020600020905b8154815290600101906020018083116126ca57829003601f168201915b50505050508152602001600782018054600181600116156101000203166002900480601f0160208091040260200160405190810160405280929190818152602001828054600181600116156101000203166002900480156127895780601f1061275e57610100808354040283529160200191612789565b820191906000526020600020905b81548152906001019060200180831161276c57829003601f168201915b505050505081526020016008820160009054906101000a900460ff1615151515815260200160098201548152602001600a82018054600181600116156101000203166002900480601f0160208091040260200160405190810160405280929190818152602001828054600181600116156101000203166002900480156128505780601f1061282557610100808354040283529160200191612850565b820191906000526020600020905b81548152906001019060200180831161283357829003601f168201915b50505050508152602001600b820160009054906101000a900460f81b7effffffffffffffffffffffffffffffffffffffffffffffffffffffffffffff19167effffffffffffffffffffffffffffffffffffffffffffffffffffffffffffff19168152602001600c8201548152602001600d8201548152602001600e820160009054906101000a900460ff1660ff1660ff168152602001600f8201548152602001601082015481526020016011820160009054906101000a900460ff1660ff1660ff16815250509050612922818661588c565b156129465760018160c0015161293788614513565b8191509350935093505061298f565b505b6000806040518060400160405280600481526020017f3078303000000000000000000000000000000000000000000000000000000000815250908060001b90509250925092505b9250925092565b60008060006129a36192dc565b600080868152602001908152602001600020604051806102400160405290816000820160009054906101000a900460ff1660ff1660ff168152602001600182018054600181600116156101000203166002900480601f016020809104026020016040519081016040528092919081815260200182805460018160011615610100020316600290048015612a775780601f10612a4c57610100808354040283529160200191612a77565b820191906000526020600020905b815481529060010190602001808311612a5a57829003601f168201915b50505050508152602001600282015481526020016003820154815260200160048201548152602001600582018054600181600116156101000203166002900480601f016020809104026020016040519081016040528092919081815260200182805460018160011615610100020316600290048015612b375780601f10612b0c57610100808354040283529160200191612b37565b820191906000526020600020905b815481529060010190602001808311612b1a57829003601f168201915b50505050508152602001600682018054600181600116156101000203166002900480601f016020809104026020016040519081016040528092919081815260200182805460018160011615610100020316600290048015612bd95780601f10612bae57610100808354040283529160200191612bd9565b820191906000526020600020905b815481529060010190602001808311612bbc57829003601f168201915b50505050508152602001600782018054600181600116156101000203166002900480601f016020809104026020016040519081016040528092919081815260200182805460018160011615610100020316600290048015612c7b5780601f10612c5057610100808354040283529160200191612c7b565b820191906000526020600020905b815481529060010190602001808311612c5e57829003601f168201915b505050505081526020016008820160009054906101000a900460ff1615151515815260200160098201548152602001600a82018054600181600116156101000203166002900480601f016020809104026020016040519081016040528092919081815260200182805460018160011615610100020316600290048015612d425780601f10612d1757610100808354040283529160200191612d42565b820191906000526020600020905b815481529060010190602001808311612d2557829003601f168201915b50505050508152602001600b820160009054906101000a900460f81b7effffffffffffffffffffffffffffffffffffffffffffffffffffffffffffff19167effffffffffffffffffffffffffffffffffffffffffffffffffffffffffffff19168152602001600c8201548152602001600d8201548152602001600e820160009054906101000a900460ff1660ff1660ff168152602001600f8201548152602001601082015481526020016011820160009054906101000a900460ff1660ff1660ff16815250509050806101c00151816101800151826101a00151935093509350509193909250565b600060016000838152602001908152602001600020549050919050565b606060008060606000612e586192dc565b600080888152602001908152602001600020604051806102400160405290816000820160009054906101000a900460ff1660ff1660ff168152602001600182018054600181600116156101000203166002900480601f016020809104026020016040519081016040528092919081815260200182805460018160011615610100020316600290048015612f2c5780601f10612f0157610100808354040283529160200191612f2c565b820191906000526020600020905b815481529060010190602001808311612f0f57829003601f168201915b50505050508152602001600282015481526020016003820154815260200160048201548152602001600582018054600181600116156101000203166002900480601f016020809104026020016040519081016040528092919081815260200182805460018160011615610100020316600290048015612fec5780601f10612fc157610100808354040283529160200191612fec565b820191906000526020600020905b815481529060010190602001808311612fcf57829003601f168201915b50505050508152602001600682018054600181600116156101000203166002900480601f01602080910402602001604051908101604052809291908181526020018280546001816001161561010002031660029004801561308e5780601f106130635761010080835404028352916020019161308e565b820191906000526020600020905b81548152906001019060200180831161307157829003601f168201915b50505050508152602001600782018054600181600116156101000203166002900480601f0160208091040260200160405190810160405280929190818152602001828054600181600116156101000203166002900480156131305780601f1061310557610100808354040283529160200191613130565b820191906000526020600020905b81548152906001019060200180831161311357829003601f168201915b505050505081526020016008820160009054906101000a900460ff1615151515815260200160098201548152602001600a82018054600181600116156101000203166002900480601f0160208091040260200160405190810160405280929190818152602001828054600181600116156101000203166002900480156131f75780601f106131cc576101008083540402835291602001916131f7565b820191906000526020600020905b8154815290600101906020018083116131da57829003601f168201915b50505050508152602001600b820160009054906101000a900460f81b7effffffffffffffffffffffffffffffffffffffffffffffffffffffffffffff19167effffffffffffffffffffffffffffffffffffffffffffffffffffffffffffff19168152602001600c8201548152602001600d8201548152602001600e820160009054906101000a900460ff1660ff1660ff168152602001600f8201548152602001601082015481526020016011820160009054906101000a900460ff1660ff1660ff168152505090508060e00151816101000151826101200151836101400151846101600151849450819150955095509550955095505091939590929450565b6132ff81612464565b613354576040517f08c379a00000000000000000000000000000000000000000000000000000000081526004018080602001828103825260218152602001806196326021913960400191505060405180910390fd5b600061335f83610fc7565b9050600080600083815260200190815260200160002060000160009054906101000a900460ff1660ff16146133df576040517f08c379a000000000000000000000000000000000000000000000000000000000815260040180806020018281038252602181526020018061978a6021913960400191505060405180910390fd5b6133e76192dc565b600080848152602001908152602001600020604051806102400160405290816000820160009054906101000a900460ff1660ff1660ff168152602001600182018054600181600116156101000203166002900480601f0160208091040260200160405190810160405280929190818152602001828054600181600116156101000203166002900480156134bb5780601f10613490576101008083540402835291602001916134bb565b820191906000526020600020905b81548152906001019060200180831161349e57829003601f168201915b50505050508152602001600282015481526020016003820154815260200160048201548152602001600582018054600181600116156101000203166002900480601f01602080910402602001604051908101604052809291908181526020018280546001816001161561010002031660029004801561357b5780601f106135505761010080835404028352916020019161357b565b820191906000526020600020905b81548152906001019060200180831161355e57829003601f168201915b50505050508152602001600682018054600181600116156101000203166002900480601f01602080910402602001604051908101604052809291908181526020018280546001816001161561010002031660029004801561361d5780601f106135f25761010080835404028352916020019161361d565b820191906000526020600020905b81548152906001019060200180831161360057829003601f168201915b50505050508152602001600782018054600181600116156101000203166002900480601f0160208091040260200160405190810160405280929190818152602001828054600181600116156101000203166002900480156136bf5780601f10613694576101008083540402835291602001916136bf565b820191906000526020600020905b8154815290600101906020018083116136a257829003601f168201915b505050505081526020016008820160009054906101000a900460ff1615151515815260200160098201548152602001600a82018054600181600116156101000203166002900480601f0160208091040260200160405190810160405280929190818152602001828054600181600116156101000203166002900480156137865780601f1061375b57610100808354040283529160200191613786565b820191906000526020600020905b81548152906001019060200180831161376957829003601f168201915b50505050508152602001600b820160009054906101000a900460f81b7effffffffffffffffffffffffffffffffffffffffffffffffffffffffffffff19167effffffffffffffffffffffffffffffffffffffffffffffffffffffffffffff19168152602001600c8201548152602001600d8201548152602001600e820160009054906101000a900460ff1660ff1660ff168152602001600f8201548152602001601082015481526020016011820160009054906101000a900460ff1660ff1660ff1681525050905060608160c00151905060608260a00151905082610100015180156138785750600083610120015112155b6138cd576040517f08c379a00000000000000000000000000000000000000000000000000000000081526004018080602001828103825260518152602001806195bf6051913960600191505060405180910390fd5b6138d56192dc565b6138e0878385615c4b565b90508361012001518161012001511261390757600184610120015103816101200181815250505b6000806000878152602001908152602001600020905061392881838961608a565b7f17bb7cfdc69e5f19d4aa0509b6efed06df2c55008e56a1aa33322eb96855cf9a866040518082815260200191505060405180910390a15050505050505050565b60008060006139766192dc565b600080868152602001908152602001600020604051806102400160405290816000820160009054906101000a900460ff1660ff1660ff168152602001600182018054600181600116156101000203166002900480601f016020809104026020016040519081016040528092919081815260200182805460018160011615610100020316600290048015613a4a5780601f10613a1f57610100808354040283529160200191613a4a565b820191906000526020600020905b815481529060010190602001808311613a2d57829003601f168201915b50505050508152602001600282015481526020016003820154815260200160048201548152602001600582018054600181600116156101000203166002900480601f016020809104026020016040519081016040528092919081815260200182805460018160011615610100020316600290048015613b0a5780601f10613adf57610100808354040283529160200191613b0a565b820191906000526020600020905b815481529060010190602001808311613aed57829003601f168201915b50505050508152602001600682018054600181600116156101000203166002900480601f016020809104026020016040519081016040528092919081815260200182805460018160011615610100020316600290048015613bac5780601f10613b8157610100808354040283529160200191613bac565b820191906000526020600020905b815481529060010190602001808311613b8f57829003601f168201915b50505050508152602001600782018054600181600116156101000203166002900480601f016020809104026020016040519081016040528092919081815260200182805460018160011615610100020316600290048015613c4e5780601f10613c2357610100808354040283529160200191613c4e565b820191906000526020600020905b815481529060010190602001808311613c3157829003601f168201915b505050505081526020016008820160009054906101000a900460ff1615151515815260200160098201548152602001600a82018054600181600116156101000203166002900480601f016020809104026020016040519081016040528092919081815260200182805460018160011615610100020316600290048015613d155780601f10613cea57610100808354040283529160200191613d15565b820191906000526020600020905b815481529060010190602001808311613cf857829003601f168201915b50505050508152602001600b820160009054906101000a900460f81b7effffffffffffffffffffffffffffffffffffffffffffffffffffffffffffff19167effffffffffffffffffffffffffffffffffffffffffffffffffffffffffffff19168152602001600c8201548152602001600d8201548152602001600e820160009054906101000a900460ff1660ff1660ff168152602001600f8201548152602001601082015481526020016011820160009054906101000a900460ff1660ff1660ff16815250509050806102200151816101e00151826102000151935093509350509193909250565b61010160025410613e76576040517f08c379a000000000000000000000000000000000000000000000000000000000815260040180806020018281038252601b8152602001807f547275737420616e63686f72206d656d6f72792069732066756c6c000000000081525060200191505060405180910390fd5b6000613e8182610fc7565b9050600080600083815260200190815260200160002060000160009054906101000a900460ff1660ff1614613f01576040517f08c379a000000000000000000000000000000000000000000000000000000000815260040180806020018281038252602181526020018061978a6021913960400191505060405180910390fd5b613f096192dc565b613f12836161d4565b905060008060008481526020019081526020016000209050613f3581838561608a565b82600160006002548152602001908152602001600020819055506002600081548092919060010191905055507ff8708e656bef23ef52fcb917d10bafcc47665a6b3146b17271f2c117970cdab483600254604051808381526020018281526020019250505060405180910390a150505050565b600080600080613fb785612464565b156144fc5760019350600092506000915060019050613fd46192dc565b600080878152602001908152602001600020604051806102400160405290816000820160009054906101000a900460ff1660ff1660ff168152602001600182018054600181600116156101000203166002900480601f0160208091040260200160405190810160405280929190818152602001828054600181600116156101000203166002900480156140a85780601f1061407d576101008083540402835291602001916140a8565b820191906000526020600020905b81548152906001019060200180831161408b57829003601f168201915b50505050508152602001600282015481526020016003820154815260200160048201548152602001600582018054600181600116156101000203166002900480601f0160208091040260200160405190810160405280929190818152602001828054600181600116156101000203166002900480156141685780601f1061413d57610100808354040283529160200191614168565b820191906000526020600020905b81548152906001019060200180831161414b57829003601f168201915b50505050508152602001600682018054600181600116156101000203166002900480601f01602080910402602001604051908101604052809291908181526020018280546001816001161561010002031660029004801561420a5780601f106141df5761010080835404028352916020019161420a565b820191906000526020600020905b8154815290600101906020018083116141ed57829003601f168201915b50505050508152602001600782018054600181600116156101000203166002900480601f0160208091040260200160405190810160405280929190818152602001828054600181600116156101000203166002900480156142ac5780601f10614281576101008083540402835291602001916142ac565b820191906000526020600020905b81548152906001019060200180831161428f57829003601f168201915b505050505081526020016008820160009054906101000a900460ff1615151515815260200160098201548152602001600a82018054600181600116156101000203166002900480601f0160208091040260200160405190810160405280929190818152602001828054600181600116156101000203166002900480156143735780601f1061434857610100808354040283529160200191614373565b820191906000526020600020905b81548152906001019060200180831161435657829003601f168201915b50505050508152602001600b820160009054906101000a900460f81b7effffffffffffffffffffffffffffffffffffffffffffffffffffffffffffff19167effffffffffffffffffffffffffffffffffffffffffffffffffffffffffffff19168152602001600c8201548152602001600d8201548152602001600e820160009054906101000a900460ff1660ff1660ff168152602001600f8201548152602001601082015481526020016011820160009054906101000a900460ff1660ff1660ff1681525050905042816080015110806144505750428160600151115b1561445a57600193505b6001816101c0015160ff1614806144795750600181610220015160ff16145b1561448357600192505b5b6001156144fa5785816040015114156144a9578484848494509450945094505061450c565b8060400151955042816080015110806144c55750428160600151115b806144d857506001816101c0015160ff16145b806144eb5750600181610220015160ff16145b156144f557600091505b614484565b505b6000600180600093509350935093505b9193509193565b600061451d6192dc565b600080848152602001908152602001600020604051806102400160405290816000820160009054906101000a900460ff1660ff1660ff168152602001600182018054600181600116156101000203166002900480601f0160208091040260200160405190810160405280929190818152602001828054600181600116156101000203166002900480156145f15780601f106145c6576101008083540402835291602001916145f1565b820191906000526020600020905b8154815290600101906020018083116145d457829003601f168201915b50505050508152602001600282015481526020016003820154815260200160048201548152602001600582018054600181600116156101000203166002900480601f0160208091040260200160405190810160405280929190818152602001828054600181600116156101000203166002900480156146b15780601f10614686576101008083540402835291602001916146b1565b820191906000526020600020905b81548152906001019060200180831161469457829003601f168201915b50505050508152602001600682018054600181600116156101000203166002900480601f0160208091040260200160405190810160405280929190818152602001828054600181600116156101000203166002900480156147535780601f1061472857610100808354040283529160200191614753565b820191906000526020600020905b81548152906001019060200180831161473657829003601f168201915b50505050508152602001600782018054600181600116156101000203166002900480601f0160208091040260200160405190810160405280929190818152602001828054600181600116156101000203166002900480156147f55780601f106147ca576101008083540402835291602001916147f5565b820191906000526020600020905b8154815290600101906020018083116147d857829003601f168201915b505050505081526020016008820160009054906101000a900460ff1615151515815260200160098201548152602001600a82018054600181600116156101000203166002900480601f0160208091040260200160405190810160405280929190818152602001828054600181600116156101000203166002900480156148bc5780601f10614891576101008083540402835291602001916148bc565b820191906000526020600020905b81548152906001019060200180831161489f57829003601f168201915b50505050508152602001600b820160009054906101000a900460f81b7effffffffffffffffffffffffffffffffffffffffffffffffffffffffffffff19167effffffffffffffffffffffffffffffffffffffffffffffffffffffffffffff19168152602001600c8201548152602001600d8201548152602001600e820160009054906101000a900460ff1660ff1660ff168152602001600f8201548152602001601082015481526020016011820160009054906101000a900460ff1660ff1660ff168152505090505b600115614e145782816040015114156149a15782915050614e16565b80604001519250600080848152602001908152602001600020604051806102400160405290816000820160009054906101000a900460ff1660ff1660ff168152602001600182018054600181600116156101000203166002900480601f016020809104026020016040519081016040528092919081815260200182805460018160011615610100020316600290048015614a7c5780601f10614a5157610100808354040283529160200191614a7c565b820191906000526020600020905b815481529060010190602001808311614a5f57829003601f168201915b50505050508152602001600282015481526020016003820154815260200160048201548152602001600582018054600181600116156101000203166002900480601f016020809104026020016040519081016040528092919081815260200182805460018160011615610100020316600290048015614b3c5780601f10614b1157610100808354040283529160200191614b3c565b820191906000526020600020905b815481529060010190602001808311614b1f57829003601f168201915b50505050508152602001600682018054600181600116156101000203166002900480601f016020809104026020016040519081016040528092919081815260200182805460018160011615610100020316600290048015614bde5780601f10614bb357610100808354040283529160200191614bde565b820191906000526020600020905b815481529060010190602001808311614bc157829003601f168201915b50505050508152602001600782018054600181600116156101000203166002900480601f016020809104026020016040519081016040528092919081815260200182805460018160011615610100020316600290048015614c805780601f10614c5557610100808354040283529160200191614c80565b820191906000526020600020905b815481529060010190602001808311614c6357829003601f168201915b505050505081526020016008820160009054906101000a900460ff1615151515815260200160098201548152602001600a82018054600181600116156101000203166002900480601f016020809104026020016040519081016040528092919081815260200182805460018160011615610100020316600290048015614d475780601f10614d1c57610100808354040283529160200191614d47565b820191906000526020600020905b815481529060010190602001808311614d2a57829003601f168201915b50505050508152602001600b820160009054906101000a900460f81b7effffffffffffffffffffffffffffffffffffffffffffffffffffffffffffff19167effffffffffffffffffffffffffffffffffffffffffffffffffffffffffffff19168152602001600c8201548152602001600d8201548152602001600e820160009054906101000a900460ff1660ff1660ff168152602001600f8201548152602001601082015481526020016011820160009054906101000a900460ff1660ff1660ff16815250509050614985565b505b919050565b6000806000614e28619397565b614e318761662b565b9050614e46878261669290919063ffffffff16565b9050614e836040518060400160405280600181526020016000815250614e7589846167fe90919063ffffffff16565b61682e90919063ffffffff16565b614ed8576040517f08c379a00000000000000000000000000000000000000000000000000000000081526004018080602001828103825260288152602001806195216028913960400191505060405180910390fd5b614ee181616855565b614f36576040517f08c379a000000000000000000000000000000000000000000000000000000000815260040180806020018281038252602b81526020018061981a602b913960400191505060405180910390fd5b614f49878261687890919063ffffffff16565b905060a060f81b87826000015181518110614f6057fe5b602001015160f81c60f81b7effffffffffffffffffffffffffffffffffffffffffffffffffffffffffffff191614615000576040517f08c379a00000000000000000000000000000000000000000000000000000000081526004018080602001828103825260188152602001807f4d616c666f726d6564204f43535020726573706f6e73652e000000000000000081525060200191505060405180910390fd5b615013878261669290919063ffffffff16565b9050615028878261669290919063ffffffff16565b90506150846040518060400160405280600981526020017f2b0601050507300101000000000000000000000000000000000000000000000081525061507689846167fe90919063ffffffff16565b61682e90919063ffffffff16565b6150d9576040517f08c379a000000000000000000000000000000000000000000000000000000000815260040180806020018281038252602181526020018061969e6021913960400191505060405180910390fd5b6150ec878261687890919063ffffffff16565b9050615101878261669290919063ffffffff16565b9050615116878261669290919063ffffffff16565b9050606061512d888361697490919063ffffffff16565b9050615142888361687890919063ffffffff16565b91506060615159898461697490919063ffffffff16565b905061516e898461687890919063ffffffff16565b925060606151858a856167fe90919063ffffffff16565b905073__SignatureValidation___________________63e3428bfd8484848c60c001516040518563ffffffff1660e01b81526004018080602001806020018060200180602001858103855289818151815260200191508051906020019080838360005b838110156152045780820151818401526020810190506151e9565b50505050905090810190601f1680156152315780820380516001836020036101000a031916815260200191505b50858103845288818151815260200191508051906020019080838360005b8381101561526a57808201518184015260208101905061524f565b50505050905090810190601f1680156152975780820380516001836020036101000a031916815260200191505b50858103835287818151815260200191508051906020019080838360005b838110156152d05780820151818401526020810190506152b5565b50505050905090810190601f1680156152fd5780820380516001836020036101000a031916815260200191505b50858103825286818151815260200191508051906020019080838360005b8381101561533657808201518184015260208101905061531b565b50505050905090810190601f1680156153635780820380516001836020036101000a031916815260200191505b509850505050505050505060206040518083038186803b15801561538657600080fd5b505af415801561539a573d6000803e3d6000fd5b505050506040513d60208110156153b057600080fd5b8101908080519060200190929190505050615433576040517f08c379a00000000000000000000000000000000000000000000000000000000081526004018080602001828103825260148152602001807f5369676e6174757265206e6f742076616c69642e00000000000000000000000081525060200191505060405180910390fd5b61543e838a8a6169a4565b9650965096505050505093509350939050565b6000806000603060f81b7effffffffffffffffffffffffffffffffffffffffffffffffffffffffffffff19168660008151811061548a57fe5b602001015160f81c60f81b7effffffffffffffffffffffffffffffffffffffffffffffffffffffffffffff19161461552a576040517f08c379a000000000000000000000000000000000000000000000000000000000815260040180806020018281038252601e8152602001807f4e6f7420612076616c696420582e3530392044455220656e636f64696e67000081525060200191505060405180910390fd5b615532619397565b61553b8761662b565b9050615550878261669290919063ffffffff16565b90506060615567888361697490919063ffffffff16565b905061557c888361687890919063ffffffff16565b91506060615593898461697490919063ffffffff16565b90506155a8898461687890919063ffffffff16565b925060606155bf8a856167fe90919063ffffffff16565b905073__SignatureValidation___________________63e3428bfd8484848c60c001516040518563ffffffff1660e01b81526004018080602001806020018060200180602001858103855289818151815260200191508051906020019080838360005b8381101561563e578082015181840152602081019050615623565b50505050905090810190601f16801561566b5780820380516001836020036101000a031916815260200191505b50858103845288818151815260200191508051906020019080838360005b838110156156a4578082015181840152602081019050615689565b50505050905090810190601f1680156156d15780820380516001836020036101000a031916815260200191505b50858103835287818151815260200191508051906020019080838360005b8381101561570a5780820151818401526020810190506156ef565b50505050905090810190601f1680156157375780820380516001836020036101000a031916815260200191505b50858103825286818151815260200191508051906020019080838360005b83811015615770578082015181840152602081019050615755565b50505050905090810190601f16801561579d5780820380516001836020036101000a031916815260200191505b509850505050505050505060206040518083038186803b1580156157c057600080fd5b505af41580156157d4573d6000803e3d6000fd5b505050506040513d60208110156157ea57600080fd5b810190808051906020019092919050505061586d576040517f08c379a00000000000000000000000000000000000000000000000000000000081526004018080602001828103825260148152602001807f5369676e6174757265206e6f742076616c69642e00000000000000000000000081525060200191505060405180910390fd5b61587983838b8b616f85565b9650965096505050505093509350939050565b60008090506060829050600080905060008090505b82518163ffffffff16101561592b577f2e00000000000000000000000000000000000000000000000000000000000000838263ffffffff16815181106158e357fe5b602001015160f81c60f81b7effffffffffffffffffffffffffffffffffffffffffffffffffffffffffffff1916141561591e5780915061592b565b80806001019150506158a1565b50606060018263ffffffff16845103016040519080825280601f01601f19166020018201604052801561596d5781602001600182028038833980820191505090505b5090507f2a000000000000000000000000000000000000000000000000000000000000008160008151811061599e57fe5b60200101907effffffffffffffffffffffffffffffffffffffffffffffffffffffffffffff1916908160001a90535060008290505b83518163ffffffff161015615a5257838163ffffffff16815181106159f457fe5b602001015160f81c60f81b8260018584030163ffffffff1681518110615a1657fe5b60200101907effffffffffffffffffffffffffffffffffffffffffffffffffffffffffffff1916908160001a90535080806001019150506159d3565b5060608660a001519050615a64619397565b615a7f82615a718461662b565b61669290919063ffffffff16565b905060008090505b6032811015615b85578080600101915050615aa0619397565b615ab3848461669290919063ffffffff16565b9050615abd619397565b615ad0858361669290919063ffffffff16565b9050615ada619397565b615aed868361687890919063ffffffff16565b90506060615b0487836167fe90919063ffffffff16565b9050615b198a8261682e90919063ffffffff16565b80615b335750615b32888261682e90919063ffffffff16565b5b15615b4b5760019a5050505050505050505050615c45565b615b5486616855565b15615b7357615b6c878761687890919063ffffffff16565b9550615b7c565b50505050615b85565b50505050615a87565b8860e001519250615ba783615b998561662b565b61669290919063ffffffff16565b91505b600115615c3e576060615bc684846167fe90919063ffffffff16565b9050615bdb878261682e90919063ffffffff16565b80615bf55750615bf4858261682e90919063ffffffff16565b5b15615c0a576001975050505050505050615c45565b615c1383616855565b15615c3257615c2b848461687890919063ffffffff16565b9250615c38565b50615c3e565b50615baa565b5050505050505b92915050565b615c536192dc565b603060f81b7effffffffffffffffffffffffffffffffffffffffffffffffffffffffffffff191684600081518110615c8757fe5b602001015160f81c60f81b7effffffffffffffffffffffffffffffffffffffffffffffffffffffffffffff191614615d27576040517f08c379a000000000000000000000000000000000000000000000000000000000815260040180806020018281038252601e8152602001807f4e6f7420612076616c696420582e3530392044455220656e636f64696e67000081525060200191505060405180910390fd5b615d2f619397565b615d388561662b565b9050615d4d858261669290919063ffffffff16565b90506060615d64868361697490919063ffffffff16565b9050615d79868361687890919063ffffffff16565b91506060615d90878461697490919063ffffffff16565b9050615da5878461687890919063ffffffff16565b92506060615dbc88856167fe90919063ffffffff16565b905073__SignatureValidation___________________63e3428bfd8484848a6040518563ffffffff1660e01b81526004018080602001806020018060200180602001858103855289818151815260200191508051906020019080838360005b83811015615e37578082015181840152602081019050615e1c565b50505050905090810190601f168015615e645780820380516001836020036101000a031916815260200191505b50858103845288818151815260200191508051906020019080838360005b83811015615e9d578082015181840152602081019050615e82565b50505050905090810190601f168015615eca5780820380516001836020036101000a031916815260200191505b50858103835287818151815260200191508051906020019080838360005b83811015615f03578082015181840152602081019050615ee8565b50505050905090810190601f168015615f305780820380516001836020036101000a031916815260200191505b50858103825286818151815260200191508051906020019080838360005b83811015615f69578082015181840152602081019050615f4e565b50505050905090810190601f168015615f965780820380516001836020036101000a031916815260200191505b509850505050505050505060206040518083038186803b158015615fb957600080fd5b505af4158015615fcd573d6000803e3d6000fd5b505050506040513d6020811015615fe357600080fd5b8101908080519060200190929190505050616066576040517f08c379a00000000000000000000000000000000000000000000000000000000081526004018080602001828103825260148152602001807f5369676e6174757265206e6f742076616c69642e00000000000000000000000081525060200191505060405180910390fd5b61606e6192dc565b61607984848a6173c6565b905080955050505050509392505050565b81600001518360000160006101000a81548160ff021916908360ff16021790555081602001518360010190805190602001906160c79291906193c2565b5080836002018190555081606001518360030181905550816080015183600401819055508160a001518360050190805190602001906161079291906193c2565b508160c001518360060190805190602001906161249291906193c2565b508160e001518360070190805190602001906161419291906193c2565b508161010001518360080160006101000a81548160ff021916908315150217905550816101200151836009018190555081610160015183600b0160006101000a81548160ff021916908360f81c0217905550600283600e0160006101000a81548160ff021916908360ff16021790555060028360110160006101000a81548160ff021916908360ff160217905550505050565b6161dc6192dc565b603060f81b7effffffffffffffffffffffffffffffffffffffffffffffffffffffffffffff19168260008151811061621057fe5b602001015160f81c60f81b7effffffffffffffffffffffffffffffffffffffffffffffffffffffffffffff1916146162b0576040517f08c379a000000000000000000000000000000000000000000000000000000000815260040180806020018281038252601e8152602001807f4e6f7420612076616c696420582e3530392044455220656e636f64696e67000081525060200191505060405180910390fd5b6162b8619397565b6162c18361662b565b90506162d6838261669290919063ffffffff16565b905060606162ed848361697490919063ffffffff16565b9050616302848361687890919063ffffffff16565b91506060616319858461697490919063ffffffff16565b905061632e858461687890919063ffffffff16565b9250606061634586856167fe90919063ffffffff16565b905061634f6192dc565b616370848460405180604001604052806001815260200160008152506173c6565b905073__SignatureValidation___________________63e3428bfd8585858560c001516040518563ffffffff1660e01b81526004018080602001806020018060200180602001858103855289818151815260200191508051906020019080838360005b838110156163ef5780820151818401526020810190506163d4565b50505050905090810190601f16801561641c5780820380516001836020036101000a031916815260200191505b50858103845288818151815260200191508051906020019080838360005b8381101561645557808201518184015260208101905061643a565b50505050905090810190601f1680156164825780820380516001836020036101000a031916815260200191505b50858103835287818151815260200191508051906020019080838360005b838110156164bb5780820151818401526020810190506164a0565b50505050905090810190601f1680156164e85780820380516001836020036101000a031916815260200191505b50858103825286818151815260200191508051906020019080838360005b83811015616521578082015181840152602081019050616506565b50505050905090810190601f16801561654e5780820380516001836020036101000a031916815260200191505b509850505050505050505060206040518083038186803b15801561657157600080fd5b505af4158015616585573d6000803e3d6000fd5b505050506040513d602081101561659b57600080fd5b810190808051906020019092919050505061661e576040517f08c379a00000000000000000000000000000000000000000000000000000000081526004018080602001828103825260148152602001807f5369676e6174757265206e6f742076616c69642e00000000000000000000000081525060200191505060405180910390fd5b8095505050505050919050565b616633619397565b61663b619397565b6000806166498560006177a8565b8092508193505050600083600001818152505080836020019060ff16908160ff168152505081836040018181525050818160ff1601836060018181525050829350505050919050565b61669a619397565b6000836020015160ff16141580156166b757506000836040015114155b61670c576040517f08c379a000000000000000000000000000000000000000000000000000000000815260040180806020018281038252603a815260200180619468603a913960400191505060405180910390fd5b616714619397565b6000846020015160ff168560000151019050600360f81b7effffffffffffffffffffffffffffffffffffffffffffffffffffffffffffff19168486600001518151811061675d57fe5b602001015160f81c60f81b7effffffffffffffffffffffffffffffffffffffffffffffffffffffffffffff191614156167995780806001019150505b6000806167a686846177a8565b80925081935050508284600001818152505080846020019060ff16908160ff1681525050818460400181815250508660400151876020015160ff16886000015101018460600181815250508394505050505092915050565b6060616826836020015160ff168460000151018460400151846178a79092919063ffffffff16565b905092915050565b60008151835114801561684d575061684c836000846000875161791a565b5b905092915050565b60008160400151826020015160ff16836000015101018260600151119050919050565b616880619397565b6000836020015160ff1614156168e1576040517f08c379a000000000000000000000000000000000000000000000000000000000815260040180806020018281038252603e8152602001806194a2603e913960400191505060405180910390fd5b6168e9619397565b60008460400151856020015160ff1686600001510101905060008560600151821090508061691c5782935050505061696e565b60008061692987856177a8565b80925081935050508385600001818152505080856020019060ff16908160ff168152505081856040018181525050876060015185606001818152505084955050505050505b92915050565b606061699c83600001518460400151856020015160ff1601846178a79092919063ffffffff16565b905092915050565b60008060006169b1619397565b6169ba8761662b565b90506169cf878261669290919063ffffffff16565b905060a060f81b878260000151815181106169e657fe5b602001015160f81c60f81b7effffffffffffffffffffffffffffffffffffffffffffffffffffffffffffff19161415616afb57616a736040518060400160405280600181526020017f0100000000000000000000000000000000000000000000000000000000000000815250616a6589846167fe90919063ffffffff16565b61682e90919063ffffffff16565b616ae5576040517f08c379a00000000000000000000000000000000000000000000000000000000081526004018080602001828103825260168152602001807f4d757374206265204f4353502076657273696f6e20310000000000000000000081525060200191505060405180910390fd5b616af8878261687890919063ffffffff16565b90505b60a160f81b87826000015181518110616b1057fe5b602001015160f81c60f81b7effffffffffffffffffffffffffffffffffffffffffffffffffffffffffffff19161415616be357616b6c8560a00151616b5e89846167fe90919063ffffffff16565b61682e90919063ffffffff16565b616bde576040517f08c379a000000000000000000000000000000000000000000000000000000000815260040180806020018281038252601c8152602001807f497373756572206e616d6520646f6573206e6f74206d617463682e200000000081525060200191505060405180910390fd5b616e37565b60a260f81b87826000015181518110616bf857fe5b602001015160f81c60f81b7effffffffffffffffffffffffffffffffffffffffffffffffffffffffffffff19161415616dde5760608560c001519050616c3c619397565b616c458261662b565b9050616c5a828261669290919063ffffffff16565b9050616c6f828261687890919063ffffffff16565b90506060616c8683836167fe90919063ffffffff16565b9050616ca1600180835103836178a79092919063ffffffff16565b90506000616cae8261793e565b90506060616cd78c616cc98e8961669290919063ffffffff16565b6167fe90919063ffffffff16565b905060008090505b6014811015616dd357828160148110616cf457fe5b1a60f81b7effffffffffffffffffffffffffffffffffffffffffffffffffffffffffffff1916828281518110616d2657fe5b602001015160f81c60f81b7effffffffffffffffffffffffffffffffffffffffffffffffffffffffffffff191614616dc6576040517f08c379a000000000000000000000000000000000000000000000000000000000815260040180806020018281038252601f8152602001807f497373756572206b65792068617368657320646f206e6f74206d617463682e0081525060200191505060405180910390fd5b8080600101915050616cdf565b505050505050616e36565b6000616e35576040517f08c379a00000000000000000000000000000000000000000000000000000000081526004018080602001828103825260258152602001806196bf6025913960400191505060405180910390fd5b5b5b616e4a878261687890919063ffffffff16565b9050616e5f878261687890919063ffffffff16565b9050616e74878261669290919063ffffffff16565b9050616e89878261669290919063ffffffff16565b9050616e9781888888617e5f565b616eaa878261687890919063ffffffff16565b9050608087826000015181518110616ebe57fe5b602001015160f81c60f81b60f81c039350616ee2878261687890919063ffffffff16565b9050616eee81886182d9565b9250616ef981616855565b15616f7b57616f11878261687890919063ffffffff16565b905060a060f81b87826000015181518110616f2857fe5b602001015160f81c60f81b7effffffffffffffffffffffffffffffffffffffffffffffffffffffffffffff19161415616f7a57616f77616f71888361669290919063ffffffff16565b886182d9565b91505b5b5093509350939050565b6000806000616f92619397565b616f9b8861662b565b9050616fb0888261669290919063ffffffff16565b905061700c6040518060400160405280600181526020017f0100000000000000000000000000000000000000000000000000000000000000815250616ffe8a846167fe90919063ffffffff16565b61682e90919063ffffffff16565b61707e576040517f08c379a00000000000000000000000000000000000000000000000000000000081526004018080602001828103825260128152602001807f43524c206e6f742076657273696f6e20322e000000000000000000000000000081525060200191505060405180910390fd5b617091888261687890919063ffffffff16565b90506170b8876170aa8a8461697490919063ffffffff16565b61682e90919063ffffffff16565b61710d576040517f08c379a00000000000000000000000000000000000000000000000000000000081526004018080602001828103825260228152602001806196106022913960400191505060405180910390fd5b617120888261687890919063ffffffff16565b905061714b8560a0015161713d8a8461697490919063ffffffff16565b61682e90919063ffffffff16565b6171bd576040517f08c379a00000000000000000000000000000000000000000000000000000000081526004018080602001828103825260168152602001807f49737375657220646f6573206e6f74206d617463682e0000000000000000000081525060200191505060405180910390fd5b6171d0888261687890919063ffffffff16565b90506171dc81896182d9565b9250428310617253576040517f08c379a00000000000000000000000000000000000000000000000000000000081526004018080602001828103825260148152602001807f496e76616c6964207570646174652074696d652e00000000000000000000000081525060200191505060405180910390fd5b617266888261687890919063ffffffff16565b905061727281896182d9565b91504282116172e9576040517f08c379a00000000000000000000000000000000000000000000000000000000081526004018080602001828103825260168152602001807f43524c206e6f742076616c696420616e796d6f72652e0000000000000000000081525060200191505060405180910390fd5b6172fc888261687890919063ffffffff16565b90506000935060008160400151146173ba57617316619397565b617329898361669290919063ffffffff16565b90505b6001156173b85761736e87602001516173608b6173528d8661669290919063ffffffff16565b6167fe90919063ffffffff16565b61682e90919063ffffffff16565b617386576001945084848494509450945050506173bc565b61738f81616855565b156173ae576173a7898261687890919063ffffffff16565b90506173b3565b6173b8565b61732c565b505b505b9450945094915050565b6173ce6192dc565b6173d6619397565b6173df8561662b565b90506173e96192dc565b6173fc868361669290919063ffffffff16565b91506174088287618865565b816000019060ff16908160ff168152505061742c868361687890919063ffffffff16565b915061744186836167fe90919063ffffffff16565b816020018190525061745c868361687890919063ffffffff16565b9150606061748d8661747f886174718a61662b565b61669290919063ffffffff16565b6167fe90919063ffffffff16565b905060606174b6886174a88a8761669290919063ffffffff16565b6167fe90919063ffffffff16565b90506174cb818361682e90919063ffffffff16565b617520576040517f08c379a000000000000000000000000000000000000000000000000000000000815260040180806020018281038252603c8152602001806198f2603c913960400191505060405180910390fd5b617533888561687890919063ffffffff16565b935061755e60405180604001604052806001815260200160008152508761682e90919063ffffffff16565b6175dd57617587617578898661697490919063ffffffff16565b8761682e90919063ffffffff16565b6175dc576040517f08c379a000000000000000000000000000000000000000000000000000000000815260040180806020018281038252604a8152602001806198a8604a913960600191505060405180910390fd5b5b6175f0888561687890919063ffffffff16565b93506175fc848961895f565b846060018560800182815250828152505050826080015183606001511061766e576040517f08c379a000000000000000000000000000000000000000000000000000000000815260040180806020018281038252604e81526020018061992e604e913960600191505060405180910390fd5b826080015142106176ca576040517f08c379a00000000000000000000000000000000000000000000000000000000081526004018080602001828103825260338152602001806198756033913960400191505060405180910390fd5b6176dd888561687890919063ffffffff16565b93506176f2888561697490919063ffffffff16565b8360a0018190525061770d888561687890919063ffffffff16565b93506177198489618a77565b8360c00181905250617734888561687890919063ffffffff16565b935083600001518851118015617789575060a360f81b8885600001518151811061775a57fe5b602001015160f81c60f81b7effffffffffffffffffffffffffffffffffffffffffffffffffffffffffffff1916145b1561779a57617799838986618b4e565b5b829450505050509392505050565b600080608060f81b608060f81b8560018601815181106177c457fe5b602001015160f81c60f81b167effffffffffffffffffffffffffffffffffffffffffffffffffffffffffffff19161415617879576002607f60f81b85600186018151811061780e57fe5b602001015160f81c60f81b1660f81c019050600091506000600290505b8160ff168160ff16101561787357600883901b9250848160ff1685018151811061785157fe5b602001015160f81c60f81b60f81c60ff1683019250808060010191505061782b565b506178a0565b83600184018151811061788857fe5b602001015160f81c60f81b60f81c60ff169150600290505b9250929050565b6060835182840111156178b957600080fd5b6060826040519080825280601f01601f1916602001820160405280156178ee5781602001600182028038833980820191505090505b509050600080602083019150856020880101905061790d828287619057565b8293505050509392505050565b60006179278484846190a0565b6179328787856190a0565b14905095945050505050565b60006040518251602084019350604067ffffffffffffffc06001830116016009828203106001811461796f57617976565b6040820191505b50776745230100efcdab890098badcfe001032547600c3d2e1f06179d1565b6000809050838310156179ca57828201519050828403935060208410156179c9576001846020036101000a03198082169150505b5b9392505050565b60005b82811015617ddf576179e7848289617995565b85526179f7846020830189617995565b602086015260408185031060018114617a0f57617a18565b60808286038701535b5060408303811460018114617a2c57617a3c565b6008850260208701511760208701525b5060405b6080811015617ac85760408103860151603882038701511860208203870151600c830388015118187c010000000100000001000000010000000100000001000000010000000163800000008204167ffffffffefffffffefffffffefffffffefffffffefffffffefffffffefffffffe6002830216179050808288015250600c81019050617a40565b5060805b610140811015617b5557608081038601516070820387015118604082038701516018830388015118187c030000000300000003000000030000000300000003000000030000000363400000008204167ffffffffcfffffffcfffffffcfffffffcfffffffcfffffffcfffffffcfffffffc6004830216179050808288015250601881019050617acc565b508160008060005b6050811015617db1576014810460008114617b8f5760018114617bd95760028114617c165760038114617c7957617cb2565b6501000000000085046a01000000000000000000008604189350836f01000000000000000000000000000000860416935083650100000000008604189350635a8279999250617cb2565b6a010000000000000000000085046f01000000000000000000000000000000860418935083650100000000008604189350636ed9eba19250617cb2565b6a010000000000000000000085046f01000000000000000000000000000000860417935083650100000000008604169350836a010000000000000000000086046f01000000000000000000000000000000870416179350638f1bbcdc9250617cb2565b6a010000000000000000000085046f0100000000000000000000000000000086041893508365010000000000860418935063ca62c1d692505b50601f770800000000000000000000000000000000000000000000008504168063ffffffe073080000000000000000000000000000000000000087041617905080840190508063ffffffff86160190508083019050807c0100000000000000000000000000000000000000000000000000000000600484028c0151040190507401000000000000000000000000000000000000000081026501000000000086041794506a0100000000000000000000633fffffff6a040000000000000000000087041663c00000006604000000000000880416170277ffffffff00ffffffff000000000000ffffffff00ffffffff861617945050600181019050617b5d565b5077ffffffff00ffffffff00ffffffff00ffffffff00ffffffff8386011694505050506040810190506179d4565b506c0100000000000000000000000063ffffffff821667ffffffff000000006101008404166bffffffff0000000000000000620100008504166fffffffff000000000000000000000000630100000086041673ffffffff000000000000000000000000000000006401000000008704161717171702945050505050919050565b617e67619397565b617e7a848661669290919063ffffffff16565b9050617ee86040518060400160405280600581526020017f2b0e03021a000000000000000000000000000000000000000000000000000000815250617eda86617ecc888661669290919063ffffffff16565b6167fe90919063ffffffff16565b61682e90919063ffffffff16565b617f3d576040517f08c379a000000000000000000000000000000000000000000000000000000000815260040180806020018281038252602981526020018061997c6029913960400191505060405180910390fd5b617f50848261687890919063ffffffff16565b90506060617f6785836167fe90919063ffffffff16565b90506000617f788460a0015161793e565b905060008090505b601481101561807457818160148110617f9557fe5b1a60f81b7effffffffffffffffffffffffffffffffffffffffffffffffffffffffffffff1916838281518110617fc757fe5b602001015160f81c60f81b7effffffffffffffffffffffffffffffffffffffffffffffffffffffffffffff191614618067576040517f08c379a00000000000000000000000000000000000000000000000000000000081526004018080602001828103825260208152602001807f497373756572206e616d652068617368657320646f206e6f74206d617463682e81525060200191505060405180910390fd5b8080600101915050617f80565b50618088868461687890919063ffffffff16565b925060608460c00151905061809b619397565b6180a48261662b565b90506180b9828261669290919063ffffffff16565b90506180ce828261687890919063ffffffff16565b905060606180e583836167fe90919063ffffffff16565b9050618100600180835103836178a79092919063ffffffff16565b905061811589876167fe90919063ffffffff16565b94506181208161793e565b935060008090505b601481101561821c5784816014811061813d57fe5b1a60f81b7effffffffffffffffffffffffffffffffffffffffffffffffffffffffffffff191686828151811061816f57fe5b602001015160f81c60f81b7effffffffffffffffffffffffffffffffffffffffffffffffffffffffffffff19161461820f576040517f08c379a000000000000000000000000000000000000000000000000000000000815260040180806020018281038252601f8152602001807f497373756572206b65792068617368657320646f206e6f74206d617463682e0081525060200191505060405180910390fd5b8080600101915050618128565b50618230898761687890919063ffffffff16565b955061825b886020015161824d8b896167fe90919063ffffffff16565b61682e90919063ffffffff16565b6182cd576040517f08c379a000000000000000000000000000000000000000000000000000000000815260040180806020018281038252601c8152602001807f53657269616c206e756d6265727320646f206e6f74206d617463682e0000000081525060200191505060405180910390fd5b50505050505050505050565b600080836020015160ff1684600001510190506000601760f81b7effffffffffffffffffffffffffffffffffffffffffffffffffffffffffffff19168486600001518151811061832557fe5b602001015160f81c60f81b7effffffffffffffffffffffffffffffffffffffffffffffffffffffffffffff191614156184c957605a60f81b84600c876020015160ff16886000015101018151811061837957fe5b602001015160f81c60f81b7effffffffffffffffffffffffffffffffffffffffffffffffffffffffffffff191614806183fd5750605a60f81b84600e876020015160ff1688600001510101815181106183ce57fe5b602001015160f81c60f81b7effffffffffffffffffffffffffffffffffffffffffffffffffffffffffffff1916145b618452576040517f08c379a00000000000000000000000000000000000000000000000000000000081526004018080602001828103825260668152602001806196e46066913960800191505060405180910390fd5b600a61847985848060010195508151811061846957fe5b602001015160f81c60f81b6190c3565b0260ff166107d00190506184a884838060010194508151811061849857fe5b602001015160f81c60f81b6190c3565b60ff16810190506108018161ffff1611156184c4576064810390505b6186e6565b601860f81b7effffffffffffffffffffffffffffffffffffffffffffffffffffffffffffff19168486600001518151811061850057fe5b602001015160f81c60f81b7effffffffffffffffffffffffffffffffffffffffffffffffffffffffffffff1916141561869457605a60f81b84600e876020015160ff16886000015101018151811061855457fe5b602001015160f81c60f81b7effffffffffffffffffffffffffffffffffffffffffffffffffffffffffffff1916146185d7576040517f08c379a000000000000000000000000000000000000000000000000000000000815260040180806020018281038252606f8152602001806197ab606f913960800191505060405180910390fd5b6103e86185ff8584806001019550815181106185ef57fe5b602001015160f81c60f81b6190c3565b60ff16029050606461862c85848060010195508151811061861c57fe5b602001015160f81c60f81b6190c3565b0260ff1681019050600a61865b85848060010195508151811061864b57fe5b602001015160f81c60f81b6190c3565b0260ff168101905061868884838060010194508151811061867857fe5b602001015160f81c60f81b6190c3565b60ff16810190506186e5565b6040517f08c379a00000000000000000000000000000000000000000000000000000000081526004018080602001828103825260368152602001806195896036913960400191505060405180910390fd5b5b6000600a61870f8685806001019650815181106186ff57fe5b602001015160f81c60f81b6190c3565b02905061873785848060010195508151811061872757fe5b602001015160f81c60f81b6190c3565b810190506000600a61876487868060010197508151811061875457fe5b602001015160f81c60f81b6190c3565b02905061878c86858060010196508151811061877c57fe5b602001015160f81c60f81b6190c3565b810190506000600a6187b98887806001019850815181106187a957fe5b602001015160f81c60f81b6190c3565b0290506187e18786806001019750815181106187d157fe5b602001015160f81c60f81b6190c3565b810190506000600a61880e8988806001019950815181106187fe57fe5b602001015160f81c60f81b6190c3565b02905061883688878060010198508151811061882657fe5b602001015160f81c60f81b6190c3565b810190506188578561ffff168560ff168560ff168560ff168560ff166190d3565b965050505050505092915050565b600060a060f81b7effffffffffffffffffffffffffffffffffffffffffffffffffffffffffffff19168284600001518151811061889e57fe5b602001015160f81c60f81b7effffffffffffffffffffffffffffffffffffffffffffffffffffffffffffff191614618921576040517f08c379a00000000000000000000000000000000000000000000000000000000081526004018080602001828103825260408152602001806195496040913960400191505060405180910390fd5b618929619397565b61893c838561669290919063ffffffff16565b9050600061894a82856190fb565b90508080600101915050809250505092915050565b600080603060f81b7effffffffffffffffffffffffffffffffffffffffffffffffffffffffffffff19168385600001518151811061899957fe5b602001015160f81c60f81b7effffffffffffffffffffffffffffffffffffffffffffffffffffffffffffff191614618a1c576040517f08c379a00000000000000000000000000000000000000000000000000000000081526004018080602001828103825260418152602001806194e06041913960600191505060405180910390fd5b618a24619397565b618a2c619397565b618a3f858761669290919063ffffffff16565b9150618a54858361687890919063ffffffff16565b9050618a6082866182d9565b9350618a6c81866182d9565b925050509250929050565b6060603060f81b7effffffffffffffffffffffffffffffffffffffffffffffffffffffffffffff191682846000015181518110618ab057fe5b602001015160f81c60f81b7effffffffffffffffffffffffffffffffffffffffffffffffffffffffffffff191614618b33576040517f08c379a000000000000000000000000000000000000000000000000000000000815260040180806020018281038252604b815260200180619653604b913960600191505060405180910390fd5b618b46828461697490919063ffffffff16565b905092915050565b618b56619397565b618b7b83618b6d858561669290919063ffffffff16565b61669290919063ffffffff16565b9050600080905060008090505b60011561903557618b97619397565b618baa868561669290919063ffffffff16565b90506060618bc187836167fe90919063ffffffff16565b9050618bd6878361687890919063ffffffff16565b91506000809050600160f81b88846000015181518110618bf257fe5b602001015160f81c60f81b7effffffffffffffffffffffffffffffffffffffffffffffffffffffffffffff19161415618c8a57600060f81b88846020015160ff1685600001510181518110618c4357fe5b602001015160f81c60f81b7effffffffffffffffffffffffffffffffffffffffffffffffffffffffffffff191614159050618c87888461687890919063ffffffff16565b92505b618c92619397565b618ca5898561669290919063ffffffff16565b90506060618cbc8a836167fe90919063ffffffff16565b9050618d066040518060400160405280600381526020017f551d0f00000000000000000000000000000000000000000000000000000000008152508561682e90919063ffffffff16565b15618dae5780600181518110618d1857fe5b602001015160f81c60f81b8b61016001907effffffffffffffffffffffffffffffffffffffffffffffffffffffffffffff191690817effffffffffffffffffffffffffffffffffffffffffffffffffffffffffffff191681525050600460f81b600460f81b8c6101600151167effffffffffffffffffffffffffffffffffffffffffffffffffffffffffffff1916149650618ff9565b618df66040518060400160405280600381526020017f551d2000000000000000000000000000000000000000000000000000000000008152508561682e90919063ffffffff16565b15618e1c57618e0e8a866167fe90919063ffffffff16565b8b6101400181905250618ff8565b618e646040518060400160405280600381526020017f551d1100000000000000000000000000000000000000000000000000000000008152508561682e90919063ffffffff16565b15618e8957618e7c8a866167fe90919063ffffffff16565b8b60e00181905250618ff7565b618ed16040518060400160405280600381526020017f551d1300000000000000000000000000000000000000000000000000000000008152508561682e90919063ffffffff16565b15618f9e57618edf8261921d565b15618f9957618ef78a8361669290919063ffffffff16565b9150600060f81b618f118b846167fe90919063ffffffff16565b600081518110618f1d57fe5b602001015160f81c60f81b7effffffffffffffffffffffffffffffffffffffffffffffffffffffffffffff191614159550618f5782616855565b15618f8a57618f6f8a8361687890919063ffffffff16565b9150618f7b828b6190fb565b8b610120018181525050618f98565b6103e88b6101200181815250505b5b618ff6565b8215618ff5576040517f08c379a00000000000000000000000000000000000000000000000000000000081526004018080602001828103825260308152602001806198456030913960400191505060405180910390fd5b5b5b5b5b61900288616855565b156190215761901a8a8961687890919063ffffffff16565b975061902b565b5050505050619035565b5050505050618b88565b81801561903f5750805b86610100019015159081151581525050505050505050565b5b6020811061907b5781518352602083019250602082019150602081039050619058565b60006001826020036101000a0390508019835116818551168181178652505050505050565b6000835182840111156190b257600080fd5b818360208601012090509392505050565b600060308260f81c039050919050565b6000603c8202610e108402620151806190ed89898961922d565b020101905095945050505050565b6000600260f81b7effffffffffffffffffffffffffffffffffffffffffffffffffffffffffffff19168284600001518151811061913457fe5b602001015160f81c60f81b7effffffffffffffffffffffffffffffffffffffffffffffffffffffffffffff1916146191b7576040517f08c379a000000000000000000000000000000000000000000000000000000000815260040180806020018281038252604081526020018061974a6040913960400191505060405180910390fd5b600080905060008090505b846040015181101561921257600882901b91508381866020015160ff1687600001510101815181106191f057fe5b602001015160f81c60f81b60f81c60ff168201915080806001019150506191c2565b508091505092915050565b6000808260400151119050919050565b60006107b284101561923e57600080fd5b600084905060008490506000849050600062253d8c60046064600c600e87038161926457fe5b056113248801018161927257fe5b056003028161927d57fe5b05600c80600c600e88038161928e57fe5b0502600287030361016f02816192a057fe5b056004600c600e8803816192b057fe5b056112c08901016105b502816192c257fe5b05617d4b8603010103039050809450505050509392505050565b604051806102400160405280600060ff16815260200160608152602001600080191681526020016000815260200160008152602001606081526020016060815260200160608152602001600015158152602001600081526020016060815260200160007effffffffffffffffffffffffffffffffffffffffffffffffffffffffffffff191681526020016000815260200160008152602001600060ff1681526020016000815260200160008152602001600060ff1681525090565b604051806080016040528060008152602001600060ff16815260200160008152602001600081525090565b828054600181600116156101000203166002900490600052602060002090601f016020900481019282601f1061940357805160ff1916838001178555619431565b82800160010185558215619431579182015b82811115619430578251825591602001919060010190619415565b5b50905061943e9190619442565b5090565b61946491905b80821115619460576000816000905550600101619448565b5090565b9056fe4e6f646520686173206e6f74206265656e20696e697469616c697a65642c206368696c642063616e6e6f742062652064657465726d696e65642e4e6f646520686173206e6f74206265656e20696e697469616c697a65642c206e657874206e6f64652063616e6e6f742062652064657465726d696e65642e4e6f7420612076616c696420582e3530392044455220656e636f64696e673a2056616c6964697479206e6f742073706563696669656420636f72726563746c792e4f43535020726573706f6e736520737461747573206973206e6f74207375636365737366756c6c2e4e6f7420612076616c696420582e3530392044455220656e636f64696e673a2076657273696f6e206e6f742073706563696669656420636f72726563746c792e43657274696669636174652072656a65637465643a2056616c696469747920656e636f64696e67206e6f7420737570706f727465642e4973737565722063657274696669636174652069736e2774204341206365727469666963617465206f722069747320616c6c6f7765642070617468206c656e677468206973206e6f7420656e6f7567682e5369676e617475726520616c676f726974686d7320646f206e6f74206d617463682e497373756572206365727469666963617465206e6f7420617661696c61626c652e4e6f7420612076616c696420582e3530392044455220656e636f64696e673a207375626a656374207075626c6963206b6579206e6f742073706563696669656420636f72726563746c792e4f6e6c79204f43535020626173696320666f726d617420737570706f727465642e526573706f6e646572204944206e6f742073706563696669656420636f72726563746c792e4e6f7420612076616c696420582e3530392044455220656e636f64696e673a2056616c6964697479206e6f742073706563696669656420636f72726563746c79202f2055544354696d65206e6f7420696e20666f726d61742059594d4d444448484d4d53532e4e6f7420612076616c696420582e3530392044455220656e636f64696e673a20496e7465676572206e6f742073706563696669656420636f72726563746c792e4365727469666361746520706f736974696f6e20616c72656164792074616b656e4e6f7420612076616c696420582e3530392044455220656e636f64696e673a2056616c6964697479206e6f742073706563696669656420636f72726563746c793a2047656e6572616c697a656454696d65206e6f7420696e20666f726d617420595959594d4d444448484d4d53532e4f43535020726573706f6e736520646f6573206e6f7420636f6e7461696e20696e666f726d6174696f6e2e43657274696669636174652072656a65637465643a20556e6b6f776e20637269746963616c20657874656e73696f6e2e4365727469666963617465206e6f742076616c69643a2056616c696469747920706572696f6420696e2074686520706173742e4365727469666963617465206e6f742076616c69643a20497373756572206e616d65206e6f74207468652073616d6520617320696e2069737375696e672063657274696669636174652e4365727469666963617465206e6f742076616c69643a205369676e617475726520696e666f726d6174696f6e206e6f7420636f6e73697374656e742e4365727469666963617465206e6f742076616c69643a204365727469666963617465206d7573742062652076616c696420666f72206120706f737469766520616d6f756e74206f662074696d652e4861736820416c676f726974686d20666f722043657274204944206e6f7420737570706f727465642ea265627a7a72315820e682a941014b61950a592db8569d490db06b44983e6cb679dfcbeda926e8a0f864736f6c63430005100032",
  "source": "pragma solidity ^0.5.12;\n\nimport \"./BytesUtils.sol\";\nimport \"./X509Certificate.sol\";\n\n/// @title CertificateStore\n/// @dev Database for the validation, storage, and maintanence of TLS certificates\ncontract CertificateStore {\n\n\tevent CertificateAdded(bytes32 fingerprint);\n\tevent SelfSignedCertificateAdded(bytes32 fingerprint, uint256 rootIndex);\n\tevent CertificateUpdated(bytes32 certID, uint256 expiration);\n\tevent CertificateRevoked(bytes32 certID);\n\tevent rootRemovedFromStore(uint256 storeIndex, bytes32 fingerprint);\n\tevent rootAddedtoStore(uint256 storeIndex, bytes32 fingerprint);\n\n\t/// @notice All certificates stored in the database, includiing self-signed\n\tmapping (bytes32 => X509Parser.X509certificate) private certificates;\n\n\t/// @notice All self-signed certificates stored in the database\n\tmapping (uint256 => bytes32) private trustAnchors;\n\t/// @notice Number of self-signed certificates stored\n\tuint256 rootCounter = 0;\n\n\t/// @notice Submit a self-signed certificate to the database\n\t/// @dev Parses and validates the provided DER, stores certificate if valid\n\t/// @param der ASN.1 document in DER format\n\tfunction addSelfsignedCertificate(bytes memory der) public {\n\t\trequire(rootCounter < (2^256) -1, \"Trust anchor memory is full\");\n\t\tbytes32 fingerprint = getFingerprint(der);\n\t\trequire (certificates[fingerprint].version == 0, \"Certifcate position already taken\");\n\n\t\t//validate the certificate and get its X509certificate representation\n\t\tX509Parser.X509certificate memory cert = X509Parser.parseAndValidateSelfSignedCertificate(der);\n\n\t\t//store the certificate\n\t\tX509Parser.X509certificate storage storeCert = certificates[fingerprint];\n\t\tstoreCertificate(storeCert, cert, fingerprint);\n\t\ttrustAnchors[rootCounter] = fingerprint;\n\t\trootCounter++;\n\n\t\temit SelfSignedCertificateAdded(fingerprint, rootCounter);\n\t}\n\n\t/// @notice Submit a certificate signed by a certificate already stored\n\t/// @dev Retrieves issuer, parses and validates cert, stores cert if valid\n\t/// @param der ASN.1 document in DER format\n\t/// @param issuerID The SHA-256 hash of an issuing certificate already stored\n\tfunction addCertificate(bytes memory der,  bytes32 issuerID) public {\n\t\trequire (certExists(issuerID), \"Issuer certificate not available.\");\n\t\t//check certID is fresh\n\t\tbytes32 fingerprint = getFingerprint(der);\n\t\trequire (certificates[fingerprint].version == 0, \"Certifcate position already taken\");\n\n\t\t//retrieve issuer information\n\t\tX509Parser.X509certificate memory issuer = certificates[issuerID];\n\n\t\t//get pubKey and name of issuer\n\t\tbytes memory issuerKey = issuer.publicKey;\n\t\tbytes memory issuerName = issuer.name;\n\t\trequire(issuer.cA && issuer.pathLen >= 0,\n\t\t\t\"Issuer certificate isn't CA certificate or its allowed path length is not enough.\");\n\n\t\t//parse and validate the new cert\n\t\tX509Parser.X509certificate memory cert = X509Parser.parseAndValidateDERCertificate(der, issuerName, issuerKey);\n\t\tif (cert.pathLen >= issuer.pathLen){\n\t\t\tcert.pathLen = issuer.pathLen - 1;\n\t\t}\n\n\t\t//store the new cert\n\t\tX509Parser.X509certificate storage storeCert = certificates[fingerprint];\n\t\tstoreCertificate(storeCert, cert, issuerID);\n\n\t\temit CertificateAdded(fingerprint);\n\t}\n\n\t/// @notice Submit an OCSP response to update the revocation status of a certificate\n\t/// @dev Parses and validates OCSP response, updates 'ocsp_status' of certificate if appropriate\n\t/// @param certID SHA-256 hash of the certificate concerned\n\t/// @param ocsp OCSP response in DER representation\n\tfunction refreshCertificateOCSP(bytes32 certID, bytes memory ocsp) public {\n\t\tX509Parser.X509certificate memory cert = certificates[certID];\n\t\t//status can only be updated if cert is not revoked\n\t\tif (cert.ocsp_status != 1){\n\t\t\t//parse and validate OCSP response\n\t\t\tX509Parser.X509certificate memory issuer = certificates[cert.issuerFingerprint];\n\t\t\t(uint8 certStatus, uint256 thisUpdate, uint256 nextUpdate) = X509Parser.parseOcspResponse(ocsp, cert, issuer);\n\n\t\t\t//store the new status\n\t\t\tcertificates[certID].ocsp_status = certStatus;\n\t\t\tcertificates[certID].ocsp_lastUpdate = thisUpdate;\n\t\t\tcertificates[certID].ocsp_nextUpdate = nextUpdate;\n\n\t\t\tif (certStatus == 0){\n\t\t\t\temit CertificateUpdated(certID, nextUpdate);\n\t\t\t}\n\n\t\t\tif (certStatus == 1){\n\t\t\t\temit CertificateRevoked(certID);\n\t\t\t}\n\t\t}\n\t}\n\n\t/// @notice Submit a CRL to update the revocation status of a certificate\n\t/// @dev Parses and validates CRL, updates 'ocsp_status' of certificate if appropriate\n\t/// @param certID SHA-256 hash of the certificate concerned\n\t/// @param crl CRL in DER representation\n\tfunction refreshCertificateCRL(bytes32 certID, bytes memory crl) public {\n\t\tX509Parser.X509certificate memory cert = certificates[certID];\n\t\t//status can only be updated if cert is not revoked\n\t\tif (cert.crl_status != 1){\n\t\t\t//parse and validate CRL\n\t\t\tX509Parser.X509certificate memory issuer = certificates[cert.issuerFingerprint];\n\t\t\t(bool contained, uint256 thisUpdate, uint256 nextUpdate) = X509Parser.parseCRL(crl, cert, issuer);\n\n\t\t\t//store the new status\n\t\t\tif (contained ){\n\t\t\t\tcertificates[certID].crl_status = 1;\n\t\t\t\temit CertificateRevoked(certID);\n\t\t\t}\n\t\t\tcertificates[certID].crl_lastUpdate = thisUpdate;\n\t\t\tcertificates[certID].crl_nextUpdate = nextUpdate;\n\t\t\temit CertificateUpdated(certID, nextUpdate);\n\t\t}\n\t}\n\n\n\t/// @notice Get the basic information about a certificate\n\t/// @dev Get the mandatory fields of the X509certificate struct of a stored certificate\n\t/// @param certID SHA-256 hash of the certificate concerned\n\t/// @return version, serial number, not valid before, not valid after, name, public key, issuer identifier\n\tfunction getCert(bytes32 certID) public view returns (uint8, bytes memory, uint, uint, bytes memory, bytes memory,  bytes32) {\n\t\tX509Parser.X509certificate memory cert = certificates[certID];\n\t\treturn(cert.version, cert.serialNumber, cert.notValidBefore, cert.notValidAfter, cert.name, cert.publicKey, cert.issuerFingerprint);\n\t}\n\n\t/// @notice Get the extension information about a certificate\n\t/// @dev Get the extension fields of the X509certificate struct of a stored certificate\n\t/// @param certID SHA-256 hash of the certificate concerned\n\t/// @return subject alternative names, CA flag, path length, certificate policy,  key usage\n\tfunction getCertExtensionFields(bytes32 certID) public view returns (bytes memory, bool, int, bytes memory, byte) {\n\t\tX509Parser.X509certificate memory cert = certificates[certID];\n\t\treturn(cert.san, cert.cA, cert.pathLen, cert.certPolicy, cert.keyUsage);\n\t}\n\n\t/// @notice Get the OCSP status of a stored certificate\n\t/// @dev Get the OCSP status of a stored certificate\n\t/// @param certID SHA-256 hash of the certificate concerned\n\t/// @return revocation status, time of this update, time of expiry of update\n\tfunction getOCSPStatus(bytes32 certID) public view returns (uint8, uint, uint) {\n\t\tX509Parser.X509certificate memory cert = certificates[certID];\n\t\treturn(cert.ocsp_status, cert.ocsp_lastUpdate, cert.ocsp_nextUpdate);\n\t}\n\n\t/// @notice Get the CRL status of a stored certificate\n\t/// @dev Get the CRL status of a stored certificate\n\t/// @param certID SHA-256 hash of the certificate concerned\n\t/// @return revocation status, time of this update, time of expiry of update\n\tfunction getCRLStatus(bytes32 certID) public view returns (uint8, uint, uint) {\n\t\tX509Parser.X509certificate memory cert = certificates[certID];\n\t\treturn(cert.crl_status, cert.crl_lastUpdate, cert.crl_nextUpdate);\n\t}\n\n\t/// @notice Returns the status of a certificate and its chain\n\t/// @dev Checks whether certificate is revoked or expired and whether a certificate in its chain is revoked or expired\n\t/// @param certID SHA-256 hash of the certificate concerned\n\t/// @return bool contained in the database, bool expired, bool revoked, bool has a valid chain\n\tfunction getCertificateStatus(bytes32 certID) public view returns (bool contained, bool expired, bool revoked, bool validChain){\n\t\tif (certExists(certID)){\n\t\t\t//set up with positive default values\n\t\t\tcontained = true;\n\t\t\texpired = false;\n\t\t\trevoked = false;\n\t\t\tvalidChain = true;\n\n\t\t\t//check the certificate expiration and revocation\n\t\t\tX509Parser.X509certificate memory cert = certificates[certID];\n\t\t\tif (cert.notValidAfter < now || cert.notValidBefore > now){\n\t\t\t\texpired = true;\n\t\t\t\t}\n\t\t\tif (cert.ocsp_status == 1|| cert.crl_status == 1 ){\n\t\t\t\trevoked = true;\n\t\t\t}\n\n\t\t\t//check the certificate's chain\n\t\t\twhile (true){\n\t\t\t\tif (cert.issuerFingerprint == certID){\n\t\t\t\t\treturn (contained, expired, revoked, validChain);\n\t\t\t\t}\n\t\t\t\tcertID = cert.issuerFingerprint;\n\t\t\t\tif (cert.notValidAfter < now || cert.notValidBefore > now || cert.ocsp_status == 1 || cert.crl_status == 1 ){\n\t\t\t\t\tvalidChain = false;\n\t\t\t\t}\n\n\t\t\t}\n\t\t}\n\t\t//if cert does not exist, return negative values\n\t\treturn(false, true, true, false);\n\t}\n\n\n\n\t/// @notice Get the public key and the identifier of the trust anchor of a certificate\n\t/// @dev Get the public key and the identifier of the trust anchor of a certificate and verify that the cert is authoritve for the given domain\n\t/// @param certID SHA-256 hash of the certificate concerned\n\t/// @param domainName Domain name to be checked\n\t/// @return contained, public key, root identifier\n\tfunction getPublicKeyAndRoot(bytes32 certID, string memory domainName) public view returns (bool, bytes memory, bytes32){\n\t\tif (certExists(certID)){\n\t\t\tX509Parser.X509certificate memory cert = certificates[certID];\n\t\t\tif (X509Parser.checkNameContained(cert, domainName)){\n\t\t\t\treturn (true, cert.publicKey, getRootIDbyCertID(certID));\n\t\t\t}\n\t\t}\n\t\treturn (false, \"0x00\", 0);\n\t}\n\n\t/// @notice Get the identifier of the trust anchor stored at index 'index'\n\t/// @dev Get the identifier of the trust anchor stored at index 'index'\n\t/// @param index index in 'trustAnchors'\n\t/// @return identifier of the trust anchor\n\tfunction getRootFingerprint(uint256 index) public view returns (bytes32) {\n\t\treturn trustAnchors[index];\n\t}\n\n\t/// @notice Get the identifier of the trust anchor of a certificate\n\t/// @dev Get the identifier of the trust anchor of a certificate\n\t/// @param certID SHA-256 hash of the certificate concerned\n\t/// @return identifier of the certificate's trust anchor\n\tfunction getRootIDbyCertID(bytes32 certID) public view returns (bytes32){\n\t\tX509Parser.X509certificate memory cert = certificates[certID];\n\t\twhile (true){\n\t\t\tif (cert.issuerFingerprint == certID){\n\t\t\t\treturn certID;\n\t\t\t}\n\t\t\tcertID = cert.issuerFingerprint;\n\t\t\tcert= certificates[certID];\n\t\t}\n\t}\n\n\t/// @notice Returns whether certificate is stored in database\n\t/// @dev Returns whether certificate is stored in database, i.e. is of version 1 or higher\n\t/// @param certID SHA-256 hash of the certificate concerned\n\t/// @return bool exists\n\tfunction certExists(bytes32 certID) public view returns (bool){\n\t\treturn certificates[certID].version > 0;\n\t}\n\n\t/// @notice Store a new certificate in the database\n\t/// @dev Copy a memory X509certificate to storage X509certificate\n\t/// @param storeCert X509certificate in storage that is filled\n\t/// @param cert X509certificate in memory that contains information to be stored\n\t/// @param issuer Identifier of the certificate's issuer\n\tfunction storeCertificate(X509Parser.X509certificate storage storeCert,  X509Parser.X509certificate memory cert, bytes32 issuer) private {\n\t\tstoreCert.version = cert.version;\n\t\tstoreCert.serialNumber = cert.serialNumber;\n\t\tstoreCert.issuerFingerprint = issuer;\n\t\tstoreCert.notValidBefore = cert.notValidBefore;\n\t\tstoreCert.notValidAfter = cert.notValidAfter;\n\t\tstoreCert.name = cert.name;\n\t\tstoreCert.publicKey = cert.publicKey;\n\t\tstoreCert.san = cert.san;\n\t\tstoreCert.cA = cert.cA;\n\t\tstoreCert.pathLen = cert.pathLen;\n\t\tstoreCert.keyUsage = cert.keyUsage;\n\n\t\t//set the default revocation status: unkown\n\t\tstoreCert.ocsp_status = 2;\n\t\tstoreCert.crl_status = 2;\n\t}\n\n\t/// @dev Get the identifier of a certificate\n\t/// @param der ASN.1 document in DER format\n\t/// @return SHA-256 hash of the certificate\n\tfunction getFingerprint(bytes memory der) public pure returns (bytes32){\n\t\treturn sha256(der);\n\t}\n\n\t/// @dev Get the bytes representation of an unsigned integer\n\t/// @param x integer to be converted\n\t/// @return integer value represented in bytes\n\tfunction toBytes(uint256 x) private pure returns (bytes memory b) {\n\t\tb = new bytes(32);\n\t\tassembly { mstore(add(b, 32), x)}\n\t}\n}\n",
  "sourcePath": "/home/friederike/tls-certificates-for-etherum/implementation/contracts/CertStore.sol",
  "compiler": {
    "name": "solc",
    "version": "0.5.16+commit.9c3226ce.Emscripten.clang"
  },
  "schemaVersion": "3.0.22",
  "updatedAt": "2020-05-24T18:16:52.661Z",
  "devdoc": {
    "details": "Database for the validation, storage, and maintanence of TLS certificates",
    "methods": {
      "addCertificate(bytes,bytes32)": {
        "details": "Retrieves issuer, parses and validates cert, stores cert if valid",
        "params": {
          "der": "ASN.1 document in DER format",
          "issuerID": "The SHA-256 hash of an issuing certificate already stored"
        }
      },
      "addSelfsignedCertificate(bytes)": {
        "details": "Parses and validates the provided DER, stores certificate if valid",
        "params": {
          "der": "ASN.1 document in DER format"
        }
      },
      "certExists(bytes32)": {
        "details": "Returns whether certificate is stored in database, i.e. is of version 1 or higher",
        "params": {
          "certID": "SHA-256 hash of the certificate concerned"
        },
        "return": "bool exists"
      },
      "getCRLStatus(bytes32)": {
        "details": "Get the CRL status of a stored certificate",
        "params": {
          "certID": "SHA-256 hash of the certificate concerned"
        },
        "return": "revocation status, time of this update, time of expiry of update"
      },
      "getCert(bytes32)": {
        "details": "Get the mandatory fields of the X509certificate struct of a stored certificate",
        "params": {
          "certID": "SHA-256 hash of the certificate concerned"
        },
        "return": "version, serial number, not valid before, not valid after, name, public key, issuer identifier"
      },
      "getCertExtensionFields(bytes32)": {
        "details": "Get the extension fields of the X509certificate struct of a stored certificate",
        "params": {
          "certID": "SHA-256 hash of the certificate concerned"
        },
        "return": "subject alternative names, CA flag, path length, certificate policy,  key usage"
      },
      "getCertificateStatus(bytes32)": {
        "details": "Checks whether certificate is revoked or expired and whether a certificate in its chain is revoked or expired",
        "params": {
          "certID": "SHA-256 hash of the certificate concerned"
        },
        "return": "bool contained in the database, bool expired, bool revoked, bool has a valid chain"
      },
      "getFingerprint(bytes)": {
        "details": "Get the identifier of a certificate",
        "params": {
          "der": "ASN.1 document in DER format"
        },
        "return": "SHA-256 hash of the certificate"
      },
      "getOCSPStatus(bytes32)": {
        "details": "Get the OCSP status of a stored certificate",
        "params": {
          "certID": "SHA-256 hash of the certificate concerned"
        },
        "return": "revocation status, time of this update, time of expiry of update"
      },
      "getPublicKeyAndRoot(bytes32,string)": {
        "details": "Get the public key and the identifier of the trust anchor of a certificate and verify that the cert is authoritve for the given domain",
        "params": {
          "certID": "SHA-256 hash of the certificate concerned",
          "domainName": "Domain name to be checked"
        },
        "return": "contained, public key, root identifier"
      },
      "getRootFingerprint(uint256)": {
        "details": "Get the identifier of the trust anchor stored at index 'index'",
        "params": {
          "index": "index in 'trustAnchors'"
        },
        "return": "identifier of the trust anchor"
      },
      "getRootIDbyCertID(bytes32)": {
        "details": "Get the identifier of the trust anchor of a certificate",
        "params": {
          "certID": "SHA-256 hash of the certificate concerned"
        },
        "return": "identifier of the certificate's trust anchor"
      },
      "refreshCertificateCRL(bytes32,bytes)": {
        "details": "Parses and validates CRL, updates 'ocsp_status' of certificate if appropriate",
        "params": {
          "certID": "SHA-256 hash of the certificate concerned",
          "crl": "CRL in DER representation"
        }
      },
      "refreshCertificateOCSP(bytes32,bytes)": {
        "details": "Parses and validates OCSP response, updates 'ocsp_status' of certificate if appropriate",
        "params": {
          "certID": "SHA-256 hash of the certificate concerned",
          "ocsp": "OCSP response in DER representation"
        }
      }
    },
    "title": "CertificateStore"
  },
  "userdoc": {
    "methods": {
      "addCertificate(bytes,bytes32)": {
        "notice": "Submit a certificate signed by a certificate already stored"
      },
      "addSelfsignedCertificate(bytes)": {
        "notice": "Submit a self-signed certificate to the database"
      },
      "certExists(bytes32)": {
        "notice": "Returns whether certificate is stored in database"
      },
      "getCRLStatus(bytes32)": {
        "notice": "Get the CRL status of a stored certificate"
      },
      "getCert(bytes32)": {
        "notice": "Get the basic information about a certificate"
      },
      "getCertExtensionFields(bytes32)": {
        "notice": "Get the extension information about a certificate"
      },
      "getCertificateStatus(bytes32)": {
        "notice": "Returns the status of a certificate and its chain"
      },
      "getOCSPStatus(bytes32)": {
        "notice": "Get the OCSP status of a stored certificate"
      },
      "getPublicKeyAndRoot(bytes32,string)": {
        "notice": "Get the public key and the identifier of the trust anchor of a certificate"
      },
      "getRootFingerprint(uint256)": {
        "notice": "Get the identifier of the trust anchor stored at index 'index'"
      },
      "getRootIDbyCertID(bytes32)": {
        "notice": "Get the identifier of the trust anchor of a certificate"
      },
      "refreshCertificateCRL(bytes32,bytes)": {
        "notice": "Submit a CRL to update the revocation status of a certificate"
      },
      "refreshCertificateOCSP(bytes32,bytes)": {
        "notice": "Submit an OCSP response to update the revocation status of a certificate"
      }
    }
  }
}