{
  "contractName": "EndorsementDatabase",
  "abi": [
    {
      "inputs": [
        {
          "internalType": "address",
          "name": "certStore",
          "type": "address"
        }
      ],
      "payable": false,
      "stateMutability": "nonpayable",
      "type": "constructor"
    },
    {
      "anonymous": false,
      "inputs": [
        {
          "indexed": false,
          "internalType": "bytes",
          "name": "accountAddress",
          "type": "bytes"
        },
        {
          "indexed": false,
          "internalType": "string",
          "name": "domainName",
          "type": "string"
        },
        {
          "indexed": false,
          "internalType": "bytes32",
          "name": "certID",
          "type": "bytes32"
        },
        {
          "indexed": false,
          "internalType": "uint256",
          "name": "expiration",
          "type": "uint256"
        }
      ],
      "name": "EndorsementAdded",
      "type": "event"
    },
    {
      "anonymous": false,
      "inputs": [
        {
          "indexed": false,
          "internalType": "bytes",
          "name": "accountAddress",
          "type": "bytes"
        },
        {
          "indexed": false,
          "internalType": "string",
          "name": "domainName",
          "type": "string"
        },
        {
          "indexed": false,
          "internalType": "uint256",
          "name": "expiration",
          "type": "uint256"
        }
      ],
      "name": "EndorsementRevoked",
      "type": "event"
    },
    {
      "anonymous": false,
      "inputs": [
        {
          "indexed": false,
          "internalType": "uint256",
          "name": "storeIndex",
          "type": "uint256"
        },
        {
          "indexed": false,
          "internalType": "bytes32",
          "name": "fingerprint",
          "type": "bytes32"
        }
      ],
      "name": "rootAddedtoStore",
      "type": "event"
    },
    {
      "constant": false,
      "inputs": [
        {
          "internalType": "bytes",
          "name": "accountAddress",
          "type": "bytes"
        },
        {
          "internalType": "string",
          "name": "domainName",
          "type": "string"
        },
        {
          "internalType": "bytes32",
          "name": "certID",
          "type": "bytes32"
        },
        {
          "internalType": "uint256",
          "name": "expiration",
          "type": "uint256"
        },
        {
          "internalType": "bytes",
          "name": "signature",
          "type": "bytes"
        }
      ],
      "name": "submitEndorsement",
      "outputs": [],
      "payable": false,
      "stateMutability": "nonpayable",
      "type": "function"
    },
    {
      "constant": false,
      "inputs": [
        {
          "internalType": "uint256",
          "name": "index",
          "type": "uint256"
        },
        {
          "internalType": "bytes",
          "name": "signature",
          "type": "bytes"
        }
      ],
      "name": "revokeEndorsement",
      "outputs": [],
      "payable": false,
      "stateMutability": "nonpayable",
      "type": "function"
    },
    {
      "constant": false,
      "inputs": [],
      "name": "initializeRootStore",
      "outputs": [
        {
          "internalType": "uint256",
          "name": "",
          "type": "uint256"
        }
      ],
      "payable": false,
      "stateMutability": "nonpayable",
      "type": "function"
    },
    {
      "constant": false,
      "inputs": [
        {
          "internalType": "uint256",
          "name": "storeIndex",
          "type": "uint256"
        },
        {
          "internalType": "uint256",
          "name": "startIndex",
          "type": "uint256"
        },
        {
          "internalType": "uint256",
          "name": "endIndex",
          "type": "uint256"
        }
      ],
      "name": "addRootstoStore",
      "outputs": [],
      "payable": false,
      "stateMutability": "nonpayable",
      "type": "function"
    },
    {
      "constant": false,
      "inputs": [
        {
          "internalType": "uint256",
          "name": "storeIndex",
          "type": "uint256"
        },
        {
          "internalType": "uint256",
          "name": "rootIndex",
          "type": "uint256"
        }
      ],
      "name": "removeRootFromStore",
      "outputs": [],
      "payable": false,
      "stateMutability": "nonpayable",
      "type": "function"
    },
    {
      "constant": true,
      "inputs": [
        {
          "internalType": "uint256",
          "name": "rootStore",
          "type": "uint256"
        },
        {
          "internalType": "bytes",
          "name": "account",
          "type": "bytes"
        },
        {
          "internalType": "string",
          "name": "domainName",
          "type": "string"
        },
        {
          "internalType": "bytes32",
          "name": "certID",
          "type": "bytes32"
        },
        {
          "internalType": "uint256",
          "name": "expiration",
          "type": "uint256"
        },
        {
          "internalType": "bytes",
          "name": "signature",
          "type": "bytes"
        }
      ],
      "name": "verifyInternalEndorsement",
      "outputs": [
        {
          "internalType": "bool",
          "name": "",
          "type": "bool"
        }
      ],
      "payable": false,
      "stateMutability": "view",
      "type": "function"
    },
    {
      "constant": true,
      "inputs": [
        {
          "internalType": "bytes",
          "name": "account",
          "type": "bytes"
        },
        {
          "internalType": "string",
          "name": "domain",
          "type": "string"
        },
        {
          "internalType": "bytes32",
          "name": "certID",
          "type": "bytes32"
        },
        {
          "internalType": "uint256",
          "name": "expiration",
          "type": "uint256"
        },
        {
          "internalType": "bytes",
          "name": "signature",
          "type": "bytes"
        }
      ],
      "name": "verifyInternalEndorsementRevocation",
      "outputs": [
        {
          "internalType": "bool",
          "name": "",
          "type": "bool"
        }
      ],
      "payable": false,
      "stateMutability": "view",
      "type": "function"
    },
    {
      "constant": true,
      "inputs": [
        {
          "internalType": "uint256",
          "name": "index",
          "type": "uint256"
        }
      ],
      "name": "getEndorsement",
      "outputs": [
        {
          "internalType": "bytes",
          "name": "",
          "type": "bytes"
        },
        {
          "internalType": "string",
          "name": "",
          "type": "string"
        },
        {
          "internalType": "bytes32",
          "name": "",
          "type": "bytes32"
        },
        {
          "internalType": "uint256",
          "name": "",
          "type": "uint256"
        },
        {
          "internalType": "uint256",
          "name": "",
          "type": "uint256"
        },
        {
          "internalType": "bytes32",
          "name": "",
          "type": "bytes32"
        },
        {
          "internalType": "bool",
          "name": "",
          "type": "bool"
        }
      ],
      "payable": false,
      "stateMutability": "view",
      "type": "function"
    },
    {
      "constant": true,
      "inputs": [
        {
          "internalType": "bytes",
          "name": "account",
          "type": "bytes"
        },
        {
          "internalType": "uint32",
          "name": "index",
          "type": "uint32"
        }
      ],
      "name": "getEndorsementByAddress",
      "outputs": [
        {
          "internalType": "bytes",
          "name": "",
          "type": "bytes"
        },
        {
          "internalType": "string",
          "name": "",
          "type": "string"
        },
        {
          "internalType": "bytes32",
          "name": "",
          "type": "bytes32"
        },
        {
          "internalType": "uint256",
          "name": "",
          "type": "uint256"
        },
        {
          "internalType": "uint256",
          "name": "",
          "type": "uint256"
        },
        {
          "internalType": "bytes32",
          "name": "",
          "type": "bytes32"
        },
        {
          "internalType": "bool",
          "name": "",
          "type": "bool"
        }
      ],
      "payable": false,
      "stateMutability": "view",
      "type": "function"
    },
    {
      "constant": true,
      "inputs": [
        {
          "internalType": "string",
          "name": "domain",
          "type": "string"
        },
        {
          "internalType": "uint32",
          "name": "index",
          "type": "uint32"
        }
      ],
      "name": "getEndorsementByDomain",
      "outputs": [
        {
          "internalType": "bytes",
          "name": "",
          "type": "bytes"
        },
        {
          "internalType": "string",
          "name": "",
          "type": "string"
        },
        {
          "internalType": "bytes32",
          "name": "",
          "type": "bytes32"
        },
        {
          "internalType": "uint256",
          "name": "",
          "type": "uint256"
        },
        {
          "internalType": "uint256",
          "name": "",
          "type": "uint256"
        },
        {
          "internalType": "bytes32",
          "name": "",
          "type": "bytes32"
        },
        {
          "internalType": "bool",
          "name": "",
          "type": "bool"
        }
      ],
      "payable": false,
      "stateMutability": "view",
      "type": "function"
    },
    {
      "constant": true,
      "inputs": [
        {
          "internalType": "string",
          "name": "domain",
          "type": "string"
        },
        {
          "internalType": "uint256",
          "name": "rootStoreIndex",
          "type": "uint256"
        }
      ],
      "name": "getAccountByDomain",
      "outputs": [
        {
          "internalType": "bool",
          "name": "",
          "type": "bool"
        },
        {
          "internalType": "bytes",
          "name": "",
          "type": "bytes"
        }
      ],
      "payable": false,
      "stateMutability": "view",
      "type": "function"
    },
    {
      "constant": true,
      "inputs": [
        {
          "internalType": "bytes",
          "name": "account",
          "type": "bytes"
        },
        {
          "internalType": "uint256",
          "name": "rootStoreIndex",
          "type": "uint256"
        }
      ],
      "name": "getDomainByAccount",
      "outputs": [
        {
          "internalType": "bool",
          "name": "",
          "type": "bool"
        },
        {
          "internalType": "string",
          "name": "",
          "type": "string"
        }
      ],
      "payable": false,
      "stateMutability": "view",
      "type": "function"
    },
    {
      "constant": true,
      "inputs": [
        {
          "internalType": "string",
          "name": "domain",
          "type": "string"
        },
        {
          "internalType": "bytes",
          "name": "account",
          "type": "bytes"
        },
        {
          "internalType": "uint256",
          "name": "rootStoreIndex",
          "type": "uint256"
        }
      ],
      "name": "getEndorsementByDomainAndAccount",
      "outputs": [
        {
          "internalType": "bool",
          "name": "",
          "type": "bool"
        },
        {
          "internalType": "uint256",
          "name": "",
          "type": "uint256"
        }
      ],
      "payable": false,
      "stateMutability": "view",
      "type": "function"
    },
    {
      "constant": true,
      "inputs": [
        {
          "internalType": "uint256",
          "name": "store",
          "type": "uint256"
        },
        {
          "internalType": "bytes32",
          "name": "rootID",
          "type": "bytes32"
        }
      ],
      "name": "containsFingerprint",
      "outputs": [
        {
          "internalType": "bool",
          "name": "",
          "type": "bool"
        }
      ],
      "payable": false,
      "stateMutability": "view",
      "type": "function"
    },
    {
      "constant": true,
      "inputs": [
        {
          "internalType": "uint256",
          "name": "store",
          "type": "uint256"
        },
        {
          "internalType": "uint256",
          "name": "index",
          "type": "uint256"
        }
      ],
      "name": "getRootAt",
      "outputs": [
        {
          "internalType": "bytes32",
          "name": "",
          "type": "bytes32"
        }
      ],
      "payable": false,
      "stateMutability": "view",
      "type": "function"
    },
    {
      "constant": true,
      "inputs": [
        {
          "internalType": "bytes",
          "name": "accountAddress",
          "type": "bytes"
        },
        {
          "internalType": "string",
          "name": "domainName",
          "type": "string"
        },
        {
          "internalType": "bytes32",
          "name": "certificateID",
          "type": "bytes32"
        },
        {
          "internalType": "uint256",
          "name": "expiration",
          "type": "uint256"
        }
      ],
      "name": "getPreEndorsement",
      "outputs": [
        {
          "internalType": "bytes",
          "name": "",
          "type": "bytes"
        }
      ],
      "payable": false,
      "stateMutability": "pure",
      "type": "function"
    },
    {
      "constant": true,
      "inputs": [
        {
          "internalType": "bytes",
          "name": "accountAddress",
          "type": "bytes"
        },
        {
          "internalType": "string",
          "name": "domainName",
          "type": "string"
        },
        {
          "internalType": "uint256",
          "name": "expiration",
          "type": "uint256"
        }
      ],
      "name": "getPreRevocation",
      "outputs": [
        {
          "internalType": "bytes",
          "name": "",
          "type": "bytes"
        }
      ],
      "payable": false,
      "stateMutability": "pure",
      "type": "function"
    }
  ],
  "bytecode": "0x60806040526000600255600060055534801561001a57600080fd5b50604051620049f1380380620049f18339818101604052602081101561003f57600080fd5b8101908080519060200190929190505050806000806101000a81548173ffffffffffffffffffffffffffffffffffffffff021916908373ffffffffffffffffffffffffffffffffffffffff1602179055505061495080620000a16000396000f3fe608060405234801561001057600080fd5b506004361061010b5760003560e01c80635c91cdae116100a257806385e61d3a1161007157806385e61d3a14610e665780638efb10401461107b57806397b2833f146111b5578063a91afe67146111ed578063dfc6f4af1461140c5761010b565b80635c91cdae14610be55780635ce9652f14610c0357806362688a8214610c4557806364bdf15914610c915761010b565b806337f8b204116100de57806337f8b204146107a857806347db6c78146109875780635aa8441914610a4c5780635b8e6fe514610b955761010b565b8063053b95171461011057806315a04984146102595780632876f571146104565780632e09758c146105d1575b600080fd5b6101d36004803603604081101561012657600080fd5b810190808035906020019064010000000081111561014357600080fd5b82018360208201111561015557600080fd5b8035906020019184600183028401116401000000008311171561017757600080fd5b91908080601f016020809104026020016040519081016040528093929190818152602001838380828437600081840152601f19601f820116905080830192505050505050509192919290803590602001909291905050506115e3565b604051808315151515815260200180602001828103825283818151815260200191508051906020019080838360005b8381101561021d578082015181840152602081019050610202565b50505050905090810190601f16801561024a5780820380516001836020036101000a031916815260200191505b50935050505060405180910390f35b610454600480360360a081101561026f57600080fd5b810190808035906020019064010000000081111561028c57600080fd5b82018360208201111561029e57600080fd5b803590602001918460018302840111640100000000831117156102c057600080fd5b91908080601f016020809104026020016040519081016040528093929190818152602001838380828437600081840152601f19601f8201169050808301925050505050505091929192908035906020019064010000000081111561032357600080fd5b82018360208201111561033557600080fd5b8035906020019184600183028401116401000000008311171561035757600080fd5b91908080601f016020809104026020016040519081016040528093929190818152602001838380828437600081840152601f19601f8201169050808301925050505050505091929192908035906020019092919080359060200190929190803590602001906401000000008111156103ce57600080fd5b8201836020820111156103e057600080fd5b8035906020019184600183028401116401000000008311171561040257600080fd5b91908080601f016020809104026020016040519081016040528093929190818152602001838380828437600081840152601f19601f82011690508083019250505050505050919291929050505061182c565b005b6105b06004803603606081101561046c57600080fd5b810190808035906020019064010000000081111561048957600080fd5b82018360208201111561049b57600080fd5b803590602001918460018302840111640100000000831117156104bd57600080fd5b91908080601f016020809104026020016040519081016040528093929190818152602001838380828437600081840152601f19601f8201169050808301925050505050505091929192908035906020019064010000000081111561052057600080fd5b82018360208201111561053257600080fd5b8035906020019184600183028401116401000000008311171561055457600080fd5b91908080601f016020809104026020016040519081016040528093929190818152602001838380828437600081840152601f19601f82011690508083019250505050505050919291929080359060200190929190505050611eee565b60405180831515151581526020018281526020019250505060405180910390f35b61069a600480360360408110156105e757600080fd5b810190808035906020019064010000000081111561060457600080fd5b82018360208201111561061657600080fd5b8035906020019184600183028401116401000000008311171561063857600080fd5b91908080601f016020809104026020016040519081016040528093929190818152602001838380828437600081840152601f19601f820116905080830192505050505050509192919290803563ffffffff169060200190929190505050612159565b6040518080602001806020018881526020018781526020018681526020018581526020018415151515815260200183810383528a818151815260200191508051906020019080838360005b838110156107005780820151818401526020810190506106e5565b50505050905090810190601f16801561072d5780820380516001836020036101000a031916815260200191505b50838103825289818151815260200191508051906020019080838360005b8381101561076657808201518184015260208101905061074b565b50505050905090810190601f1680156107935780820380516001836020036101000a031916815260200191505b50995050505050505050505060405180910390f35b61090c600480360360808110156107be57600080fd5b81019080803590602001906401000000008111156107db57600080fd5b8201836020820111156107ed57600080fd5b8035906020019184600183028401116401000000008311171561080f57600080fd5b91908080601f016020809104026020016040519081016040528093929190818152602001838380828437600081840152601f19601f8201169050808301925050505050505091929192908035906020019064010000000081111561087257600080fd5b82018360208201111561088457600080fd5b803590602001918460018302840111640100000000831117156108a657600080fd5b91908080601f016020809104026020016040519081016040528093929190818152602001838380828437600081840152601f19601f820116905080830192505050505050509192919290803590602001909291908035906020019092919050505061227f565b6040518080602001828103825283818151815260200191508051906020019080838360005b8381101561094c578082015181840152602081019050610931565b50505050905090810190601f1680156109795780820380516001836020036101000a031916815260200191505b509250505060405180910390f35b610a4a6004803603604081101561099d57600080fd5b8101908080359060200190929190803590602001906401000000008111156109c457600080fd5b8201836020820111156109d657600080fd5b803590602001918460018302840111640100000000831117156109f857600080fd5b91908080601f016020809104026020016040519081016040528093929190818152602001838380828437600081840152601f19601f82011690508083019250505050505050919291929050505061250c565b005b610b0f60048036036040811015610a6257600080fd5b8101908080359060200190640100000000811115610a7f57600080fd5b820183602082011115610a9157600080fd5b80359060200191846001830284011164010000000083111715610ab357600080fd5b91908080601f016020809104026020016040519081016040528093929190818152602001838380828437600081840152601f19601f82011690508083019250505050505050919291929080359060200190929190505050612c49565b604051808315151515815260200180602001828103825283818151815260200191508051906020019080838360005b83811015610b59578082015181840152602081019050610b3e565b50505050905090810190601f168015610b865780820380516001836020036101000a031916815260200191505b50935050505060405180910390f35b610bcb60048036036040811015610bab57600080fd5b810190808035906020019092919080359060200190929190505050612e3f565b604051808215151515815260200191505060405180910390f35b610bed612e83565b6040518082815260200191505060405180910390f35b610c4360048036036060811015610c1957600080fd5b81019080803590602001909291908035906020019092919080359060200190929190505050612f01565b005b610c7b60048036036040811015610c5b57600080fd5b810190808035906020019092919080359060200190929190505050613187565b6040518082815260200191505060405180910390f35b610deb60048036036060811015610ca757600080fd5b8101908080359060200190640100000000811115610cc457600080fd5b820183602082011115610cd657600080fd5b80359060200191846001830284011164010000000083111715610cf857600080fd5b91908080601f016020809104026020016040519081016040528093929190818152602001838380828437600081840152601f19601f82011690508083019250505050505050919291929080359060200190640100000000811115610d5b57600080fd5b820183602082011115610d6d57600080fd5b80359060200191846001830284011164010000000083111715610d8f57600080fd5b91908080601f016020809104026020016040519081016040528093929190818152602001838380828437600081840152601f19601f820116905080830192505050505050509192919290803590602001909291905050506131d6565b6040518080602001828103825283818151815260200191508051906020019080838360005b83811015610e2b578082015181840152602081019050610e10565b50505050905090810190601f168015610e585780820380516001836020036101000a031916815260200191505b509250505060405180910390f35b611061600480360360a0811015610e7c57600080fd5b8101908080359060200190640100000000811115610e9957600080fd5b820183602082011115610eab57600080fd5b80359060200191846001830284011164010000000083111715610ecd57600080fd5b91908080601f016020809104026020016040519081016040528093929190818152602001838380828437600081840152601f19601f82011690508083019250505050505050919291929080359060200190640100000000811115610f3057600080fd5b820183602082011115610f4257600080fd5b80359060200191846001830284011164010000000083111715610f6457600080fd5b91908080601f016020809104026020016040519081016040528093929190818152602001838380828437600081840152601f19601f820116905080830192505050505050509192919290803590602001909291908035906020019092919080359060200190640100000000811115610fdb57600080fd5b820183602082011115610fed57600080fd5b8035906020019184600183028401116401000000008311171561100f57600080fd5b91908080601f016020809104026020016040519081016040528093929190818152602001838380828437600081840152601f19601f82011690508083019250505050505050919291929050505061345b565b604051808215151515815260200191505060405180910390f35b6110a76004803603602081101561109157600080fd5b81019080803590602001909291905050506138b1565b6040518080602001806020018881526020018781526020018681526020018581526020018415151515815260200183810383528a818151815260200191508051906020019080838360005b8381101561110d5780820151818401526020810190506110f2565b50505050905090810190601f16801561113a5780820380516001836020036101000a031916815260200191505b50838103825289818151815260200191508051906020019080838360005b83811015611173578082015181840152602081019050611158565b50505050905090810190601f1680156111a05780820380516001836020036101000a031916815260200191505b50995050505050505050505060405180910390f35b6111eb600480360360408110156111cb57600080fd5b810190808035906020019092919080359060200190929190505050613aae565b005b6113f2600480360360c081101561120357600080fd5b81019080803590602001909291908035906020019064010000000081111561122a57600080fd5b82018360208201111561123c57600080fd5b8035906020019184600183028401116401000000008311171561125e57600080fd5b91908080601f016020809104026020016040519081016040528093929190818152602001838380828437600081840152601f19601f820116905080830192505050505050509192919290803590602001906401000000008111156112c157600080fd5b8201836020820111156112d357600080fd5b803590602001918460018302840111640100000000831117156112f557600080fd5b91908080601f016020809104026020016040519081016040528093929190818152602001838380828437600081840152601f19601f82011690508083019250505050505050919291929080359060200190929190803590602001909291908035906020019064010000000081111561136c57600080fd5b82018360208201111561137e57600080fd5b803590602001918460018302840111640100000000831117156113a057600080fd5b91908080601f016020809104026020016040519081016040528093929190818152602001838380828437600081840152601f19601f820116905080830192505050505050509192919290505050613c14565b604051808215151515815260200191505060405180910390f35b6114d56004803603604081101561142257600080fd5b810190808035906020019064010000000081111561143f57600080fd5b82018360208201111561145157600080fd5b8035906020019184600183028401116401000000008311171561147357600080fd5b91908080601f016020809104026020016040519081016040528093929190818152602001838380828437600081840152601f19601f820116905080830192505050505050509192919290803563ffffffff1690602001909291905050506141af565b6040518080602001806020018881526020018781526020018681526020018581526020018415151515815260200183810383528a818151815260200191508051906020019080838360005b8381101561153b578082015181840152602081019050611520565b50505050905090810190601f1680156115685780820380516001836020036101000a031916815260200191505b50838103825289818151815260200191508051906020019080838360005b838110156115a1578082015181840152602081019050611586565b50505050905090810190601f1680156115ce5780820380516001836020036101000a031916815260200191505b50995050505050505050505060405180910390f35b600060606014845114611641576040517f08c379a000000000000000000000000000000000000000000000000000000000815260040180806020018281038252602681526020018061486f6026913960400191505060405180910390fd5b60006007856040518082805190602001908083835b602083106116795780518252602082019150602081019050602083039250611656565b6001836020036101000a03801982511681845116808217855250505050505090500191505090815260200160405180910390209050600060046000868152602001908152602001600020905060008090505b826001015481101561180b578160010160006001600086600001600086815260200190815260200160002054815260200190815260200160002060030154815260200190815260200160002060009054906101000a900460ff16156117fe576001806000856000016000858152602001908152602001600020548152602001908152602001600020600101808054600181600116156101000203166002900480601f0160208091040260200160405190810160405280929190818152602001828054600181600116156101000203166002900480156117eb5780601f106117c0576101008083540402835291602001916117eb565b820191906000526020600020905b8154815290600101906020018083116117ce57829003601f168201915b5050505050905094509450505050611825565b80806001019150506116cb565b506000604051806020016040528060008152509350935050505b9250929050565b6003856040518082805190602001908083835b60208310611862578051825260208201915060208101905060208303925061183f565b6001836020036101000a0380198251168184511680821785525050505050509050019150509081526020016040518091039020846040518082805190602001908083835b602083106118c957805182526020820191506020810190506020830392506118a6565b6001836020036101000a03801982511681845116808217855250505050505090500191505090815260200160405180910390206000848152602001908152602001600020600083815260200190815260200160002060009054906101000a900460ff1615611982576040517f08c379a00000000000000000000000000000000000000000000000000000000081526004018080602001828103825260278152602001806148f56027913960400191505060405180910390fd5b60148551146119dc576040517f08c379a000000000000000000000000000000000000000000000000000000000815260040180806020018281038252602681526020018061486f6026913960400191505060405180910390fd5b428211611a34576040517f08c379a000000000000000000000000000000000000000000000000000000000815260040180806020018281038252602381526020018061484c6023913960400191505060405180910390fd5b6000606060008060009054906101000a900473ffffffffffffffffffffffffffffffffffffffff1673ffffffffffffffffffffffffffffffffffffffff166387b97c6387896040518363ffffffff1660e01b81526004018083815260200180602001828103825283818151815260200191508051906020019080838360005b83811015611ace578082015181840152602081019050611ab3565b50505050905090810190601f168015611afb5780820380516001836020036101000a031916815260200191505b50935050505060006040518083038186803b158015611b1957600080fd5b505afa158015611b2d573d6000803e3d6000fd5b505050506040513d6000823e3d601f19601f820116820180604052506060811015611b5757600080fd5b810190808051906020019092919080516040519392919084640100000000821115611b8157600080fd5b83820191506020820185811115611b9757600080fd5b8251866001820283011164010000000082111715611bb457600080fd5b8083526020830192505050908051906020019080838360005b83811015611be8578082015181840152602081019050611bcd565b50505050905090810190601f168015611c155780820380516001836020036101000a031916815260200191505b506040526020018051906020019092919050505080935081945082955050505082611c8b576040517f08c379a00000000000000000000000000000000000000000000000000000000081526004018080602001828103825260608152602001806148956060913960600191505060405180910390fd5b6060611c998989898961227f565b905073__SignatureValidation___________________633f5594ab8287866040518463ffffffff1660e01b815260040180806020018060200180602001848103845287818151815260200191508051906020019080838360005b83811015611d0f578082015181840152602081019050611cf4565b50505050905090810190601f168015611d3c5780820380516001836020036101000a031916815260200191505b50848103835286818151815260200191508051906020019080838360005b83811015611d75578082015181840152602081019050611d5a565b50505050905090810190601f168015611da25780820380516001836020036101000a031916815260200191505b50848103825285818151815260200191508051906020019080838360005b83811015611ddb578082015181840152602081019050611dc0565b50505050905090810190601f168015611e085780820380516001836020036101000a031916815260200191505b50965050505050505060206040518083038186803b158015611e2957600080fd5b505af4158015611e3d573d6000803e3d6000fd5b505050506040513d6020811015611e5357600080fd5b8101908080519060200190929190505050611ed6576040517f08c379a00000000000000000000000000000000000000000000000000000000081526004018080602001828103825260148152602001807f5369676e6174757265206e6f742076616c69642e00000000000000000000000081525060200191505060405180910390fd5b611ee3898989858a6142d5565b505050505050505050565b6000806014845114611f4b576040517f08c379a000000000000000000000000000000000000000000000000000000000815260040180806020018281038252602681526020018061486f6026913960400191505060405180910390fd5b60006006866040518082805190602001908083835b60208310611f835780518252602082019150602081019050602083039250611f60565b6001836020036101000a03801982511681845116808217855250505050505090500191505090815260200160405180910390209050600060046000868152602001908152602001600020905060008090505b8260010154811015612143578160010160006001600086600001600086815260200190815260200160002054815260200190815260200160002060030154815260200190815260200160002060009054906101000a900460ff16801561210d575061210c600160008560000160008581526020019081526020016000205481526020019081526020016000206000018054600181600116156101000203166002900480601f0160208091040260200160405190810160405280929190818152602001828054600181600116156101000203166002900480156120f85780601f106120cd576101008083540402835291602001916120f8565b820191906000526020600020905b8154815290600101906020018083116120db57829003601f168201915b50505050508861462f90919063ffffffff16565b5b156121365760018360000160008381526020019081526020016000205494509450505050612151565b8080600101915050611fd5565b506000808090509350935050505b935093915050565b60608060008060008060008060068a6040518082805190602001908083835b6020831061219b5780518252602082019150602081019050602083039250612178565b6001836020036101000a038019825116818451168082178552505050505050905001915050908152602001604051809103902090508863ffffffff168160010154116122395760008060008060016040518060200160405280600081525094939291906040518060200160405280600081525094939291908460001b94508393508292508160001b9150975097509750975097509750975050612273565b60008160000160008b63ffffffff168152602001908152602001600020549050612262816138b1565b985098509850985098509850985050505b92959891949750929550565b606060148551146122db576040517f08c379a000000000000000000000000000000000000000000000000000000000815260040180806020018281038252602681526020018061486f6026913960400191505060405180910390fd5b606084905060008151905060008160540190506060816040519080825280601f01601f1916602001820160405280156123235781602001600182028038833980820191505090505b50905060008090505b60148110156123945789818151811061234157fe5b602001015160f81c60f81b82828151811061235857fe5b60200101907effffffffffffffffffffffffffffffffffffffffffffffffffffffffffffff1916908160001a905350808060010191505061232c565b5060008090505b83811015612405578481815181106123af57fe5b602001015160f81c60f81b8260148301815181106123c957fe5b60200101907effffffffffffffffffffffffffffffffffffffffffffffffffffffffffffff1916908160001a905350808060010191505061239b565b5060008090505b60208110156124725787816020811061242157fe5b1a60f81b828560148401018151811061243657fe5b60200101907effffffffffffffffffffffffffffffffffffffffffffffffffffffffffffff1916908160001a905350808060010191505061240c565b50606061247e87614656565b905060008090505b81518110156124fb5781818151811061249b57fe5b602001015160f81c60f81b838351602080896014870101010103815181106124bf57fe5b60200101907effffffffffffffffffffffffffffffffffffffffffffffffffffffffffffff1916908160001a9053508080600101915050612486565b508195505050505050949350505050565b60006001600084815260200190815260200160002090506000606060008060009054906101000a900473ffffffffffffffffffffffffffffffffffffffff1673ffffffffffffffffffffffffffffffffffffffff166387b97c638560020154866001016040518363ffffffff1660e01b8152600401808381526020018060200182810382528381815460018160011615610100020316600290048152602001915080546001816001161561010002031660029004801561260d5780601f106125e25761010080835404028352916020019161260d565b820191906000526020600020905b8154815290600101906020018083116125f057829003601f168201915b5050935050505060006040518083038186803b15801561262c57600080fd5b505afa158015612640573d6000803e3d6000fd5b505050506040513d6000823e3d601f19601f82011682018060405250606081101561266a57600080fd5b81019080805190602001909291908051604051939291908464010000000082111561269457600080fd5b838201915060208201858111156126aa57600080fd5b82518660018202830111640100000000821117156126c757600080fd5b8083526020830192505050908051906020019080838360005b838110156126fb5780820151818401526020810190506126e0565b50505050905090810190601f1680156127285780820380516001836020036101000a031916815260200191505b50604052602001805190602001909291905050508093508194508295505050506060612891856000018054600181600116156101000203166002900480601f0160208091040260200160405190810160405280929190818152602001828054600181600116156101000203166002900480156127e55780601f106127ba576101008083540402835291602001916127e5565b820191906000526020600020905b8154815290600101906020018083116127c857829003601f168201915b5050505050866001018054600181600116156101000203166002900480601f0160208091040260200160405190810160405280929190818152602001828054600181600116156101000203166002900480156128825780601f1061285757610100808354040283529160200191612882565b820191906000526020600020905b81548152906001019060200180831161286557829003601f168201915b505050505087600401546131d6565b905073__SignatureValidation___________________633f5594ab8288866040518463ffffffff1660e01b815260040180806020018060200180602001848103845287818151815260200191508051906020019080838360005b838110156129075780820151818401526020810190506128ec565b50505050905090810190601f1680156129345780820380516001836020036101000a031916815260200191505b50848103835286818151815260200191508051906020019080838360005b8381101561296d578082015181840152602081019050612952565b50505050905090810190601f16801561299a5780820380516001836020036101000a031916815260200191505b50848103825285818151815260200191508051906020019080838360005b838110156129d35780820151818401526020810190506129b8565b50505050905090810190601f168015612a005780820380516001836020036101000a031916815260200191505b50965050505050505060206040518083038186803b158015612a2157600080fd5b505af4158015612a35573d6000803e3d6000fd5b505050506040513d6020811015612a4b57600080fd5b8101908080519060200190929190505050612ace576040517f08c379a00000000000000000000000000000000000000000000000000000000081526004018080602001828103825260148152602001807f5369676e6174757265206e6f742076616c69642e00000000000000000000000081525060200191505060405180910390fd5b60018560060160006101000a81548160ff0219169083151502179055507f17deda64734787449cb86fe1419b4f32c37284a5c34f2ef86839de1c52a2826385600001866001018760040154604051808060200180602001848152602001838103835286818154600181600116156101000203166002900481526020019150805460018160011615610100020316600290048015612bac5780601f10612b8157610100808354040283529160200191612bac565b820191906000526020600020905b815481529060010190602001808311612b8f57829003601f168201915b5050838103825285818154600181600116156101000203166002900481526020019150805460018160011615610100020316600290048015612c2f5780601f10612c0457610100808354040283529160200191612c2f565b820191906000526020600020905b815481529060010190602001808311612c1257829003601f168201915b50509550505050505060405180910390a150505050505050565b6000606060006006856040518082805190602001908083835b60208310612c855780518252602082019150602081019050602083039250612c62565b6001836020036101000a03801982511681845116808217855250505050505090500191505090815260200160405180910390209050600060046000868152602001908152602001600020905060008090505b8260010154811015612e1e5760006001600085600001600085815260200190815260200160002054815260200190815260200160002060030154905082600101600082815260200190815260200160002060009054906101000a900460ff1615612e10576001806000866000016000868152602001908152602001600020548152602001908152602001600020600001808054600181600116156101000203166002900480601f016020809104026020016040519081016040528092919081815260200182805460018160011615610100020316600290048015612dfc5780601f10612dd157610100808354040283529160200191612dfc565b820191906000526020600020905b815481529060010190602001808311612ddf57829003601f168201915b505050505090509550955050505050612e38565b508080600101915050612cd7565b506000604051806020016040528060008152509350935050505b9250929050565b60008060046000858152602001908152602001600020905080600101600084815260200190815260200160002060009054906101000a900460ff1691505092915050565b6000806004600060055481526020019081526020016000209050338160030160006101000a81548173ffffffffffffffffffffffffffffffffffffffff021916908373ffffffffffffffffffffffffffffffffffffffff16021790555060008160020181905550600560008154809291906001019190505591505090565b61010160055410612f7a576040517f08c379a00000000000000000000000000000000000000000000000000000000081526004018080602001828103825260198152602001807f526f6f742073746f7265206d656d6f72792069732066756c6c0000000000000081525060200191505060405180910390fd5b60006004600085815260200190815260200160002090503373ffffffffffffffffffffffffffffffffffffffff168160030160009054906101000a900473ffffffffffffffffffffffffffffffffffffffff1673ffffffffffffffffffffffffffffffffffffffff1614612fed57600080fd5b60008390505b8281116131805760008060009054906101000a900473ffffffffffffffffffffffffffffffffffffffff1673ffffffffffffffffffffffffffffffffffffffff16639b63cc2f836040518263ffffffff1660e01b81526004018082815260200191505060206040518083038186803b15801561306e57600080fd5b505afa158015613082573d6000803e3d6000fd5b505050506040513d602081101561309857600080fd5b8101908080519060200190929190505050905082600101600082815260200190815260200160002060009054906101000a900460ff16613172578083600001600085600201548152602001908152602001600020819055508260020160008154809291906001019190505550600183600101600083815260200190815260200160002060006101000a81548160ff0219169083151502179055507f9ae57868fb9e4b6f739b3084cd13fb202633e130f83974d185e73650f6a3537f8682604051808381526020018281526020019250505060405180910390a15b508080600101915050612ff3565b5050505050565b600080600460008581526020019081526020016000209050828160020154116131b6576000801b9150506131d0565b806000016000848152602001908152602001600020549150505b92915050565b60606014845114613232576040517f08c379a000000000000000000000000000000000000000000000000000000000815260040180806020018281038252602681526020018061486f6026913960400191505060405180910390fd5b60608390506000815190506000600882603401019050606061325386614656565b90506060826040519080825280601f01601f19166020018201604052801561328a5781602001600182028038833980820191505090505b50905060008090505b60148110156132fb578981815181106132a857fe5b602001015160f81c60f81b8282815181106132bf57fe5b60200101907effffffffffffffffffffffffffffffffffffffffffffffffffffffffffffff1916908160001a9053508080600101915050613293565b5060008090505b8481101561336c5785818151811061331657fe5b602001015160f81c60f81b82601483018151811061333057fe5b60200101907effffffffffffffffffffffffffffffffffffffffffffffffffffffffffffff1916908160001a9053508080600101915050613302565b5060008090505b82518110156133e65782818151811061338857fe5b602001015160f81c60f81b82845160208860148601010103815181106133aa57fe5b60200101907effffffffffffffffffffffffffffffffffffffffffffffffffffffffffffff1916908160001a9053508080600101915050613373565b5060008090505b600881101561344b5760ff60f81b826020876014850101018151811061340f57fe5b60200101907effffffffffffffffffffffffffffffffffffffffffffffffffffffffffffff1916908160001a90535080806001019150506133ed565b5080955050505050509392505050565b600060148651146134b7576040517f08c379a000000000000000000000000000000000000000000000000000000000815260040180806020018281038252602681526020018061486f6026913960400191505060405180910390fd5b6000606060008060009054906101000a900473ffffffffffffffffffffffffffffffffffffffff1673ffffffffffffffffffffffffffffffffffffffff166387b97c63888a6040518363ffffffff1660e01b81526004018083815260200180602001828103825283818151815260200191508051906020019080838360005b83811015613551578082015181840152602081019050613536565b50505050905090810190601f16801561357e5780820380516001836020036101000a031916815260200191505b50935050505060006040518083038186803b15801561359c57600080fd5b505afa1580156135b0573d6000803e3d6000fd5b505050506040513d6000823e3d601f19601f8201168201806040525060608110156135da57600080fd5b81019080805190602001909291908051604051939291908464010000000082111561360457600080fd5b8382019150602082018581111561361a57600080fd5b825186600182028301116401000000008211171561363757600080fd5b8083526020830192505050908051906020019080838360005b8381101561366b578082015181840152602081019050613650565b50505050905090810190601f1680156136985780820380516001836020036101000a031916815260200191505b5060405260200180519060200190929190505050809350819450829550505050826136c957600093505050506138a8565b60606136d68a8a896131d6565b905073__SignatureValidation___________________633f5594ab8288866040518463ffffffff1660e01b815260040180806020018060200180602001848103845287818151815260200191508051906020019080838360005b8381101561374c578082015181840152602081019050613731565b50505050905090810190601f1680156137795780820380516001836020036101000a031916815260200191505b50848103835286818151815260200191508051906020019080838360005b838110156137b2578082015181840152602081019050613797565b50505050905090810190601f1680156137df5780820380516001836020036101000a031916815260200191505b50848103825285818151815260200191508051906020019080838360005b838110156138185780820151818401526020810190506137fd565b50505050905090810190601f1680156138455780820380516001836020036101000a031916815260200191505b50965050505050505060206040518083038186803b15801561386657600080fd5b505af415801561387a573d6000803e3d6000fd5b505050506040513d602081101561389057600080fd5b81019080805190602001909291905050509450505050505b95945050505050565b60608060008060008060006138c46146e1565b600160008a81526020019081526020016000206040518060e0016040529081600082018054600181600116156101000203166002900480601f01602080910402602001604051908101604052809291908181526020018280546001816001161561010002031660029004801561397b5780601f106139505761010080835404028352916020019161397b565b820191906000526020600020905b81548152906001019060200180831161395e57829003601f168201915b50505050508152602001600182018054600181600116156101000203166002900480601f016020809104026020016040519081016040528092919081815260200182805460018160011615610100020316600290048015613a1d5780601f106139f257610100808354040283529160200191613a1d565b820191906000526020600020905b815481529060010190602001808311613a0057829003601f168201915b50505050508152602001600282015481526020016003820154815260200160048201548152602001600582015481526020016006820160009054906101000a900460ff161515151581525050905080600001518160200151826040015183608001518460a0015185606001518660c00151869650859550975097509750975097509750975050919395979092949650565b60006004600084815260200190815260200160002090503373ffffffffffffffffffffffffffffffffffffffff168160030160009054906101000a900473ffffffffffffffffffffffffffffffffffffffff1673ffffffffffffffffffffffffffffffffffffffff1614613b2157600080fd5b8181600201541115613c0f576000816000016000848152602001908152602001600020549050600082600101600083815260200190815260200160002060006101000a81548160ff0219169083151502179055508160020160008154809291906001900391905055508282600201541415613bb8576000801b82600001600085815260200190815260200160002081905550613c0d565b8160000160008360020154815260200190815260200160002054826000016000858152602001908152602001600020819055506000801b82600001600084600201548152602001908152602001600020819055505b505b505050565b60006014865114613c70576040517f08c379a000000000000000000000000000000000000000000000000000000000815260040180806020018281038252602681526020018061486f6026913960400191505060405180910390fd5b6000606060008060009054906101000a900473ffffffffffffffffffffffffffffffffffffffff1673ffffffffffffffffffffffffffffffffffffffff166387b97c63888a6040518363ffffffff1660e01b81526004018083815260200180602001828103825283818151815260200191508051906020019080838360005b83811015613d0a578082015181840152602081019050613cef565b50505050905090810190601f168015613d375780820380516001836020036101000a031916815260200191505b50935050505060006040518083038186803b158015613d5557600080fd5b505afa158015613d69573d6000803e3d6000fd5b505050506040513d6000823e3d601f19601f820116820180604052506060811015613d9357600080fd5b810190808051906020019092919080516040519392919084640100000000821115613dbd57600080fd5b83820191506020820185811115613dd357600080fd5b8251866001820283011164010000000082111715613df057600080fd5b8083526020830192505050908051906020019080838360005b83811015613e24578082015181840152602081019050613e09565b50505050905090810190601f168015613e515780820380516001836020036101000a031916815260200191505b50604052602001805190602001909291905050508093508194508295505050506000600460008c8152602001908152602001600020600101600089815260200190815260200160002060009054906101000a900460ff1690506060613eb88b8b8b8b61227f565b9050600073__SignatureValidation___________________633f5594ab838a886040518463ffffffff1660e01b815260040180806020018060200180602001848103845287818151815260200191508051906020019080838360005b83811015613f30578082015181840152602081019050613f15565b50505050905090810190601f168015613f5d5780820380516001836020036101000a031916815260200191505b50848103835286818151815260200191508051906020019080838360005b83811015613f96578082015181840152602081019050613f7b565b50505050905090810190601f168015613fc35780820380516001836020036101000a031916815260200191505b50848103825285818151815260200191508051906020019080838360005b83811015613ffc578082015181840152602081019050613fe1565b50505050905090810190601f1680156140295780820380516001836020036101000a031916815260200191505b50965050505050505060206040518083038186803b15801561404a57600080fd5b505af415801561405e573d6000803e3d6000fd5b505050506040513d602081101561407457600080fd5b810190808051906020019092919050505090506000806000806000809054906101000a900473ffffffffffffffffffffffffffffffffffffffff1673ffffffffffffffffffffffffffffffffffffffff1663cab621d98f6040518263ffffffff1660e01b81526004018082815260200191505060806040518083038186803b1580156140ff57600080fd5b505afa158015614113573d6000803e3d6000fd5b505050506040513d608081101561412957600080fd5b8101908080519060200190929190805190602001909291908051906020019092919080519060200190929190505050935093509350935089801561416a5750845b80156141735750865b801561417c5750835b8015614186575082155b8015614190575081155b80156141995750805b9a50505050505050505050509695505050505050565b60608060008060008060008060078a6040518082805190602001908083835b602083106141f157805182526020820191506020810190506020830392506141ce565b6001836020036101000a038019825116818451168082178552505050505050905001915050908152602001604051809103902090508863ffffffff1681600101541161428f5760008060008060016040518060200160405280600081525094939291906040518060200160405280600081525094939291908460001b94508393508292508160001b91509750975097509750975097509750506142c9565b60008160000160008b63ffffffff1681526020019081526020016000205490506142b8816138b1565b985098509850985098509850985050505b92959891949750929550565b601485511461432f576040517f08c379a000000000000000000000000000000000000000000000000000000000815260040180806020018281038252602681526020018061486f6026913960400191505060405180910390fd5b6000600160006002548152602001908152602001600020905085816000019080519060200190614360929190614726565b50848160010190805190602001906143799291906147a6565b5083816002018190555082816003018190555042816005018190555081816004018190555060008160060160006101000a81548160ff02191690831515021790555060006007876040518082805190602001908083835b602083106143f357805182526020820191506020810190506020830392506143d0565b6001836020036101000a03801982511681845116808217855250505050505090500191505090815260200160405180910390209050600254816000016000836001015481526020019081526020016000208190555080600101600081548092919060010191905055506006866040518082805190602001908083835b60208310614492578051825260208201915060208101905060208303925061446f565b6001836020036101000a03801982511681845116808217855250505050505090500191505090815260200160405180910390209050600254816000016000836001015481526020019081526020016000208190555080600101600081548092919060010191905055506002600081548092919060010191905055507fdbd66bf4f89bdca9cbc9e04a756c281a40d2455b4166bbe2f2734fbff130515487878786604051808060200180602001858152602001848152602001838103835287818151815260200191508051906020019080838360005b83811015614582578082015181840152602081019050614567565b50505050905090810190601f1680156145af5780820380516001836020036101000a031916815260200191505b50838103825286818151815260200191508051906020019080838360005b838110156145e85780820151818401526020810190506145cd565b50505050905090810190601f1680156146155780820380516001836020036101000a031916815260200191505b50965050505050505060405180910390a150505050505050565b60008151835114801561464e575061464d836000846000875161469a565b5b905092915050565b606060206040519080825280601f01601f19166020018201604052801561468c5781602001600182028038833980820191505090505b509050816020820152919050565b60006146a78484846146be565b6146b28787856146be565b14905095945050505050565b6000835182840111156146d057600080fd5b818360208601012090509392505050565b6040518060e001604052806060815260200160608152602001600080191681526020016000801916815260200160008152602001600081526020016000151581525090565b828054600181600116156101000203166002900490600052602060002090601f016020900481019282601f1061476757805160ff1916838001178555614795565b82800160010185558215614795579182015b82811115614794578251825591602001919060010190614779565b5b5090506147a29190614826565b5090565b828054600181600116156101000203166002900490600052602060002090601f016020900481019282601f106147e757805160ff1916838001178555614815565b82800160010185558215614815579182015b828111156148145782518255916020019190600101906147f9565b5b5090506148229190614826565b5090565b61484891905b8082111561484457600081600090555060010161482c565b5090565b9056fe54686520656e646f7273656d656e7420697320616c726561647920657870697265642e4163636f756e742061646472657373206d757374206265203230206279746573206c6f6e672e5468652070726f7669646564206365727469666963617465206973206e6f742073746f72656420696e20746865206461746162617365206f7220646f6573206e6f7420636f6e7461696e207468652073706563696669656420646f6d61696e2e456e646f7273656d656e742068617320616c7265616479206265656e207375626d69747465642ea265627a7a72315820f3eb32c410228772f0304a5064a3ef341c554e519e2696ea44410f7abce1e55e64736f6c63430005100032",
  "source": "pragma solidity ^0.5.12;\n\nimport \"./SignatureValidation.sol\";\nimport \"./CertStore.sol\";\nimport \"./BytesUtils.sol\";\n\n/// @title Endorsement Database\n/// @notice Central Database for validating and storing external endorsements\ncontract EndorsementDatabase {\n\tusing BytesUtils for *;\n\n\tevent EndorsementAdded(bytes accountAddress, string domainName, bytes32 certID, uint256 expiration);\n\tevent EndorsementRevoked(bytes accountAddress, string domainName,  uint256 expiration);\n\tevent rootAddedtoStore(uint256 storeIndex, bytes32 fingerprint);\n\n\t/// struct used for accessing enorsements by domain name or account address\n\tstruct EndorsementStore {\n\t\tmapping (uint256 => uint256) endorsements;\n\t\tuint256 count;\n\t}\n\n\t///struct for storing endorsements\n\tstruct Endorsement {\n\t\tbytes accountAddress;\n\t\tstring domainName;\n\t\tbytes32 certID;\n\t\tbytes32 rootID;\n\t\tuint256 expiration;\n\t\tuint256 addedAt;\n\t\tbool revoked;\n\t}\n\n\t/// struct for storing and maintaing root stores\n\tstruct RootStore {\n\t\tmapping (uint256 => bytes32) roots;\n\t\tmapping (bytes32 => bool) contained;\n\t\tuint256 count;\n\t\taddress owner;\n\t}\n\n\t/// @notice Contract that is referenced for the retrieval of X.509 certificates\n\tCertificateStore private cs;\n\n\t/// @notice Mapping that stores all submitted valid endorsements\n\tmapping (uint256 => Endorsement) private endorsements;\n\t/// @notice Counter for number of submitted endorsements\n\tuint256 private endorsementCounter = 0;\n\tmapping (bytes => mapping (string => mapping(bytes32 => mapping (uint256 => bool)))) private submitted;\n\n\t/// @notice Mapping that stores all initialized root stores\n\tmapping (uint256 => RootStore) private rootStores;\n\t/// @notice Counter for the number of initialized root stores\n\tuint256 private rootStoreCount = 0;\n\n\t/// @notice Mapping for retrieving endorsement stores by domain\n\tmapping (string => EndorsementStore) private endorsementsByDomain;\n\t/// @notice Mapping for retrieving endorsement stores by account address\n\tmapping (bytes => EndorsementStore) private endorsementsByAddress;\n\n\t/// @notice Deploy endorsement database with reference to a certificate database\n\t/// @dev Deploy endorsement database, pass address of cert database as argument\n\t/// @param certStore address of referenced certificate database\n\tconstructor (address certStore) public{\n\t\tcs = CertificateStore(certStore);\n\t}\n\n\t/// @notice Submit an endorsement to the database\n\t/// @dev Validates and stores a submitted valid endorsement\n\t/// @param accountAddress address of account to be endorsed\n\t/// @param domainName address of domain name to be endorsed\n\t/// @param certID identifier of the certificate used for signing the endorsement\n\t/// @param expiration expiration date of the endorsement\n\t/// @param signature signature confirming the endorsement\n\tfunction submitEndorsement(bytes memory accountAddress, string memory domainName, bytes32 certID, uint256 expiration, bytes memory signature) public {\n\t\trequire(!submitted[accountAddress][domainName][certID][expiration],\n\t\t\t\"Endorsement has already been submitted.\");\n\t\trequire(accountAddress.length == 20, \"Account address must be 20 bytes long.\");\n\t\trequire(expiration > now, \"The endorsement is already expired.\");\n\n\t\t//retrieve relevant information from the certificate database\n\t\tbool validCert;\n\t\tbytes memory pubKey;\n\t\tbytes32 rootID;\n\t\t(validCert, pubKey, rootID) = cs.getPublicKeyAndRoot(certID, domainName);\n\t\trequire(validCert,\n\t\t\t\"The provided certificate is not stored in the database or does not contain the specified domain.\");\n\n\t\t//validate the endorsement signature\n\t\tbytes memory message = getPreEndorsement(accountAddress, domainName, certID, expiration);\n\t\trequire(SignatureValidation.validateRSASHA256Signature(message, signature, pubKey), \"Signature not valid.\");\n\n\t\t//store endorsement\n\t\taddEndorsement(accountAddress, domainName, certID, rootID, expiration);\n\n\t}\n\n\t/// @notice Revoke an endorsement stored in the database\n\t/// @dev Validates the revocation of an endorsement and revokes the endorsement if it is valid\n\t/// @param index Position of the endorsement in 'endorsements'\n\t/// @param signature Signature confirming the revocation, created with the private key used for the inital endorsement creation\n\tfunction revokeEndorsement(uint256 index, bytes memory signature) public {\n\t\tEndorsement storage e = endorsements[index];\n\t\tbool validCert;\n\t\tbytes memory pubKey;\n\t\tbytes32 rootID;\n\t\t(validCert, pubKey, rootID) = cs.getPublicKeyAndRoot(e.certID, e.domainName);\n\t\tbytes memory message = getPreRevocation(e.accountAddress, e.domainName, e.expiration);\n\t\trequire(SignatureValidation.validateRSASHA256Signature(message, signature, pubKey), \"Signature not valid.\");\n\t\te.revoked = true;\n\t\temit EndorsementRevoked(e.accountAddress, e.domainName, e.expiration);\n\t}\n\n\t/// @notice Initialize a new root store\n\t/// @dev Initialize a new root store, message sender becomes its owner\n\t/// @return The index of the new store in 'endorsements'\n\tfunction initializeRootStore() public returns (uint256) {\n\t\tRootStore storage store = rootStores[rootStoreCount];\n\t\tstore.owner = msg.sender;\n\t\tstore.count = 0;\n\t\treturn rootStoreCount ++;\n\t}\n\n\t/// @notice Add new roots to a root store\n\t/// @dev Add roots to store, can be a range of roots determined by the indices in 'trustAnchors' in 'cs'\n\t/// @dev !!! currently no checks in place that confirm existence of a root !!!\n\t/// @param storeIndex Index of the concerned store in 'rootStores'\n\t/// @param startIndex Index of the first root to add\n\t/// @param endIndex Index of the last root to add\n\tfunction addRootstoStore(uint256 storeIndex, uint256 startIndex, uint256 endIndex) public {\n\t\trequire(rootStoreCount < (2^256) -1, \"Root store memory is full\");\n\t\tRootStore storage store = rootStores[storeIndex];\n\t\trequire(store.owner == msg.sender);\n\n\t\t//retrieve the root indices on-by-one from 'cs' and add them to the store\n\t\tfor (uint256 i = startIndex; i <= endIndex; i++){\n\t\t\tbytes32 rootFingerprint = cs.getRootFingerprint(i);\n\t\t\tif (!store.contained[rootFingerprint]){\n\t\t\t\tstore.roots[store.count] = rootFingerprint;\n\t\t\t\tstore.count++;\n\t\t\t\tstore.contained[rootFingerprint] = true;\n\t\t\t\temit rootAddedtoStore(storeIndex, rootFingerprint);\n\t\t\t}\n\n\t\t}\n\t}\n\n\t/// @notice Remove a root identifier from a root store\n\t/// @dev Remove root from store, can only be performed by root store owner\n\t/// @param storeIndex Index of the root store in 'rootStores'\n\t/// @param rootIndex Index of the root in 'roots' in the respective root store\n\tfunction removeRootFromStore(uint256 storeIndex, uint256 rootIndex) public {\n\t\tRootStore storage store = rootStores[storeIndex];\n\t\trequire(store.owner == msg.sender);\n\n\t\tif (store.count > rootIndex){\n\t\t\t//remove the root\n\t\t\tbytes32 rootFingerprint = store.roots[rootIndex];\n\t\t\tstore.contained[rootFingerprint] = false;\n\t\t\tstore.count--;\n\t\t\t//fill the empty position in 'roots' either with 0 or the last item\n\t\t\tif (store.count == rootIndex){\n\t\t\t\tstore.roots[rootIndex] = 0;\n\t\t\t} else {\n\t\t\t\tstore.roots[rootIndex] = store.roots[store.count];\n\t\t\t\tstore.roots[store.count] = 0;\n\t\t\t}\n\t\t}\n\t}\n\n\t/// @notice Utility function for verifying an internal endorsement\n\t/// @dev Validation of endorsements that are not stored in the database\n \t/// @param rootStore Index of the root store in 'rootStores' that is validated against\n \t/// @param account Address of the endorsed account\n \t/// @param domainName Endorsed domain name\n \t/// @param certID Identifier of the certificate used for the endorsement creation\n \t/// @param expiration Expiration data of the endorsement\n  /// @param signature Signature confirming the endorsement\n\t/// @return true if the endorsement is valid, false otherwise\n\tfunction verifyInternalEndorsement(uint256 rootStore, bytes memory account, string memory domainName,\n\t\tbytes32 certID, uint256 expiration, bytes memory signature) public view returns (bool){\n\t\trequire(account.length == 20, \"Account address must be 20 bytes long.\");\n\t\tbool validCert;\n\t\tbytes memory pubKey;\n\t\tbytes32 rootID;\n\n\t\t(validCert, pubKey, rootID) = cs.getPublicKeyAndRoot(certID, domainName);\n\t\tbool acceptedRoot = rootStores[rootStore].contained[certID];\n\t\tbytes memory message = getPreEndorsement(account, domainName, certID, expiration);\n\t\tbool validSignature = SignatureValidation.validateRSASHA256Signature(message, signature, pubKey);\n\t\t(bool contained, bool expired, bool revoked, bool validChain) = cs.getCertificateStatus(certID);\n\t\treturn validCert && validSignature && acceptedRoot && contained && !expired && !revoked && validChain;\n\t}\n\n\n\t/// @notice Utility function for verifying the revocation an internal endorsement\n\t/// @dev Validation of the revocation endorsements that are not stored in the database\n\t/// @param account Address of the endorsed account\n\t/// @param domain endorsed domain name\n\t/// @param certID Identifier of the certificate used for the endorsement creation\n\t/// @param expiration Expiration data of the endorsement\n\t/// @param signature Signature confirming the revocation\n\t/// @return true if revocation is valid, false if otherwise\n\tfunction verifyInternalEndorsementRevocation(bytes memory account, string memory domain, bytes32 certID,\n\t\tuint256 expiration, bytes memory signature) public view returns(bool){\n\t\trequire(account.length == 20, \"Account address must be 20 bytes long.\");\n\t\tbool validCert;\n\t\tbytes memory pubKey;\n\t\tbytes32 rootID;\n\t\t(validCert, pubKey, rootID) = cs.getPublicKeyAndRoot(certID, domain);\n\t\tif (!validCert){\n\t\t\treturn false;\n\t\t}\n\t\tbytes memory message = getPreRevocation(account, domain, expiration);\n\t\treturn SignatureValidation.validateRSASHA256Signature(message, signature, pubKey);\n\t}\n\n\t/// @notice Get Endorsement by its position index\n\t/// @dev Get Endorsement by its position in 'endorsements'\n\t/// @param index Position of the endorsement in 'endorsements'\n\t/// @return account address, domain name, certificate identifer, expiration, date of submission, root identifer, revoked\n\tfunction getEndorsement(uint256 index) public view returns (bytes memory, string memory, bytes32,\n\t\t uint256, uint256, bytes32, bool){\n\t\tEndorsement memory e = endorsements[index];\n\t\treturn (e.accountAddress, e.domainName, e.certID, e.expiration, e.addedAt, e.rootID, e.revoked );\n\t}\n\n\t/// @notice Get an endorsement by its account address and position in its repective account-address store\n\t/// @dev Get an endorsement by its account address and position in its repective account-address store\n\t/// @param account Account address of the endorsement\n\t/// @param index Position in its repective account-address store\n\t/// @return account address, domain name, certificate identifer, expiration, date of submission, root identifer, revoked\n\tfunction getEndorsementByAddress(bytes memory account, uint32 index) public view returns (bytes memory,\n\t\tstring memory, bytes32, uint256, uint256, bytes32, bool){\n\t\tEndorsementStore storage store = endorsementsByAddress[account];\n\t\tif (store.count <= index){\n\t\t\treturn (hex\"\", \"\", 0, 0, 0,0, true);\n\t\t}\n\t\tuint256 offset = store.endorsements[index];\n\t\treturn getEndorsement(offset);\n\t}\n\n\t/// @notice Get an endorsement by its domain and position in its repective domain store\n\t/// @dev Get an endorsement by its domain and position in its repective domain store\n\t/// @param domain Domain name of the endorsement\n\t/// @param index Position in its repective domain store\n\t/// @return account address, domain name, certificate identifer, expiration, date of submission, root identifer, revoked\n\tfunction getEndorsementByDomain(string memory domain, uint32 index) public view returns (bytes memory,\n\t\tstring memory, bytes32,  uint256, uint256, bytes32, bool){\n\t\tEndorsementStore storage store = endorsementsByDomain[domain];\n\t\tif (store.count <= index){\n\t\t\treturn (hex\"\", \"\", 0, 0, 0,0, true);\n\t\t}\n\t\tuint256 offset = store.endorsements[index];\n\t\treturn getEndorsement(offset);\n\t}\n\n\t/// @notice Get a trusted account address that is linked to 'domain'\n\t/// @dev Get an account address that is linked to 'domain' and stems from a trusted root\n\t/// @param domain Domain name looked for\n\t/// @param rootStoreIndex Index of trusted root store\n\t/// @return if valid endorsement found: (true, account address), otherwise (false, 0x)\n\tfunction getAccountByDomain(string memory domain, uint256 rootStoreIndex) public view returns (bool,\n\t\tbytes memory) {\n\t\t// retrieve the endorsement store responsible and the root store\n\t\tEndorsementStore storage endStore = endorsementsByDomain[domain];\n\t\tRootStore  storage rs = rootStores[rootStoreIndex];\n\t\t//return the first endorsement that is trusted\n\t\tfor (uint i = 0; i < endStore.count; i++){\n\t\t\tbytes32 root = endorsements[endStore.endorsements[i]].rootID;\n\t\t\tif (rs.contained[root]){\n\t\t\t\treturn (true, endorsements[endStore.endorsements[i]].accountAddress);\n\t\t\t}\n\t\t}\n\t\treturn (false, hex\"\");\n\t}\n\n\t/// @notice Get a trusted domain name that is linked to 'account'\n\t/// @dev Get a domain name that is linked to 'account' and stems from a trusted root\n\t/// @param account Account address looked for\n\t/// @param rootStoreIndex Index of trusted root store\n\t/// @return if valid endorsement found: (true, domain name), otherwise (false, \"\")\n\tfunction getDomainByAccount(bytes memory account, uint256 rootStoreIndex) public view returns (bool,\n\t\tstring memory) {\n\t\trequire(account.length == 20, \"Account address must be 20 bytes long.\");\n\t\t// retrieve the endorsement store responsible and the root store\n\t\tEndorsementStore storage store = endorsementsByAddress[account];\n\t\tRootStore  storage rootStore = rootStores[rootStoreIndex];\n\t\t//return the first endorsement that is trusted\n\t\tfor (uint i = 0; i < store.count; i++){\n\t\t\tif (rootStore.contained[endorsements[store.endorsements[i]].rootID]){\n\t\t\t\treturn (true, endorsements[store.endorsements[i]].domainName);\n\t\t\t}\n\t\t}\n\t\treturn (false, \"\");\n\t}\n\n\t/// @notice Get a trusted endorsement linking a domain and an account\n\t/// @dev Get a links 'domain' and 'account' and stems from a trusted root\n\t/// @param domain Domain name\n\t/// @param account Account address\n\t/// @param rootStoreIndex Index of the trusted root store\n\t/// @return true if found /false if not, index in 'endorsements'\n\tfunction getEndorsementByDomainAndAccount(string memory domain, bytes memory account,\n\t\tuint256 rootStoreIndex) public view returns (bool, uint256){\n\t\trequire(account.length == 20, \"Account address must be 20 bytes long.\");\n\t\t// retrieve the domain endorsement store responsible and the root store\n\t\tEndorsementStore storage store = endorsementsByDomain[domain];\n\t\tRootStore  storage rootStore = rootStores[rootStoreIndex];\n\t\t//retrurn the first endorsement that is trusted and is for 'account'\n\t\tfor(uint i = 0; i < store.count; i++){\n\t\t\tif (rootStore.contained[endorsements[store.endorsements[i]].rootID]\n\t\t\t\t&& account.equals(endorsements[store.endorsements[i]].accountAddress)){\n\t\t\t\treturn (true, store.endorsements[i]);\n\t\t\t}\n\t\t}\n\t\treturn (false, 0);\n\t}\n\n\t/// @notice Check if a root store contains a certain root\n\t/// @dev Check if a root store contains a certain root identifier\n\t/// @param store Index of the store in 'rootStores'\n\t/// @param rootID Identifier of the root being checked\n\t/// @return true if contained, false otherwise\n\tfunction containsFingerprint(uint256 store, bytes32 rootID) public view returns (bool){\n\t\tRootStore storage rs = rootStores[store];\n\t\treturn rs.contained[rootID];\n\t}\n\n\t/// @notice Get the root at a certain position in a root store\n\t/// @dev Get the identifer of the root at position 'index' in root store at position 'store'\n\t/// @param store Position of the root store in 'rootStores'\n\t/// @param index Position of the root in the root store\n\t/// @return Roout identifer if found, 0 otherwise\n\tfunction getRootAt(uint256 store, uint256 index) public view returns (bytes32) {\n\t\tRootStore storage rs = rootStores[store];\n\t\tif (rs.count <= index){\n\t\t\treturn 0;\n\t\t}\n\t\treturn rs.roots[index];\n\t}\n\n\t/// @notice Get the bytes string that needs to be signed for creating an endorsement\n\t/// @dev Produces the concatenation of the input variables\n\t/// @param accountAddress Account address to be endorsed\n\t/// @param domainName Domain name to be endorsed\n\t/// @param certificateID Identifier of the certificate that is used to create the endorsement\n\t/// @param expiration Expiration date of the endorsement\n\t/// @return The pre-endorsement byte string\n\tfunction getPreEndorsement(bytes memory accountAddress, string memory domainName, bytes32 certificateID,\n\t\tuint256 expiration) public pure returns (bytes memory){\n\t\trequire(accountAddress.length == 20, \"Account address must be 20 bytes long.\");\n\t\t//convert everything to bytes and get the lengths of each field\n\t\tbytes memory domainBytes = bytes(domainName);\n\t\tuint domainlength = domainBytes.length;\n\t\tuint bufferLength = 20 + 32+ 32 + domainlength;\n\n\n\t\tbytes memory buffer = new bytes(bufferLength);\n\t\t// add the account address\n\t\tfor (uint i = 0; i < 20; i++){\n\t\t\tbuffer[i] = accountAddress[i];\n\t\t}\n\t\t//add the domain name\n\t\tfor (uint i = 0; i < domainlength; i++){\n\t\t\tbuffer[i + 20] = domainBytes[i];\n\t\t}\n\t\t// add the certificate identifier\n\t\tfor (uint i = 0; i < 32; i++){\n\t\t\tbuffer[i  + 20 + domainlength] = certificateID[i];\n\t\t}\n\t\t//add the expration date\n\t\tbytes memory expirationBytes = toBytes(expiration);\n\t\tfor (uint i = 0; i < expirationBytes.length; i++){\n\t\t\tbuffer[i + 20 + domainlength + 32 + 32 - expirationBytes.length] = expirationBytes[i ];\n\t\t}\n\t\treturn buffer;\n\n\t}\n\n\t/// @notice  Get the bytes string that needs to be signed for revoking an endorsement\n\t/// @dev  Produces the concatenation of the input variables\n\t/// @param accountAddress accountAddress Account address to be revoked\n\t/// @param domainName Domain name to be revoked\n\t/// @param expiration Expiration date of the endorsement\n\t/// @return The pre-revocation byte string\n\tfunction getPreRevocation(bytes memory accountAddress, string memory domainName, uint256 expiration)\n\t\tpublic pure returns (bytes memory){\n\t\trequire(accountAddress.length == 20, \"Account address must be 20 bytes long.\");\n\t\t//convert everything to bytes and get the lengths of each field\n\t\tbytes memory domainBytes = bytes(domainName);\n\t\tuint domainlength = domainBytes.length;\n\t\tuint bufferLength = 20 + 32 +  domainlength + 8;\n\t\tbytes memory expirationBytes = toBytes(expiration);\n\n\t\tbytes memory buffer = new bytes(bufferLength);\n\t\t// add the account address\n\t\tfor (uint i = 0; i < 20; i++){\n\t\t\tbuffer[i] = accountAddress[i];\n\t\t}\n\t\t//add the domain name\n\t\tfor (uint i = 0; i < domainlength; i++){\n\t\t\tbuffer[i + 20] = domainBytes[i];\n\t\t}\n\t\t//add the expration date\n\t\tfor (uint i = 0; i < expirationBytes.length; i++){\n\t\t\tbuffer[i + 20 + domainlength + 32 - expirationBytes.length] = expirationBytes[i ];\n\t\t}\n\t\t//add the revocation flag\n\t\tfor (uint i = 0; i < 8; i++){\n\t\t\tbuffer[i + 20 + domainlength + 32] = 0xFF;\n\t\t}\n\t\treturn buffer;\n\t}\n\n\n\t/// @notice Store a new valid endorsement in the database\n\t/// @dev Add a new endorsement to 'endorsements' and the respective endorsement stores\n\t/// @param accountAddress Account address of the endorsement\n\t/// @param domainName Domain name of endorsement\n\t/// @param certID Identifier of certificate used to create endorsement\n\t/// @param rootID Identifier of root of the endorsement\n\t/// @param expiration Expiration date of the endorsement\n\tfunction addEndorsement(bytes memory accountAddress, string memory domainName, bytes32 certID,\n\t\tbytes32 rootID, uint256 expiration) private {\n\t\trequire(accountAddress.length == 20, \"Account address must be 20 bytes long.\");\n\t\tEndorsement storage e = endorsements[endorsementCounter];\n\t\te.accountAddress = accountAddress;\n\t\te.domainName = domainName;\n\t\te.certID = certID;\n\t\te.rootID = rootID;\n\t\te.addedAt = now;\n\t\te.expiration = expiration;\n\t\te.revoked = false;\n\n\t\t//add endorsement to its account endorsement store\n\t\tEndorsementStore storage endorsementStore = endorsementsByAddress[accountAddress];\n\t\tendorsementStore.endorsements[endorsementStore.count] = endorsementCounter;\n\t\tendorsementStore.count++;\n\n\t\t//add endorsement to its domain endorsement store\n\t\tendorsementStore = endorsementsByDomain[domainName];\n\t\tendorsementStore.endorsements[endorsementStore.count] = endorsementCounter;\n\t\tendorsementStore.count++;\n\n\t\tendorsementCounter++;\n\t\temit EndorsementAdded(accountAddress, domainName, certID, expiration);\n\t}\n\n\t/// @dev Get the bytes representation of an unsigned integer\n\t/// @param x integer to be converted\n\t/// @return integer value represented in bytes\n\tfunction toBytes(uint256 x) private pure returns (bytes memory b) {\n\t\tb = new bytes(32);\n\t\tassembly { mstore(add(b, 32), x)}\n\t}\n}\n",
  "sourcePath": "/home/friederike/tls-certificates-for-etherum/implementation/contracts/EndorsementStore.sol",
  "compiler": {
    "name": "solc",
    "version": "0.5.16+commit.9c3226ce.Emscripten.clang"
  },
  "schemaVersion": "3.0.22",
  "updatedAt": "2020-05-24T18:16:52.682Z",
  "devdoc": {
    "methods": {
      "addRootstoStore(uint256,uint256,uint256)": {
        "details": "Add roots to store, can be a range of roots determined by the indices in 'trustAnchors' in 'cs'!!! currently no checks in place that confirm existence of a root !!!",
        "params": {
          "endIndex": "Index of the last root to add",
          "startIndex": "Index of the first root to add",
          "storeIndex": "Index of the concerned store in 'rootStores'"
        }
      },
      "constructor": {
        "details": "Deploy endorsement database, pass address of cert database as argument",
        "params": {
          "certStore": "address of referenced certificate database"
        }
      },
      "containsFingerprint(uint256,bytes32)": {
        "details": "Check if a root store contains a certain root identifier",
        "params": {
          "rootID": "Identifier of the root being checked",
          "store": "Index of the store in 'rootStores'"
        },
        "return": "true if contained, false otherwise"
      },
      "getAccountByDomain(string,uint256)": {
        "details": "Get an account address that is linked to 'domain' and stems from a trusted root",
        "params": {
          "domain": "Domain name looked for",
          "rootStoreIndex": "Index of trusted root store"
        },
        "return": "if valid endorsement found: (true, account address), otherwise (false, 0x)"
      },
      "getDomainByAccount(bytes,uint256)": {
        "details": "Get a domain name that is linked to 'account' and stems from a trusted root",
        "params": {
          "account": "Account address looked for",
          "rootStoreIndex": "Index of trusted root store"
        },
        "return": "if valid endorsement found: (true, domain name), otherwise (false, \"\")"
      },
      "getEndorsement(uint256)": {
        "details": "Get Endorsement by its position in 'endorsements'",
        "params": {
          "index": "Position of the endorsement in 'endorsements'"
        },
        "return": "account address, domain name, certificate identifer, expiration, date of submission, root identifer, revoked"
      },
      "getEndorsementByAddress(bytes,uint32)": {
        "details": "Get an endorsement by its account address and position in its repective account-address store",
        "params": {
          "account": "Account address of the endorsement",
          "index": "Position in its repective account-address store"
        },
        "return": "account address, domain name, certificate identifer, expiration, date of submission, root identifer, revoked"
      },
      "getEndorsementByDomain(string,uint32)": {
        "details": "Get an endorsement by its domain and position in its repective domain store",
        "params": {
          "domain": "Domain name of the endorsement",
          "index": "Position in its repective domain store"
        },
        "return": "account address, domain name, certificate identifer, expiration, date of submission, root identifer, revoked"
      },
      "getEndorsementByDomainAndAccount(string,bytes,uint256)": {
        "details": "Get a links 'domain' and 'account' and stems from a trusted root",
        "params": {
          "account": "Account address",
          "domain": "Domain name",
          "rootStoreIndex": "Index of the trusted root store"
        },
        "return": "true if found /false if not, index in 'endorsements'"
      },
      "getPreEndorsement(bytes,string,bytes32,uint256)": {
        "details": "Produces the concatenation of the input variables",
        "params": {
          "accountAddress": "Account address to be endorsed",
          "certificateID": "Identifier of the certificate that is used to create the endorsement",
          "domainName": "Domain name to be endorsed",
          "expiration": "Expiration date of the endorsement"
        },
        "return": "The pre-endorsement byte string"
      },
      "getPreRevocation(bytes,string,uint256)": {
        "details": "Produces the concatenation of the input variables",
        "params": {
          "accountAddress": "accountAddress Account address to be revoked",
          "domainName": "Domain name to be revoked",
          "expiration": "Expiration date of the endorsement"
        },
        "return": "The pre-revocation byte string"
      },
      "getRootAt(uint256,uint256)": {
        "details": "Get the identifer of the root at position 'index' in root store at position 'store'",
        "params": {
          "index": "Position of the root in the root store",
          "store": "Position of the root store in 'rootStores'"
        },
        "return": "Roout identifer if found, 0 otherwise"
      },
      "initializeRootStore()": {
        "details": "Initialize a new root store, message sender becomes its owner",
        "return": "The index of the new store in 'endorsements'"
      },
      "removeRootFromStore(uint256,uint256)": {
        "details": "Remove root from store, can only be performed by root store owner",
        "params": {
          "rootIndex": "Index of the root in 'roots' in the respective root store",
          "storeIndex": "Index of the root store in 'rootStores'"
        }
      },
      "revokeEndorsement(uint256,bytes)": {
        "details": "Validates the revocation of an endorsement and revokes the endorsement if it is valid",
        "params": {
          "index": "Position of the endorsement in 'endorsements'",
          "signature": "Signature confirming the revocation, created with the private key used for the inital endorsement creation"
        }
      },
      "submitEndorsement(bytes,string,bytes32,uint256,bytes)": {
        "details": "Validates and stores a submitted valid endorsement",
        "params": {
          "accountAddress": "address of account to be endorsed",
          "certID": "identifier of the certificate used for signing the endorsement",
          "domainName": "address of domain name to be endorsed",
          "expiration": "expiration date of the endorsement",
          "signature": "signature confirming the endorsement"
        }
      },
      "verifyInternalEndorsement(uint256,bytes,string,bytes32,uint256,bytes)": {
        "details": "Validation of endorsements that are not stored in the database",
        "params": {
          "account": "Address of the endorsed account",
          "certID": "Identifier of the certificate used for the endorsement creation",
          "domainName": "Endorsed domain name",
          "expiration": "Expiration data of the endorsement",
          "rootStore": "Index of the root store in 'rootStores' that is validated against",
          "signature": "Signature confirming the endorsement"
        },
        "return": "true if the endorsement is valid, false otherwise"
      },
      "verifyInternalEndorsementRevocation(bytes,string,bytes32,uint256,bytes)": {
        "details": "Validation of the revocation endorsements that are not stored in the database",
        "params": {
          "account": "Address of the endorsed account",
          "certID": "Identifier of the certificate used for the endorsement creation",
          "domain": "endorsed domain name",
          "expiration": "Expiration data of the endorsement",
          "signature": "Signature confirming the revocation"
        },
        "return": "true if revocation is valid, false if otherwise"
      }
    },
    "title": "Endorsement Database"
  },
  "userdoc": {
    "methods": {
      "addRootstoStore(uint256,uint256,uint256)": {
        "notice": "Add new roots to a root store"
      },
      "constructor": "Deploy endorsement database with reference to a certificate database",
      "containsFingerprint(uint256,bytes32)": {
        "notice": "Check if a root store contains a certain root"
      },
      "getAccountByDomain(string,uint256)": {
        "notice": "Get a trusted account address that is linked to 'domain'"
      },
      "getDomainByAccount(bytes,uint256)": {
        "notice": "Get a trusted domain name that is linked to 'account'"
      },
      "getEndorsement(uint256)": {
        "notice": "Get Endorsement by its position index"
      },
      "getEndorsementByAddress(bytes,uint32)": {
        "notice": "Get an endorsement by its account address and position in its repective account-address store"
      },
      "getEndorsementByDomain(string,uint32)": {
        "notice": "Get an endorsement by its domain and position in its repective domain store"
      },
      "getEndorsementByDomainAndAccount(string,bytes,uint256)": {
        "notice": "Get a trusted endorsement linking a domain and an account"
      },
      "getPreEndorsement(bytes,string,bytes32,uint256)": {
        "notice": "Get the bytes string that needs to be signed for creating an endorsement"
      },
      "getPreRevocation(bytes,string,uint256)": {
        "notice": "Get the bytes string that needs to be signed for revoking an endorsement"
      },
      "getRootAt(uint256,uint256)": {
        "notice": "Get the root at a certain position in a root store"
      },
      "initializeRootStore()": {
        "notice": "Initialize a new root store"
      },
      "removeRootFromStore(uint256,uint256)": {
        "notice": "Remove a root identifier from a root store"
      },
      "revokeEndorsement(uint256,bytes)": {
        "notice": "Revoke an endorsement stored in the database"
      },
      "submitEndorsement(bytes,string,bytes32,uint256,bytes)": {
        "notice": "Submit an endorsement to the database"
      },
      "verifyInternalEndorsement(uint256,bytes,string,bytes32,uint256,bytes)": {
        "notice": "Utility function for verifying an internal endorsement"
      },
      "verifyInternalEndorsementRevocation(bytes,string,bytes32,uint256,bytes)": {
        "notice": "Utility function for verifying the revocation an internal endorsement"
      }
    },
    "notice": "Central Database for validating and storing external endorsements"
  }
}