{
  "contractName": "InternallyEndorsed",
  "abi": [
    {
      "inputs": [
        {
          "internalType": "address",
          "name": "endorsementDatabase",
          "type": "address"
        }
      ],
      "payable": false,
      "stateMutability": "nonpayable",
      "type": "constructor"
    },
    {
      "constant": false,
      "inputs": [
        {
          "internalType": "address",
          "name": "newOwner",
          "type": "address"
        }
      ],
      "name": "transferOwnership",
      "outputs": [],
      "payable": false,
      "stateMutability": "nonpayable",
      "type": "function"
    },
    {
      "constant": false,
      "inputs": [
        {
          "internalType": "bytes",
          "name": "_signature",
          "type": "bytes"
        },
        {
          "internalType": "string",
          "name": "_domain",
          "type": "string"
        },
        {
          "internalType": "bytes32",
          "name": "_certID",
          "type": "bytes32"
        },
        {
          "internalType": "uint256",
          "name": "_expiration",
          "type": "uint256"
        }
      ],
      "name": "updateEndorsement",
      "outputs": [],
      "payable": false,
      "stateMutability": "nonpayable",
      "type": "function"
    },
    {
      "constant": false,
      "inputs": [
        {
          "internalType": "bytes",
          "name": "_signature",
          "type": "bytes"
        },
        {
          "internalType": "string",
          "name": "_domain",
          "type": "string"
        },
        {
          "internalType": "bytes32",
          "name": "_certID",
          "type": "bytes32"
        },
        {
          "internalType": "uint256",
          "name": "_expiration",
          "type": "uint256"
        }
      ],
      "name": "revokeEndorsement",
      "outputs": [],
      "payable": false,
      "stateMutability": "nonpayable",
      "type": "function"
    },
    {
      "constant": true,
      "inputs": [],
      "name": "getEndorsement",
      "outputs": [
        {
          "internalType": "bytes",
          "name": "",
          "type": "bytes"
        },
        {
          "internalType": "string",
          "name": "",
          "type": "string"
        },
        {
          "internalType": "bytes32",
          "name": "",
          "type": "bytes32"
        },
        {
          "internalType": "uint256",
          "name": "",
          "type": "uint256"
        }
      ],
      "payable": false,
      "stateMutability": "view",
      "type": "function"
    },
    {
      "constant": true,
      "inputs": [
        {
          "internalType": "string",
          "name": "_domain",
          "type": "string"
        },
        {
          "internalType": "bytes32",
          "name": "_certID",
          "type": "bytes32"
        },
        {
          "internalType": "uint256",
          "name": "_expiration",
          "type": "uint256"
        }
      ],
      "name": "getRevokedStatus",
      "outputs": [
        {
          "internalType": "bool",
          "name": "",
          "type": "bool"
        }
      ],
      "payable": false,
      "stateMutability": "view",
      "type": "function"
    },
    {
      "constant": true,
      "inputs": [],
      "name": "getCurrentRevoked",
      "outputs": [
        {
          "internalType": "bool",
          "name": "",
          "type": "bool"
        }
      ],
      "payable": false,
      "stateMutability": "view",
      "type": "function"
    }
  ],
  "bytecode": "0x608060405234801561001057600080fd5b50604051610fe8380380610fe88339818101604052602081101561003357600080fd5b8101908080519060200190929190505050336000806101000a81548173ffffffffffffffffffffffffffffffffffffffff021916908373ffffffffffffffffffffffffffffffffffffffff16021790555080600760006101000a81548173ffffffffffffffffffffffffffffffffffffffff021916908373ffffffffffffffffffffffffffffffffffffffff16021790555050610f13806100d56000396000f3fe608060405234801561001057600080fd5b50600436106100625760003560e01c8063016b05db14610067578063b505793a146101cd578063c1005a5c146102ca578063d476c8d214610430578063f2fde38b14610452578063ff522da214610496575b600080fd5b6101cb6004803603608081101561007d57600080fd5b810190808035906020019064010000000081111561009a57600080fd5b8201836020820111156100ac57600080fd5b803590602001918460018302840111640100000000831117156100ce57600080fd5b91908080601f016020809104026020016040519081016040528093929190818152602001838380828437600081840152601f19601f8201169050808301925050505050505091929192908035906020019064010000000081111561013157600080fd5b82018360208201111561014357600080fd5b8035906020019184600183028401116401000000008311171561016557600080fd5b91908080601f016020809104026020016040519081016040528093929190818152602001838380828437600081840152601f19601f820116905080830192505050505050509192919290803590602001909291908035906020019092919050505061057d565b005b6101d561085b565b604051808060200180602001858152602001848152602001838103835287818151815260200191508051906020019080838360005b8381101561022557808201518184015260208101905061020a565b50505050905090810190601f1680156102525780820380516001836020036101000a031916815260200191505b50838103825286818151815260200191508051906020019080838360005b8381101561028b578082015181840152602081019050610270565b50505050905090810190601f1680156102b85780820380516001836020036101000a031916815260200191505b50965050505050505060405180910390f35b61042e600480360360808110156102e057600080fd5b81019080803590602001906401000000008111156102fd57600080fd5b82018360208201111561030f57600080fd5b8035906020019184600183028401116401000000008311171561033157600080fd5b91908080601f016020809104026020016040519081016040528093929190818152602001838380828437600081840152601f19601f8201169050808301925050505050505091929192908035906020019064010000000081111561039457600080fd5b8201836020820111156103a657600080fd5b803590602001918460018302840111640100000000831117156103c857600080fd5b91908080601f016020809104026020016040519081016040528093929190818152602001838380828437600081840152601f19601f82011690508083019250505050505050919291929080359060200190929190803590602001909291905050506109b1565b005b610438610ae3565b604051808215151515815260200191505060405180910390f35b6104946004803603602081101561046857600080fd5b81019080803573ffffffffffffffffffffffffffffffffffffffff169060200190929190505050610b90565b005b610563600480360360608110156104ac57600080fd5b81019080803590602001906401000000008111156104c957600080fd5b8201836020820111156104db57600080fd5b803590602001918460018302840111640100000000831117156104fd57600080fd5b91908080601f016020809104026020016040519081016040528093929190818152602001838380828437600081840152601f19601f8201169050808301925050505050505091929192908035906020019092919080359060200190929190505050610cca565b604051808215151515815260200191505060405180910390f35b60056000600354815260200190815260200160002060009054906101000a900460ff161561085557600760009054906101000a900473ffffffffffffffffffffffffffffffffffffffff1673ffffffffffffffffffffffffffffffffffffffff166385e61d3a6105ec30610d6e565b858585896040518663ffffffff1660e01b815260040180806020018060200186815260200185815260200180602001848103845289818151815260200191508051906020019080838360005b83811015610653578082015181840152602081019050610638565b50505050905090810190601f1680156106805780820380516001836020036101000a031916815260200191505b50848103835288818151815260200191508051906020019080838360005b838110156106b957808201518184015260208101905061069e565b50505050905090810190601f1680156106e65780820380516001836020036101000a031916815260200191505b50848103825285818151815260200191508051906020019080838360005b8381101561071f578082015181840152602081019050610704565b50505050905090810190601f16801561074c5780820380516001836020036101000a031916815260200191505b509850505050505050505060206040518083038186803b15801561076f57600080fd5b505afa158015610783573d6000803e3d6000fd5b505050506040513d602081101561079957600080fd5b8101908080519060200190929190505050156108545760016006846040518082805190602001908083835b602083106107e757805182526020820191506020810190506020830392506107c4565b6001836020036101000a03801982511681845116808217855250505050505090500191505090815260200160405180910390206000848152602001908152602001600020600083815260200190815260200160002060006101000a81548160ff0219169083151502179055505b5b50505050565b60608060008060016002600354600454838054600181600116156101000203166002900480601f0160208091040260200160405190810160405280929190818152602001828054600181600116156101000203166002900480156109005780601f106108d557610100808354040283529160200191610900565b820191906000526020600020905b8154815290600101906020018083116108e357829003601f168201915b50505050509350828054600181600116156101000203166002900480601f01602080910402602001604051908101604052809291908181526020018280546001816001161561010002031660029004801561099c5780601f106109715761010080835404028352916020019161099c565b820191906000526020600020905b81548152906001019060200180831161097f57829003601f168201915b50505050509250935093509350935090919293565b6000809054906101000a900473ffffffffffffffffffffffffffffffffffffffff1673ffffffffffffffffffffffffffffffffffffffff163373ffffffffffffffffffffffffffffffffffffffff1614610a73576040517f08c379a000000000000000000000000000000000000000000000000000000000815260040180806020018281038252600f8152602001807f4e6f7420617574686f72697a65642e000000000000000000000000000000000081525060200191505060405180910390fd5b8360019080519060200190610a89929190610db9565b508260029080519060200190610aa0929190610e39565b508160038190555080600481905550600160056000600354815260200190815260200160002060006101000a81548160ff02191690831515021790555050505050565b6000600660026040518082805460018160011615610100020316600290048015610b445780601f10610b22576101008083540402835291820191610b44565b820191906000526020600020905b815481529060010190602001808311610b30575b50509150509081526020016040518091039020600060035481526020019081526020016000206000600454815260200190815260200160002060009054906101000a900460ff16905090565b6000809054906101000a900473ffffffffffffffffffffffffffffffffffffffff1673ffffffffffffffffffffffffffffffffffffffff163373ffffffffffffffffffffffffffffffffffffffff1614610c52576040517f08c379a000000000000000000000000000000000000000000000000000000000815260040180806020018281038252600f8152602001807f4e6f7420617574686f72697a65642e000000000000000000000000000000000081525060200191505060405180910390fd5b600073ffffffffffffffffffffffffffffffffffffffff168173ffffffffffffffffffffffffffffffffffffffff1614610cc757806000806101000a81548173ffffffffffffffffffffffffffffffffffffffff021916908373ffffffffffffffffffffffffffffffffffffffff1602179055505b50565b60006006846040518082805190602001908083835b60208310610d025780518252602082019150602081019050602083039250610cdf565b6001836020036101000a03801982511681845116808217855250505050505090500191505090815260200160405180910390206000848152602001908152602001600020600083815260200190815260200160002060009054906101000a900460ff1690509392505050565b606060405173ffffffffffffffffffffffffffffffffffffffff8316925082741400000000000000000000000000000000000000001860148201526034810160405280915050919050565b828054600181600116156101000203166002900490600052602060002090601f016020900481019282601f10610dfa57805160ff1916838001178555610e28565b82800160010185558215610e28579182015b82811115610e27578251825591602001919060010190610e0c565b5b509050610e359190610eb9565b5090565b828054600181600116156101000203166002900490600052602060002090601f016020900481019282601f10610e7a57805160ff1916838001178555610ea8565b82800160010185558215610ea8579182015b82811115610ea7578251825591602001919060010190610e8c565b5b509050610eb59190610eb9565b5090565b610edb91905b80821115610ed7576000816000905550600101610ebf565b5090565b9056fea265627a7a72315820d5edb1c137f928fb4c2ec97ed5eadb0c39ab32a8f51070a0c56929d767df486c64736f6c63430005100032",
  "source": "pragma solidity ^0.5.12;\n\nimport \"./Owned.sol\";\nimport \"./EndorsementStore.sol\";\n\n/// @title InternallyEndorsed\n/// @notice Internally endorsed contract\n/// @dev Internally endorsed contract\ncontract InternallyEndorsed is Owned {\n\t//endorsement information fields\n\t/// @notice Signature of the current endorsement\n\tbytes private signature;\n\t/// @notice Domain name of the current endorsement\n\tstring private domain;\n\t/// @notice Identifier of the certificate used to create and validate the endorsement\n\tbytes32 private certID;\n\t/// @notice Expiration date of the endorsement\n\tuint256 private expiration;\n\t/// @notice Mapping containing all certificate identifiers that were used for endosrements\n\tmapping (bytes32 => bool) private allCertIDs;\n\t/// @notice Mapping containing all endorsement combinations that were revoked\n\tmapping (string => mapping(bytes32 => mapping (uint256 => bool))) private revoked;\n\n\t/// @notice Link to an endorsement database for the validation of revocations\n\tEndorsementDatabase private ed;\n\n\n\t/// @dev Deploy an instance of InternallyEndorsed referencing an endorsement database.\n\t/// @param endorsementDatabase The address of the endorsement database\n\tconstructor (address endorsementDatabase) public{\n\t\ted = EndorsementDatabase(endorsementDatabase);\n\t}\n\n\t/// @notice Can be used by the owner of the contract to update the endorsement\n\t/// @dev Owner can update the endorsement information, signature is NOT validated\n\t/// @param _signature Signature of the new endorsement\n\t/// @param _domain Domain name of the new endorsement\n\t/// @param _certID Certificate identifer of the new endorsement\n\t/// @param _expiration Expiration date of the new endorsement\n\tfunction updateEndorsement(bytes memory _signature, string memory _domain, bytes32 _certID, uint256 _expiration) public onlyOwner{\n\t\tsignature = _signature;\n\t\tdomain = _domain;\n\t\tcertID = _certID;\n\t\texpiration = _expiration;\n\t\tallCertIDs[certID] = true;\n\t}\n\n\t/// @notice Revoke an endorsment previously or currently used to endorse the contract\n\t/// @dev Anyone can mark an endorsment as revoked when they posses a private key corresponding to a certID contained in 'allCertIDs'\n\t/// @dev 'es' is used to validate the revocation\n\t/// @param _signature Signature of the revocation\n\t/// @param _domain Domain name of the endorsement\n\t/// @param _certID Certificate identifier of the endorsement\n\t/// @param _expiration Expiration date of the endorsement\n\tfunction revokeEndorsement(bytes memory _signature, string memory _domain, bytes32 _certID, uint256 _expiration) public {\n\t\tif (allCertIDs[certID]){\n\t\t\tif (ed.verifyInternalEndorsementRevocation(toBytes(address(this)), _domain, _certID, _expiration, _signature)){\n\t\t\t\trevoked[_domain][_certID][_expiration] = true;\n\t\t\t}\n\t\t}\n\t}\n\n\t/// @notice Get the endorsement information of the contract\n\t/// @dev Get the content of the expiration information fields\n\t/// @return signature, domain name, certificate identifer, expiration date\n\tfunction getEndorsement() public view returns (bytes memory, string memory, bytes32, uint256) {\n\t\treturn (signature, domain, certID, expiration);\n\t}\n\n\t/// @notice Get the revocation status of an arbitrary endorsement combination\n\t/// @dev Get the revocation status of the endorsement dentoted by '_domain', '_certID', '_expiration'\n\t/// @param _domain Domain name of the checked endorsement\n\t/// @param _certID Certificate identifer of the checked endorsment\n\t/// @param _expiration Expiration date of the checked endorsement\n\t/// @return true if revoked, false if not revoked or unknown\n\tfunction getRevokedStatus(string memory _domain, bytes32 _certID, uint256 _expiration) public view returns (bool) {\n\t\treturn revoked[_domain][_certID][_expiration];\n\t}\n\n\t/// @notice Get the revocation status of the current endorsement\n\t/// @dev Get the revocation status of the combination of the current endorsement information fields\n\t/// @return True if revoked, false otherwise\n\tfunction getCurrentRevoked() public view returns (bool) {\n\t\treturn revoked[domain][certID][expiration];\n\t}\n\n\t/// @notice\n\t/// @dev Get the bytes representation of an address\n\t/// @param a address to be converted\n\t/// @return address representation in bytes\n\tfunction toBytes(address a) private pure returns (bytes memory b){\n\t    assembly {\n\t        let m := mload(0x40)\n\t        a := and(a, 0xFFFFFFFFFFFFFFFFFFFFFFFFFFFFFFFFFFFFFFFF)\n\t        mstore(add(m, 20), xor(0x140000000000000000000000000000000000000000, a))\n\t        mstore(0x40, add(m, 52))\n\t        b := m\n   \t\t}\n\t}\n\n}\n",
  "sourcePath": "/home/friederike/tls-certificates-for-etherum/implementation/contracts/InternalEndorsement.sol",
  "compiler": {
    "name": "solc",
    "version": "0.5.16+commit.9c3226ce.Emscripten.clang"
  },
  "schemaVersion": "3.0.22",
  "updatedAt": "2020-05-24T18:16:52.692Z",
  "devdoc": {
    "details": "Internally endorsed contract",
    "methods": {
      "constructor": {
        "details": "Deploy an instance of InternallyEndorsed referencing an endorsement database.",
        "params": {
          "endorsementDatabase": "The address of the endorsement database"
        }
      },
      "getCurrentRevoked()": {
        "details": "Get the revocation status of the combination of the current endorsement information fields",
        "return": "True if revoked, false otherwise"
      },
      "getEndorsement()": {
        "details": "Get the content of the expiration information fields",
        "return": "signature, domain name, certificate identifer, expiration date"
      },
      "getRevokedStatus(string,bytes32,uint256)": {
        "details": "Get the revocation status of the endorsement dentoted by '_domain', '_certID', '_expiration'",
        "params": {
          "_certID": "Certificate identifer of the checked endorsment",
          "_domain": "Domain name of the checked endorsement",
          "_expiration": "Expiration date of the checked endorsement"
        },
        "return": "true if revoked, false if not revoked or unknown"
      },
      "revokeEndorsement(bytes,string,bytes32,uint256)": {
        "details": "Anyone can mark an endorsment as revoked when they posses a private key corresponding to a certID contained in 'allCertIDs''es' is used to validate the revocation",
        "params": {
          "_certID": "Certificate identifier of the endorsement",
          "_domain": "Domain name of the endorsement",
          "_expiration": "Expiration date of the endorsement",
          "_signature": "Signature of the revocation"
        }
      },
      "updateEndorsement(bytes,string,bytes32,uint256)": {
        "details": "Owner can update the endorsement information, signature is NOT validated",
        "params": {
          "_certID": "Certificate identifer of the new endorsement",
          "_domain": "Domain name of the new endorsement",
          "_expiration": "Expiration date of the new endorsement",
          "_signature": "Signature of the new endorsement"
        }
      }
    },
    "title": "InternallyEndorsed"
  },
  "userdoc": {
    "methods": {
      "getCurrentRevoked()": {
        "notice": "Get the revocation status of the current endorsement"
      },
      "getEndorsement()": {
        "notice": "Get the endorsement information of the contract"
      },
      "getRevokedStatus(string,bytes32,uint256)": {
        "notice": "Get the revocation status of an arbitrary endorsement combination"
      },
      "revokeEndorsement(bytes,string,bytes32,uint256)": {
        "notice": "Revoke an endorsment previously or currently used to endorse the contract"
      },
      "updateEndorsement(bytes,string,bytes32,uint256)": {
        "notice": "Can be used by the owner of the contract to update the endorsement"
      }
    },
    "notice": "Internally endorsed contract"
  }
}