{
  "contractName": "SignatureValidation",
  "abi": [
    {
      "constant": true,
      "inputs": [
        {
          "internalType": "bytes",
          "name": "message",
          "type": "bytes"
        },
        {
          "internalType": "bytes",
          "name": "sigInfo",
          "type": "bytes"
        },
        {
          "internalType": "bytes",
          "name": "signature",
          "type": "bytes"
        },
        {
          "internalType": "bytes",
          "name": "signerPubKey",
          "type": "bytes"
        }
      ],
      "name": "validateSignature",
      "outputs": [
        {
          "internalType": "bool",
          "name": "",
          "type": "bool"
        }
      ],
      "payable": false,
      "stateMutability": "view",
      "type": "function"
    },
    {
      "constant": true,
      "inputs": [
        {
          "internalType": "bytes",
          "name": "message",
          "type": "bytes"
        },
        {
          "internalType": "bytes",
          "name": "signature",
          "type": "bytes"
        },
        {
          "internalType": "bytes",
          "name": "signerPubKey",
          "type": "bytes"
        }
      ],
      "name": "validateRSASHA1Signature",
      "outputs": [
        {
          "internalType": "bool",
          "name": "",
          "type": "bool"
        }
      ],
      "payable": false,
      "stateMutability": "view",
      "type": "function"
    },
    {
      "constant": true,
      "inputs": [
        {
          "internalType": "bytes",
          "name": "message",
          "type": "bytes"
        },
        {
          "internalType": "bytes",
          "name": "signature",
          "type": "bytes"
        },
        {
          "internalType": "bytes",
          "name": "signerPubKey",
          "type": "bytes"
        }
      ],
      "name": "validateRSASHA256Signature",
      "outputs": [
        {
          "internalType": "bool",
          "name": "",
          "type": "bool"
        }
      ],
      "payable": false,
      "stateMutability": "view",
      "type": "function"
    }
  ],
  "bytecode": "0x611df0610026600b82828239805160001a60731461001957fe5b30600052607381538281f3fe730000000000000000000000000000000000000000301460806040526004361061004b5760003560e01c80633f5594ab1461005057806354e6fa6b14610251578063e3428bfd14610452575b600080fd5b6102376004803603606081101561006657600080fd5b810190808035906020019064010000000081111561008357600080fd5b82018360208201111561009557600080fd5b803590602001918460018302840111640100000000831117156100b757600080fd5b91908080601f016020809104026020016040519081016040528093929190818152602001838380828437600081840152601f19601f8201169050808301925050505050505091929192908035906020019064010000000081111561011a57600080fd5b82018360208201111561012c57600080fd5b8035906020019184600183028401116401000000008311171561014e57600080fd5b91908080601f016020809104026020016040519081016040528093929190818152602001838380828437600081840152601f19601f820116905080830192505050505050509192919290803590602001906401000000008111156101b157600080fd5b8201836020820111156101c357600080fd5b803590602001918460018302840111640100000000831117156101e557600080fd5b91908080601f016020809104026020016040519081016040528093929190818152602001838380828437600081840152601f19601f8201169050808301925050505050505091929192905050506106ea565b604051808215151515815260200191505060405180910390f35b6104386004803603606081101561026757600080fd5b810190808035906020019064010000000081111561028457600080fd5b82018360208201111561029657600080fd5b803590602001918460018302840111640100000000831117156102b857600080fd5b91908080601f016020809104026020016040519081016040528093929190818152602001838380828437600081840152601f19601f8201169050808301925050505050505091929192908035906020019064010000000081111561031b57600080fd5b82018360208201111561032d57600080fd5b8035906020019184600183028401116401000000008311171561034f57600080fd5b91908080601f016020809104026020016040519081016040528093929190818152602001838380828437600081840152601f19601f820116905080830192505050505050509192919290803590602001906401000000008111156103b257600080fd5b8201836020820111156103c457600080fd5b803590602001918460018302840111640100000000831117156103e657600080fd5b91908080601f016020809104026020016040519081016040528093929190818152602001838380828437600081840152601f19601f820116905080830192505050505050509192919290505050610880565b604051808215151515815260200191505060405180910390f35b6106d06004803603608081101561046857600080fd5b810190808035906020019064010000000081111561048557600080fd5b82018360208201111561049757600080fd5b803590602001918460018302840111640100000000831117156104b957600080fd5b91908080601f016020809104026020016040519081016040528093929190818152602001838380828437600081840152601f19601f8201169050808301925050505050505091929192908035906020019064010000000081111561051c57600080fd5b82018360208201111561052e57600080fd5b8035906020019184600183028401116401000000008311171561055057600080fd5b91908080601f016020809104026020016040519081016040528093929190818152602001838380828437600081840152601f19601f820116905080830192505050505050509192919290803590602001906401000000008111156105b357600080fd5b8201836020820111156105c557600080fd5b803590602001918460018302840111640100000000831117156105e757600080fd5b91908080601f016020809104026020016040519081016040528093929190818152602001838380828437600081840152601f19601f8201169050808301925050505050505091929192908035906020019064010000000081111561064a57600080fd5b82018360208201111561065c57600080fd5b8035906020019184600183028401116401000000008311171561067e57600080fd5b91908080601f016020809104026020016040519081016040528093929190818152602001838380828437600081840152601f19601f820116905080830192505050505050509192919290505050610a04565b604051808215151515815260200191505060405180910390f35b600080600090506106f9611bf0565b6107148461070686610e66565b610ecd90919063ffffffff16565b9050610729848261103990919063ffffffff16565b905061073e8482610ecd90919063ffffffff16565b90506107538482610ecd90919063ffffffff16565b9050606061076a858361113590919063ffffffff16565b905061077f858361103990919063ffffffff16565b91506060610796868461113590919063ffffffff16565b905060006002896040518082805190602001908083835b602083106107d057805182526020820191506020810190506020830392506107ad565b6001836020036101000a038019825116818451168082178552505050505050905001915050602060405180830381855afa158015610812573d6000803e3d6000fd5b5050506040513d602081101561082757600080fd5b81019080805190602001909291905050509050606061084784848b611165565b8092508197505050858015610871575061086e60208251038261118090919063ffffffff16565b82145b96505050505050509392505050565b6000806000905061088f611bf0565b6108aa8461089c86610e66565b610ecd90919063ffffffff16565b90506108bf848261103990919063ffffffff16565b90506108d48482610ecd90919063ffffffff16565b90506108e98482610ecd90919063ffffffff16565b90506060610900858361113590919063ffffffff16565b9050610915858361103990919063ffffffff16565b9150606061092c868461113590919063ffffffff16565b90506000610939896111a2565b9050606061094884848b611165565b809250819750505060008090505b60148110156109f25781816014845103018151811061097157fe5b602001015160f81c60f81b7effffffffffffffffffffffffffffffffffffffffffffffffffffffffffffff19168382601481106109aa57fe5b1a60f81b7effffffffffffffffffffffffffffffffffffffffffffffffffffffffffffff1916146109e55760009750505050505050506109fd565b8080600101915050610956565b508596505050505050505b9392505050565b60006060610a3585610a2787610a1989610e66565b610ecd90919063ffffffff16565b61113590919063ffffffff16565b9050610a7f6040518060400160405280600981526020017f2a864886f70d0101050000000000000000000000000000000000000000000000815250826116c390919063ffffffff16565b15610a9757610a8f868585610880565b915050610e5e565b610adf6040518060400160405280600981526020017f2a864886f70d01010b0000000000000000000000000000000000000000000000815250826116c390919063ffffffff16565b15610af757610aef8685856106ea565b915050610e5e565b610b3f6040518060400160405280600881526020017f2a8648ce3d040302000000000000000000000000000000000000000000000000815250826116c390919063ffffffff16565b15610b95576040517f08c379a000000000000000000000000000000000000000000000000000000000815260040180806020018281038252602e815260200180611cae602e913960400191505060405180910390fd5b610bdd6040518060400160405280600881526020017f2a8648ce3d040303000000000000000000000000000000000000000000000000815250826116c390919063ffffffff16565b15610c33576040517f08c379a000000000000000000000000000000000000000000000000000000000815260040180806020018281038252602e815260200180611d8e602e913960400191505060405180910390fd5b610c7b6040518060400160405280600881526020017f2a8648ce3d040304000000000000000000000000000000000000000000000000815250826116c390919063ffffffff16565b15610cd1576040517f08c379a000000000000000000000000000000000000000000000000000000000815260040180806020018281038252602e815260200180611d08602e913960400191505060405180910390fd5b610d196040518060400160405280600981526020017f2a864886f70d01010c0000000000000000000000000000000000000000000000815250826116c390919063ffffffff16565b15610d6f576040517f08c379a000000000000000000000000000000000000000000000000000000000815260040180806020018281038252602c815260200180611d62602c913960400191505060405180910390fd5b610db76040518060400160405280600981526020017f2a864886f70d01010d0000000000000000000000000000000000000000000000815250826116c390919063ffffffff16565b15610e0d576040517f08c379a000000000000000000000000000000000000000000000000000000000815260040180806020018281038252602c815260200180611cdc602c913960400191505060405180910390fd5b6040517f08c379a000000000000000000000000000000000000000000000000000000000815260040180806020018281038252602c815260200180611d36602c913960400191505060405180910390fd5b949350505050565b610e6e611bf0565b610e76611bf0565b600080610e848560006116ea565b8092508193505050600083600001818152505080836020019060ff16908160ff168152505081836040018181525050818160ff1601836060018181525050829350505050919050565b610ed5611bf0565b6000836020015160ff1614158015610ef257506000836040015114155b610f47576040517f08c379a000000000000000000000000000000000000000000000000000000000815260040180806020018281038252603a815260200180611c36603a913960400191505060405180910390fd5b610f4f611bf0565b6000846020015160ff168560000151019050600360f81b7effffffffffffffffffffffffffffffffffffffffffffffffffffffffffffff191684866000015181518110610f9857fe5b602001015160f81c60f81b7effffffffffffffffffffffffffffffffffffffffffffffffffffffffffffff19161415610fd45780806001019150505b600080610fe186846116ea565b80925081935050508284600001818152505080846020019060ff16908160ff1681525050818460400181815250508660400151876020015160ff16886000015101018460600181815250508394505050505092915050565b611041611bf0565b6000836020015160ff1614156110a2576040517f08c379a000000000000000000000000000000000000000000000000000000000815260040180806020018281038252603e815260200180611c70603e913960400191505060405180910390fd5b6110aa611bf0565b60008460400151856020015160ff168660000151010190506000856060015182109050806110dd5782935050505061112f565b6000806110ea87856116ea565b80925081935050508385600001818152505080856020019060ff16908160ff168152505081856040018181525050876060015185606001818152505084955050505050505b92915050565b606061115d836020015160ff168460000151018460400151846117e99092919063ffffffff16565b905092915050565b6000606061117483858761185c565b91509150935093915050565b6000825160208301111561119357600080fd5b81602084010151905092915050565b60006040518251602084019350604067ffffffffffffffc0600183011601600982820310600181146111d3576111da565b6040820191505b50776745230100efcdab890098badcfe001032547600c3d2e1f0611235565b60008090508383101561122e578282015190508284039350602084101561122d576001846020036101000a03198082169150505b5b9392505050565b60005b828110156116435761124b8482896111f9565b855261125b8460208301896111f9565b6020860152604081850310600181146112735761127c565b60808286038701535b5060408303811460018114611290576112a0565b6008850260208701511760208701525b5060405b608081101561132c5760408103860151603882038701511860208203870151600c830388015118187c010000000100000001000000010000000100000001000000010000000163800000008204167ffffffffefffffffefffffffefffffffefffffffefffffffefffffffefffffffe6002830216179050808288015250600c810190506112a4565b5060805b6101408110156113b957608081038601516070820387015118604082038701516018830388015118187c030000000300000003000000030000000300000003000000030000000363400000008204167ffffffffcfffffffcfffffffcfffffffcfffffffcfffffffcfffffffcfffffffc6004830216179050808288015250601881019050611330565b508160008060005b60508110156116155760148104600081146113f3576001811461143d576002811461147a57600381146114dd57611516565b6501000000000085046a01000000000000000000008604189350836f01000000000000000000000000000000860416935083650100000000008604189350635a8279999250611516565b6a010000000000000000000085046f01000000000000000000000000000000860418935083650100000000008604189350636ed9eba19250611516565b6a010000000000000000000085046f01000000000000000000000000000000860417935083650100000000008604169350836a010000000000000000000086046f01000000000000000000000000000000870416179350638f1bbcdc9250611516565b6a010000000000000000000085046f0100000000000000000000000000000086041893508365010000000000860418935063ca62c1d692505b50601f770800000000000000000000000000000000000000000000008504168063ffffffe073080000000000000000000000000000000000000087041617905080840190508063ffffffff86160190508083019050807c0100000000000000000000000000000000000000000000000000000000600484028c0151040190507401000000000000000000000000000000000000000081026501000000000086041794506a0100000000000000000000633fffffff6a040000000000000000000087041663c00000006604000000000000880416170277ffffffff00ffffffff000000000000ffffffff00ffffffff8616179450506001810190506113c1565b5077ffffffff00ffffffff00ffffffff00ffffffff00ffffffff838601169450505050604081019050611238565b506c0100000000000000000000000063ffffffff821667ffffffff000000006101008404166bffffffff0000000000000000620100008504166fffffffff000000000000000000000000630100000086041673ffffffff000000000000000000000000000000006401000000008704161717171702945050505050919050565b6000815183511480156116e257506116e18360008460008751611962565b5b905092915050565b600080608060f81b608060f81b85600186018151811061170657fe5b602001015160f81c60f81b167effffffffffffffffffffffffffffffffffffffffffffffffffffffffffffff191614156117bb576002607f60f81b85600186018151811061175057fe5b602001015160f81c60f81b1660f81c019050600091506000600290505b8160ff168160ff1610156117b557600883901b9250848160ff1685018151811061179357fe5b602001015160f81c60f81b60f81c60ff1683019250808060010191505061176d565b506117e2565b8360018401815181106117ca57fe5b602001015160f81c60f81b60f81c60ff169150600290505b9250929050565b6060835182840111156117fb57600080fd5b6060826040519080825280601f01601f1916602001820160405280156118305781602001600182028038833980820191505090505b509050600080602083019150856020880101905061184f828287611986565b8293505050509392505050565b60006060600083518551875160600101019050611877611c1b565b61188a82826119cf90919063ffffffff16565b506118a2875160001b82611a2390919063ffffffff16565b506118ba865160001b82611a2390919063ffffffff16565b506118d2855160001b82611a2390919063ffffffff16565b506118e68782611a4590919063ffffffff16565b506118fa8682611a4590919063ffffffff16565b5061190e8582611a4590919063ffffffff16565b5084516040519080825280601f01601f1916602001820160405280156119435781602001600182028038833980820191505090505b50925084516020840183602084510160055afa93505050935093915050565b600061196f848484611a67565b61197a878785611a67565b14905095945050505050565b5b602081106119aa5781518352602083019250602082019150602081039050611987565b60006001826020036101000a0390508019835116818551168181178652505050505050565b6119d7611c1b565b6000602083816119e357fe5b06146119fc57602082816119f357fe5b06602003820191505b81836020018181525050604051808452600081528281016020016040525082905092915050565b611a2b611c1b565b611a3d83846000015151846020611a8a565b905092915050565b611a4d611c1b565b611a5f83846000015151848551611af7565b905092915050565b600083518284011115611a7957600080fd5b818360208601012090509392505050565b611a92611c1b565b84602001518483011115611ab057611aaf85600286850102611bb0565b5b60006001836101000a0390508260200360080284901c93508551838682010185831982511617815281518588011115611ae95784870182525b505085915050949350505050565b611aff611c1b565b8251821115611b0d57600080fd5b84602001518285011115611b3857611b37856002611b318860200151888701611bd4565b02611bb0565b5b600080865180518760208301019350808887011115611b575787860182525b60208701925050505b60208410611b835780518252602082019150602081019050602084039350611b60565b60006001856020036101000a03905080198251168184511681811785525050879350505050949350505050565b606082600001519050611bc383836119cf565b50611bce8382611a45565b50505050565b600081831115611be657829050611bea565b8190505b92915050565b604051806080016040528060008152602001600060ff16815260200160008152602001600081525090565b60405180604001604052806060815260200160008152509056fe4e6f646520686173206e6f74206265656e20696e697469616c697a65642c206368696c642063616e6e6f742062652064657465726d696e65642e4e6f646520686173206e6f74206265656e20696e697469616c697a65642c206e657874206e6f64652063616e6e6f742062652064657465726d696e65642e556e737570706f72746564207369676e617475726520616c676f726974686d3a2045434453412d5348413235362e556e737570706f72746564207369676e617475726520616c676f726974686d3a205253412d5348413531322e556e737570706f72746564207369676e617475726520616c676f726974686d3a2045434453412d5348413531322e556e737570706f72746564207369676e617475726520616c676f726974686d3a204f494420756e6b6f776e2e556e737570706f72746564207369676e617475726520616c676f726974686d3a205253412d5348413338342e556e737570706f72746564207369676e617475726520616c676f726974686d3a2045434453412d5348413338342ea265627a7a72315820493c74e22df2410fd82d5af0d945aea438c29c826664ad0a2b16a06ae2db7aa264736f6c63430005100032",
  "source": "pragma solidity ^0.5.12;\n\nimport \"./RSAVerify.sol\";\nimport \"./ASN1DERNode.sol\";\nimport \"./BytesUtils.sol\";\nimport \"./SHA1.sol\";\n\n\n/// @title SignatureValidation\n/// @notice Library for signature validation\n/// @dev Library implementing the signature validation with ASN.1 DER public keys\nlibrary SignatureValidation {\n\tusing BytesUtils for *;\n\tusing ASN1Parser for *;\n\n\t/// @notice Validate the signature of a message produced with any supported signature algorithm\n\t/// @dev The correct signature algorithm is retrieved and, if supported, the signature is verified\n\t/// @param message Bytes string that was hashed and signed\n\t/// @param sigInfo Description of the signature algorithm used\n\t/// @param signature Signature to be validated\n\t/// @param signerPubKey Public key used to create the signature\n\t/// @return true if validation was successful and signature is valid, false otherwise\n\tfunction validateSignature(bytes memory message, bytes memory sigInfo, bytes memory signature, bytes memory signerPubKey) public view returns (bool){\n        bytes memory oid = ((sigInfo.getRootNode()).getFirstChildNode(sigInfo)).getContentBytes(sigInfo);\n        if (oid.equals(hex\"2a864886f70d010105\")){ //RSA-SHA1\n            return validateRSASHA1Signature(message, signature, signerPubKey);\n        } else if (oid.equals(hex\"2a864886f70d01010b\")) { //RSA-SHA256\n            return validateRSASHA256Signature(message, signature, signerPubKey);\n        } else if (oid.equals(hex\"2A8648CE3D040302\")) { //ECDSA-SHA256\n            revert(\"Unsupported signature algorithm: ECDSA-SHA256.\");\n        } else if (oid.equals(hex\"2A8648CE3D040303\")) { //ECDSA-SHA384\n            revert(\"Unsupported signature algorithm: ECDSA-SHA384.\");\n        } else if (oid.equals(hex\"2A8648CE3D040304\")) { //ECDSA-SHA512\n            revert(\"Unsupported signature algorithm: ECDSA-SHA512.\");\n        } else if (oid.equals(hex\"2A864886F70D01010C\")) { //sha384WithRSAEncryption\n            revert(\"Unsupported signature algorithm: RSA-SHA384.\");\n        } else if (oid.equals(hex\"2A864886F70D01010D\")) { //sha512WithRSAEncryption\n            revert(\"Unsupported signature algorithm: RSA-SHA512.\");\n        } else {\n            revert(\"Unsupported signature algorithm: OID unkown.\");\n        }\n    }\n\n\n    /// @notice Validate the signature of a message produced with RSA-SHA-1\n    /// @dev Parses publix key, hashes message, and validates signature\n    /// @param message Bytes string that was hashed and signed\n    /// @param signature Signature to be validated\n    /// @param signerPubKey Public key used to create the signature\n    /// @return true if validation was successful and signature is valid, false otherwise\n    function validateRSASHA1Signature(bytes memory message, bytes memory signature, bytes memory signerPubKey) public view returns (bool){\n        bool success = false;\n\n\t\t\t\t// get the exponent and the modulus of the private key\n        ASN1Parser.Node memory curNode = signerPubKey.getRootNode().getFirstChildNode(signerPubKey);\n        curNode = curNode.getNextNode(signerPubKey);\n        curNode = curNode.getFirstChildNode(signerPubKey);\n        curNode = curNode.getFirstChildNode(signerPubKey);\n        bytes memory modulus = curNode.getContentBytes(signerPubKey);\n        curNode = curNode.getNextNode(signerPubKey);\n        bytes memory exponent = curNode.getContentBytes(signerPubKey);\n\n\t\t\t\t//hash 'message' with SHA-1 and validate the signature\n        bytes20 hash = SHA1.sha1(message);\n        bytes memory result;\n        (success, result) = RSAVerify.rsarecover(modulus, exponent, signature);\n        for (uint i = 0; i < 20; i++){\n        \tif(hash[i] != result[result.length-20 + i]){\n        \t\treturn false;\n        \t}\n        }\n        return success;\n    }\n\n\n    /// @notice Validate the signature of a message produced with RSA-SHA-256\n\t\t/// @dev Parses publix key, hashes message, and validates signature\n    /// @param message Bytes string that was hashed and signed\n    /// @param signature Signature to be validated\n    /// @param signerPubKey Public key used to create the signature\n    /// @return true if validation was successful and signature is valid, false otherwise\n    function validateRSASHA256Signature(bytes memory message, bytes memory signature, bytes memory signerPubKey) public view returns (bool){\n        bool success = false;\n\n\t\t\t\t// get the exponent and the modulus of the private key\n        ASN1Parser.Node memory curNode = signerPubKey.getRootNode().getFirstChildNode(signerPubKey);\n        curNode = curNode.getNextNode(signerPubKey);\n        curNode = curNode.getFirstChildNode(signerPubKey);\n        curNode = curNode.getFirstChildNode(signerPubKey);\n        bytes memory modulus = curNode.getContentBytes(signerPubKey);\n        curNode = curNode.getNextNode(signerPubKey);\n        bytes memory exponent = curNode.getContentBytes(signerPubKey);\n\n\t\t\t\t//hash 'message' with SHA-256 and validate the signature\n        bytes32 hash = sha256(message);\n        bytes memory result;\n        (success, result) = RSAVerify.rsarecover(modulus, exponent, signature);\n\n        return success && hash == result.readBytes32(result.length - 32);\n    }\n}\n",
  "sourcePath": "/home/friederike/tls-certificates-for-etherum/implementation/contracts/SignatureValidation.sol",
  "compiler": {
    "name": "solc",
    "version": "0.5.16+commit.9c3226ce.Emscripten.clang"
  },
  "schemaVersion": "3.0.22",
  "updatedAt": "2020-05-22T08:35:43.104Z",
  "networkType": "ethereum",
  "devdoc": {
    "details": "Library implementing the signature validation with ASN.1 DER public keys",
    "methods": {
      "validateRSASHA1Signature(bytes,bytes,bytes)": {
        "details": "Parses publix key, hashes message, and validates signature",
        "params": {
          "message": "Bytes string that was hashed and signed",
          "signature": "Signature to be validated",
          "signerPubKey": "Public key used to create the signature"
        },
        "return": "true if validation was successful and signature is valid, false otherwise"
      },
      "validateRSASHA256Signature(bytes,bytes,bytes)": {
        "details": "Parses publix key, hashes message, and validates signature",
        "params": {
          "message": "Bytes string that was hashed and signed",
          "signature": "Signature to be validated",
          "signerPubKey": "Public key used to create the signature"
        },
        "return": "true if validation was successful and signature is valid, false otherwise"
      },
      "validateSignature(bytes,bytes,bytes,bytes)": {
        "details": "The correct signature algorithm is retrieved and, if supported, the signature is verified",
        "params": {
          "message": "Bytes string that was hashed and signed",
          "sigInfo": "Description of the signature algorithm used",
          "signature": "Signature to be validated",
          "signerPubKey": "Public key used to create the signature"
        },
        "return": "true if validation was successful and signature is valid, false otherwise"
      }
    },
    "title": "SignatureValidation"
  },
  "userdoc": {
    "methods": {
      "validateRSASHA1Signature(bytes,bytes,bytes)": {
        "notice": "Validate the signature of a message produced with RSA-SHA-1"
      },
      "validateRSASHA256Signature(bytes,bytes,bytes)": {
        "notice": "Validate the signature of a message produced with RSA-SHA-256"
      },
      "validateSignature(bytes,bytes,bytes,bytes)": {
        "notice": "Validate the signature of a message produced with any supported signature algorithm"
      }
    },
    "notice": "Library for signature validation"
  }
}