{
  "contractName": "Verifier",
  "abi": [
    {
      "inputs": [
        {
          "internalType": "address",
          "name": "endorsementStore",
          "type": "address"
        },
        {
          "internalType": "uint256",
          "name": "rootStore",
          "type": "uint256"
        }
      ],
      "payable": false,
      "stateMutability": "nonpayable",
      "type": "constructor"
    },
    {
      "constant": false,
      "inputs": [
        {
          "internalType": "address",
          "name": "newOwner",
          "type": "address"
        }
      ],
      "name": "transferOwnership",
      "outputs": [],
      "payable": false,
      "stateMutability": "nonpayable",
      "type": "function"
    },
    {
      "constant": false,
      "inputs": [
        {
          "internalType": "address",
          "name": "endorsementStore",
          "type": "address"
        },
        {
          "internalType": "uint256",
          "name": "rootStore",
          "type": "uint256"
        }
      ],
      "name": "setEndorsementDatabase",
      "outputs": [],
      "payable": false,
      "stateMutability": "nonpayable",
      "type": "function"
    }
  ],
  "bytecode": "0x608060405234801561001057600080fd5b506040516104313803806104318339818101604052604081101561003357600080fd5b810190808051906020019092919080519060200190929190505050336000806101000a81548173ffffffffffffffffffffffffffffffffffffffff021916908373ffffffffffffffffffffffffffffffffffffffff16021790555081600160006101000a81548173ffffffffffffffffffffffffffffffffffffffff021916908373ffffffffffffffffffffffffffffffffffffffff16021790555080600281905550505061034a806100e76000396000f3fe608060405234801561001057600080fd5b50600436106100365760003560e01c806393067db41461003b578063f2fde38b14610089575b600080fd5b6100876004803603604081101561005157600080fd5b81019080803573ffffffffffffffffffffffffffffffffffffffff169060200190929190803590602001909291905050506100cd565b005b6100cb6004803603602081101561009f57600080fd5b81019080803573ffffffffffffffffffffffffffffffffffffffff1690602001909291905050506101db565b005b6000809054906101000a900473ffffffffffffffffffffffffffffffffffffffff1673ffffffffffffffffffffffffffffffffffffffff163373ffffffffffffffffffffffffffffffffffffffff161461018f576040517f08c379a000000000000000000000000000000000000000000000000000000000815260040180806020018281038252600f8152602001807f4e6f7420617574686f72697a65642e000000000000000000000000000000000081525060200191505060405180910390fd5b81600160006101000a81548173ffffffffffffffffffffffffffffffffffffffff021916908373ffffffffffffffffffffffffffffffffffffffff160217905550806002819055505050565b6000809054906101000a900473ffffffffffffffffffffffffffffffffffffffff1673ffffffffffffffffffffffffffffffffffffffff163373ffffffffffffffffffffffffffffffffffffffff161461029d576040517f08c379a000000000000000000000000000000000000000000000000000000000815260040180806020018281038252600f8152602001807f4e6f7420617574686f72697a65642e000000000000000000000000000000000081525060200191505060405180910390fd5b600073ffffffffffffffffffffffffffffffffffffffff168173ffffffffffffffffffffffffffffffffffffffff161461031257806000806101000a81548173ffffffffffffffffffffffffffffffffffffffff021916908373ffffffffffffffffffffffffffffffffffffffff1602179055505b5056fea265627a7a72315820b7dc5925d68ae5c2cca7c78385c8a2ff56d2347299aefb132435c92b476a982064736f6c63430005100032",
  "source": "pragma solidity ^0.5.12;\n\nimport \"./Owned.sol\";\nimport \"./EndorsementStore.sol\";\n\n/// @title Verifier\n/// @notice Reference implementation of a verifier for a TLS certificate-based authentication framework\n/// @dev Reference implementation of a verifier for a TLS certificate-based authentication framework\ncontract Verifier is Owned {\n\t/// @notice Pointer to the EndorsementDatabase referred to for decisions\n\tEndorsementDatabase es;\n\t/// @notice Index of the trusted root store in EndorsementDatabase which is referred to for decisions\n\tuint256 endorsementRootStore;\n\n\tconstructor (address endorsementStore, uint256 rootStore) public{\n\t\tes = EndorsementDatabase(endorsementStore);\n\t\tendorsementRootStore = rootStore;\n\t}\n\n\t/// @notice Set the EndorsementDatabase contract and index of trusted root store\n\t/// @dev Set the EndorsementDatabase contract and index of trusted root store\n\t/// @param endorsementStore Address of the EndorsementDatabase contract\n\t/// @param rootStore Index of the root store\n\tfunction setEndorsementDatabase(address endorsementStore, uint256 rootStore) public onlyOwner{\n\t\tes = EndorsementDatabase(endorsementStore);\n\t\tendorsementRootStore = rootStore;\n\t}\n}\n",
  "sourcePath": "/home/friederike/tls-certificates-for-etherum/implementation/contracts/Verifier.sol",
  "compiler": {
    "name": "solc",
    "version": "0.5.16+commit.9c3226ce.Emscripten.clang"
  },
  "schemaVersion": "3.0.22",
  "updatedAt": "2020-05-24T18:20:54.881Z",
  "devdoc": {
    "details": "Reference implementation of a verifier for a TLS certificate-based authentication framework",
    "methods": {
      "setEndorsementDatabase(address,uint256)": {
        "details": "Set the EndorsementDatabase contract and index of trusted root store",
        "params": {
          "endorsementStore": "Address of the EndorsementDatabase contract",
          "rootStore": "Index of the root store"
        }
      }
    },
    "title": "Verifier"
  },
  "userdoc": {
    "methods": {
      "setEndorsementDatabase(address,uint256)": {
        "notice": "Set the EndorsementDatabase contract and index of trusted root store"
      }
    },
    "notice": "Reference implementation of a verifier for a TLS certificate-based authentication framework"
  }
}